{
  "_format": "hh-sol-artifact-1",
  "contractName": "NativeBridge",
  "sourceName": "contracts/NativeBridge.sol",
  "abi": [
    {
      "inputs": [
        {
          "internalType": "address",
          "name": "_ccipRouter",
          "type": "address"
        },
        {
          "internalType": "address[]",
          "name": "_validators",
          "type": "address[]"
        },
        {
          "internalType": "uint256",
          "name": "_threshold",
          "type": "uint256"
        },
        {
          "internalType": "address",
          "name": "link",
          "type": "address"
        }
      ],
      "stateMutability": "nonpayable",
      "type": "constructor"
    },
    {
      "inputs": [],
      "name": "AmountToBridgeZero",
      "type": "error"
    },
    {
      "inputs": [],
      "name": "AmountZero",
      "type": "error"
    },
    {
      "inputs": [],
      "name": "DesWalletAddressZero",
      "type": "error"
    },
    {
      "inputs": [],
      "name": "DestAddressZero",
      "type": "error"
    },
    {
      "inputs": [
        {
          "internalType": "uint256",
          "name": "sent",
          "type": "uint256"
        },
        {
          "internalType": "uint256",
          "name": "required",
          "type": "uint256"
        }
      ],
      "name": "InsufficientFeeSent",
      "type": "error"
    },
    {
      "inputs": [],
      "name": "InvalidDestChainSelector",
      "type": "error"
    },
    {
      "inputs": [
        {
          "internalType": "address",
          "name": "router",
          "type": "address"
        }
      ],
      "name": "InvalidRouter",
      "type": "error"
    },
    {
      "anonymous": false,
      "inputs": [
        {
          "indexed": false,
          "internalType": "uint256",
          "name": "allowance",
          "type": "uint256"
        }
      ],
      "name": "DebugAllowance",
      "type": "event"
    },
    {
      "anonymous": false,
      "inputs": [
        {
          "indexed": false,
          "internalType": "uint256",
          "name": "balance",
          "type": "uint256"
        }
      ],
      "name": "DebugBalance",
      "type": "event"
    },
    {
      "anonymous": false,
      "inputs": [
        {
          "indexed": false,
          "internalType": "uint256",
          "name": "fee",
          "type": "uint256"
        }
      ],
      "name": "DebugFee",
      "type": "event"
    },
    {
      "anonymous": false,
      "inputs": [
        {
          "indexed": false,
          "internalType": "string",
          "name": "message",
          "type": "string"
        }
      ],
      "name": "DebugMsg",
      "type": "event"
    },
    {
      "anonymous": false,
      "inputs": [
        {
          "indexed": false,
          "internalType": "bytes32",
          "name": "tokenId",
          "type": "bytes32"
        },
        {
          "indexed": false,
          "internalType": "address",
          "name": "tokenAddr",
          "type": "address"
        }
      ],
      "name": "DebugTokenMapping",
      "type": "event"
    },
    {
      "anonymous": false,
      "inputs": [
        {
          "indexed": false,
          "internalType": "address",
          "name": "user",
          "type": "address"
        },
        {
          "indexed": false,
          "internalType": "uint256",
          "name": "amount",
          "type": "uint256"
        },
        {
          "indexed": false,
          "internalType": "uint256",
          "name": "balanceBefore",
          "type": "uint256"
        },
        {
          "indexed": false,
          "internalType": "uint256",
          "name": "balanceAfter",
          "type": "uint256"
        }
      ],
      "name": "DebugUnlockTokenVL",
      "type": "event"
    },
    {
      "anonymous": false,
      "inputs": [
        {
          "indexed": true,
          "internalType": "bytes32",
          "name": "txKey",
          "type": "bytes32"
        }
      ],
      "name": "Executed",
      "type": "event"
    },
    {
      "anonymous": false,
      "inputs": [
        {
          "indexed": true,
          "internalType": "address",
          "name": "sender",
          "type": "address"
        },
        {
          "indexed": true,
          "internalType": "address",
          "name": "token",
          "type": "address"
        },
        {
          "indexed": false,
          "internalType": "uint256",
          "name": "amount",
          "type": "uint256"
        },
        {
          "indexed": false,
          "internalType": "uint64",
          "name": "destChainSelector",
          "type": "uint64"
        },
        {
          "indexed": true,
          "internalType": "address",
          "name": "destAddress",
          "type": "address"
        },
        {
          "indexed": false,
          "internalType": "address",
          "name": "desWalletAddress",
          "type": "address"
        }
      ],
      "name": "LockedTokenCCIP",
      "type": "event"
    },
    {
      "anonymous": false,
      "inputs": [
        {
          "indexed": true,
          "internalType": "address",
          "name": "sender",
          "type": "address"
        },
        {
          "indexed": false,
          "internalType": "uint256",
          "name": "amount",
          "type": "uint256"
        },
        {
          "indexed": false,
          "internalType": "address",
          "name": "destAddress",
          "type": "address"
        },
        {
          "indexed": false,
          "internalType": "address",
          "name": "destWalletAddress",
          "type": "address"
        },
        {
          "indexed": false,
          "internalType": "string",
          "name": "tokenSymbol",
          "type": "string"
        }
      ],
      "name": "LockedTokenVL",
      "type": "event"
    },
    {
      "anonymous": false,
      "inputs": [
        {
          "indexed": true,
          "internalType": "address",
          "name": "user",
          "type": "address"
        },
        {
          "indexed": true,
          "internalType": "bytes32",
          "name": "tokenId",
          "type": "bytes32"
        },
        {
          "indexed": false,
          "internalType": "address",
          "name": "tokenAddr",
          "type": "address"
        },
        {
          "indexed": false,
          "internalType": "uint256",
          "name": "amount",
          "type": "uint256"
        },
        {
          "indexed": false,
          "internalType": "bytes32",
          "name": "messageId",
          "type": "bytes32"
        }
      ],
      "name": "MessageReceived",
      "type": "event"
    },
    {
      "anonymous": false,
      "inputs": [
        {
          "indexed": true,
          "internalType": "bytes32",
          "name": "messageId",
          "type": "bytes32"
        }
      ],
      "name": "MessageSent",
      "type": "event"
    },
    {
      "anonymous": false,
      "inputs": [
        {
          "indexed": true,
          "internalType": "address",
          "name": "previousOwner",
          "type": "address"
        },
        {
          "indexed": true,
          "internalType": "address",
          "name": "newOwner",
          "type": "address"
        }
      ],
      "name": "OwnershipTransferred",
      "type": "event"
    },
    {
      "anonymous": false,
      "inputs": [
        {
          "indexed": false,
          "internalType": "address",
          "name": "account",
          "type": "address"
        }
      ],
      "name": "Paused",
      "type": "event"
    },
    {
      "anonymous": false,
      "inputs": [
        {
          "indexed": false,
          "internalType": "address",
          "name": "token",
          "type": "address"
        },
        {
          "indexed": false,
          "internalType": "uint256",
          "name": "amount",
          "type": "uint256"
        }
      ],
      "name": "RescueTokenCCIP",
      "type": "event"
    },
    {
      "anonymous": false,
      "inputs": [
        {
          "indexed": false,
          "internalType": "uint256",
          "name": "amount",
          "type": "uint256"
        }
      ],
      "name": "RescueTokenVL",
      "type": "event"
    },
    {
      "anonymous": false,
      "inputs": [
        {
          "indexed": true,
          "internalType": "bytes32",
          "name": "txKey",
          "type": "bytes32"
        },
        {
          "indexed": true,
          "internalType": "address",
          "name": "signer",
          "type": "address"
        }
      ],
      "name": "SignatureSubmitted",
      "type": "event"
    },
    {
      "anonymous": false,
      "inputs": [
        {
          "indexed": false,
          "internalType": "uint256",
          "name": "newThreshold",
          "type": "uint256"
        }
      ],
      "name": "ThresholdUpdated",
      "type": "event"
    },
    {
      "anonymous": false,
      "inputs": [
        {
          "indexed": true,
          "internalType": "address",
          "name": "sender",
          "type": "address"
        },
        {
          "indexed": true,
          "internalType": "address",
          "name": "token",
          "type": "address"
        },
        {
          "indexed": false,
          "internalType": "uint256",
          "name": "amount",
          "type": "uint256"
        }
      ],
      "name": "TokenCCIPLocked",
      "type": "event"
    },
    {
      "anonymous": false,
      "inputs": [
        {
          "indexed": false,
          "internalType": "address",
          "name": "user",
          "type": "address"
        },
        {
          "indexed": false,
          "internalType": "address",
          "name": "token",
          "type": "address"
        },
        {
          "indexed": false,
          "internalType": "uint256",
          "name": "amount",
          "type": "uint256"
        },
        {
          "indexed": false,
          "internalType": "uint256",
          "name": "balanceBefore",
          "type": "uint256"
        },
        {
          "indexed": false,
          "internalType": "uint256",
          "name": "balanceAfter",
          "type": "uint256"
        }
      ],
      "name": "UnlockTokenCCIP",
      "type": "event"
    },
    {
      "anonymous": false,
      "inputs": [
        {
          "indexed": true,
          "internalType": "address",
          "name": "recipientAddr",
          "type": "address"
        },
        {
          "indexed": false,
          "internalType": "address",
          "name": "tokenAddr",
          "type": "address"
        },
        {
          "indexed": false,
          "internalType": "uint256",
          "name": "amount",
          "type": "uint256"
        }
      ],
      "name": "UnlockedTokenERC20VL",
      "type": "event"
    },
    {
      "anonymous": false,
      "inputs": [
        {
          "indexed": true,
          "internalType": "address",
          "name": "recipientAddr",
          "type": "address"
        },
        {
          "indexed": false,
          "internalType": "uint256",
          "name": "amount",
          "type": "uint256"
        }
      ],
      "name": "UnlockedTokenVL",
      "type": "event"
    },
    {
      "anonymous": false,
      "inputs": [
        {
          "indexed": false,
          "internalType": "address",
          "name": "account",
          "type": "address"
        }
      ],
      "name": "Unpaused",
      "type": "event"
    },
    {
      "anonymous": false,
      "inputs": [
        {
          "indexed": true,
          "internalType": "address",
          "name": "validator",
          "type": "address"
        }
      ],
      "name": "ValidatorAdded",
      "type": "event"
    },
    {
      "anonymous": false,
      "inputs": [
        {
          "indexed": true,
          "internalType": "address",
          "name": "validator",
          "type": "address"
        }
      ],
      "name": "ValidatorRemoved",
      "type": "event"
    },
    {
      "stateMutability": "payable",
      "type": "fallback"
    },
    {
      "inputs": [],
      "name": "LOCK_ERC20_TYPEHASH",
      "outputs": [
        {
          "internalType": "bytes32",
          "name": "",
          "type": "bytes32"
        }
      ],
      "stateMutability": "view",
      "type": "function"
    },
    {
      "inputs": [],
      "name": "PAYLOAD_TYPEHASH",
      "outputs": [
        {
          "internalType": "bytes32",
          "name": "",
          "type": "bytes32"
        }
      ],
      "stateMutability": "view",
      "type": "function"
    },
    {
      "inputs": [
        {
          "internalType": "address",
          "name": "validator",
          "type": "address"
        }
      ],
      "name": "addValidator",
      "outputs": [],
      "stateMutability": "nonpayable",
      "type": "function"
    },
    {
      "inputs": [
        {
          "components": [
            {
              "internalType": "bytes32",
              "name": "messageId",
              "type": "bytes32"
            },
            {
              "internalType": "uint64",
              "name": "sourceChainSelector",
              "type": "uint64"
            },
            {
              "internalType": "bytes",
              "name": "sender",
              "type": "bytes"
            },
            {
              "internalType": "bytes",
              "name": "data",
              "type": "bytes"
            },
            {
              "components": [
                {
                  "internalType": "address",
                  "name": "token",
                  "type": "address"
                },
                {
                  "internalType": "uint256",
                  "name": "amount",
                  "type": "uint256"
                }
              ],
              "internalType": "struct Client.EVMTokenAmount[]",
              "name": "destTokenAmounts",
              "type": "tuple[]"
            }
          ],
          "internalType": "struct Client.Any2EVMMessage",
          "name": "message",
          "type": "tuple"
        }
      ],
      "name": "ccipReceive",
      "outputs": [],
      "stateMutability": "nonpayable",
      "type": "function"
    },
    {
      "inputs": [],
      "name": "domainSeparator",
      "outputs": [
        {
          "internalType": "bytes32",
          "name": "",
          "type": "bytes32"
        }
      ],
      "stateMutability": "view",
      "type": "function"
    },
    {
      "inputs": [
        {
          "internalType": "uint64",
          "name": "destChainSelector",
          "type": "uint64"
        },
        {
          "internalType": "address",
          "name": "receiver",
          "type": "address"
        },
        {
          "internalType": "bytes",
          "name": "data",
          "type": "bytes"
        },
        {
          "internalType": "enum NativeBridge.PayFeesIn",
          "name": "payFeesIn",
          "type": "uint8"
        },
        {
          "internalType": "address",
          "name": "tokenAddress",
          "type": "address"
        },
        {
          "internalType": "uint256",
          "name": "tokenAmount",
          "type": "uint256"
        }
      ],
      "name": "getFeeCCIP",
      "outputs": [
        {
          "internalType": "uint256",
          "name": "",
          "type": "uint256"
        }
      ],
      "stateMutability": "view",
      "type": "function"
    },
    {
      "inputs": [],
      "name": "getRouter",
      "outputs": [
        {
          "internalType": "address",
          "name": "",
          "type": "address"
        }
      ],
      "stateMutability": "view",
      "type": "function"
    },
    {
      "inputs": [],
      "name": "getValidatorCount",
      "outputs": [
        {
          "internalType": "uint256",
          "name": "",
          "type": "uint256"
        }
      ],
      "stateMutability": "view",
      "type": "function"
    },
    {
      "inputs": [],
      "name": "i_link",
      "outputs": [
        {
          "internalType": "address",
          "name": "",
          "type": "address"
        }
      ],
      "stateMutability": "view",
      "type": "function"
    },
    {
      "inputs": [
        {
          "internalType": "contract OFTV2",
          "name": "oftToken",
          "type": "address"
        },
        {
          "internalType": "uint256",
          "name": "amountToBridge",
          "type": "uint256"
        },
        {
          "internalType": "uint64",
          "name": "destChainId",
          "type": "uint64"
        },
        {
          "internalType": "address",
          "name": "destAddress",
          "type": "address"
        },
        {
          "internalType": "address",
          "name": "desWalletAddress",
          "type": "address"
        }
      ],
      "name": "lockOFT",
      "outputs": [],
      "stateMutability": "payable",
      "type": "function"
    },
    {
      "inputs": [
        {
          "internalType": "contract IERC20",
          "name": "token",
          "type": "address"
        },
        {
          "internalType": "uint64",
          "name": "destChainSelector",
          "type": "uint64"
        },
        {
          "internalType": "address",
          "name": "destAddress",
          "type": "address"
        },
        {
          "internalType": "address",
          "name": "desWalletAddress",
          "type": "address"
        },
        {
          "internalType": "uint256",
          "name": "amountToBridge",
          "type": "uint256"
        },
        {
          "internalType": "enum NativeBridge.PayFeesIn",
          "name": "payFeesIn",
          "type": "uint8"
        }
      ],
      "name": "lockTokenCCIP",
      "outputs": [
        {
          "internalType": "bytes32",
          "name": "messageId",
          "type": "bytes32"
        }
      ],
      "stateMutability": "payable",
      "type": "function"
    },
    {
      "inputs": [
        {
          "internalType": "address",
          "name": "destAddress",
          "type": "address"
        },
        {
          "internalType": "address",
          "name": "destWalletAddress",
          "type": "address"
        }
      ],
      "name": "lockTokenVL",
      "outputs": [],
      "stateMutability": "payable",
      "type": "function"
    },
    {
      "inputs": [
        {
          "internalType": "address",
          "name": "",
          "type": "address"
        }
      ],
      "name": "lockedTokenVL",
      "outputs": [
        {
          "internalType": "uint256",
          "name": "",
          "type": "uint256"
        }
      ],
      "stateMutability": "view",
      "type": "function"
    },
    {
      "inputs": [
        {
          "internalType": "address",
          "name": "",
          "type": "address"
        }
      ],
      "name": "nonces",
      "outputs": [
        {
          "internalType": "uint256",
          "name": "",
          "type": "uint256"
        }
      ],
      "stateMutability": "view",
      "type": "function"
    },
    {
      "inputs": [],
      "name": "owner",
      "outputs": [
        {
          "internalType": "address",
          "name": "",
          "type": "address"
        }
      ],
      "stateMutability": "view",
      "type": "function"
    },
    {
      "inputs": [],
      "name": "pause",
      "outputs": [],
      "stateMutability": "nonpayable",
      "type": "function"
    },
    {
      "inputs": [],
      "name": "paused",
      "outputs": [
        {
          "internalType": "bool",
          "name": "",
          "type": "bool"
        }
      ],
      "stateMutability": "view",
      "type": "function"
    },
    {
      "inputs": [
        {
          "internalType": "bytes32",
          "name": "",
          "type": "bytes32"
        }
      ],
      "name": "payloadData",
      "outputs": [
        {
          "internalType": "bytes32",
          "name": "txKey",
          "type": "bytes32"
        },
        {
          "internalType": "address",
          "name": "from",
          "type": "address"
        },
        {
          "internalType": "address",
          "name": "to",
          "type": "address"
        },
        {
          "internalType": "address",
          "name": "tokenAddr",
          "type": "address"
        },
        {
          "internalType": "uint256",
          "name": "amount",
          "type": "uint256"
        },
        {
          "internalType": "uint8",
          "name": "tokenType",
          "type": "uint8"
        },
        {
          "internalType": "uint256",
          "name": "nonce",
          "type": "uint256"
        }
      ],
      "stateMutability": "view",
      "type": "function"
    },
    {
      "inputs": [
        {
          "internalType": "bytes32",
          "name": "",
          "type": "bytes32"
        }
      ],
      "name": "processedMessages",
      "outputs": [
        {
          "internalType": "bool",
          "name": "",
          "type": "bool"
        }
      ],
      "stateMutability": "view",
      "type": "function"
    },
    {
      "inputs": [
        {
          "internalType": "address",
          "name": "validator",
          "type": "address"
        }
      ],
      "name": "removeValidator",
      "outputs": [],
      "stateMutability": "nonpayable",
      "type": "function"
    },
    {
      "inputs": [],
      "name": "renounceOwnership",
      "outputs": [],
      "stateMutability": "nonpayable",
      "type": "function"
    },
    {
      "inputs": [
        {
          "internalType": "contract IERC20",
          "name": "token",
          "type": "address"
        },
        {
          "internalType": "uint256",
          "name": "amount",
          "type": "uint256"
        }
      ],
      "name": "rescueTokenCCIP",
      "outputs": [],
      "stateMutability": "nonpayable",
      "type": "function"
    },
    {
      "inputs": [
        {
          "internalType": "uint256",
          "name": "amount",
          "type": "uint256"
        }
      ],
      "name": "rescueTokenVL",
      "outputs": [],
      "stateMutability": "nonpayable",
      "type": "function"
    },
    {
      "inputs": [
        {
          "internalType": "uint256",
          "name": "newThreshold",
          "type": "uint256"
        }
      ],
      "name": "setThreshold",
      "outputs": [],
      "stateMutability": "nonpayable",
      "type": "function"
    },
    {
      "inputs": [
        {
          "internalType": "address",
          "name": "tokenAddress",
          "type": "address"
        },
        {
          "internalType": "bytes32",
          "name": "tokenId",
          "type": "bytes32"
        }
      ],
      "name": "setTokenAddressToId",
      "outputs": [],
      "stateMutability": "nonpayable",
      "type": "function"
    },
    {
      "inputs": [
        {
          "internalType": "bytes32",
          "name": "tokenId",
          "type": "bytes32"
        },
        {
          "internalType": "address",
          "name": "tokenAddress",
          "type": "address"
        }
      ],
      "name": "setTokenMapping",
      "outputs": [],
      "stateMutability": "nonpayable",
      "type": "function"
    },
    {
      "inputs": [
        {
          "internalType": "bytes32",
          "name": "",
          "type": "bytes32"
        }
      ],
      "name": "signatureCount",
      "outputs": [
        {
          "internalType": "uint256",
          "name": "",
          "type": "uint256"
        }
      ],
      "stateMutability": "view",
      "type": "function"
    },
    {
      "inputs": [
        {
          "internalType": "bytes32",
          "name": "",
          "type": "bytes32"
        },
        {
          "internalType": "address",
          "name": "",
          "type": "address"
        }
      ],
      "name": "signatures",
      "outputs": [
        {
          "internalType": "bool",
          "name": "",
          "type": "bool"
        }
      ],
      "stateMutability": "view",
      "type": "function"
    },
    {
      "inputs": [
        {
          "internalType": "bytes4",
          "name": "interfaceId",
          "type": "bytes4"
        }
      ],
      "name": "supportsInterface",
      "outputs": [
        {
          "internalType": "bool",
          "name": "",
          "type": "bool"
        }
      ],
      "stateMutability": "view",
      "type": "function"
    },
    {
      "inputs": [],
      "name": "threshold",
      "outputs": [
        {
          "internalType": "uint256",
          "name": "",
          "type": "uint256"
        }
      ],
      "stateMutability": "view",
      "type": "function"
    },
    {
      "inputs": [
        {
          "internalType": "address",
          "name": "",
          "type": "address"
        }
      ],
      "name": "tokenAddressToId",
      "outputs": [
        {
          "internalType": "bytes32",
          "name": "",
          "type": "bytes32"
        }
      ],
      "stateMutability": "view",
      "type": "function"
    },
    {
      "inputs": [
        {
          "internalType": "bytes32",
          "name": "",
          "type": "bytes32"
        }
      ],
      "name": "tokenMapping",
      "outputs": [
        {
          "internalType": "address",
          "name": "",
          "type": "address"
        }
      ],
      "stateMutability": "view",
      "type": "function"
    },
    {
      "inputs": [
        {
          "internalType": "address",
          "name": "newOwner",
          "type": "address"
        }
      ],
      "name": "transferOwnership",
      "outputs": [],
      "stateMutability": "nonpayable",
      "type": "function"
    },
    {
      "inputs": [
        {
          "internalType": "bytes",
          "name": "signature",
          "type": "bytes"
        },
        {
          "components": [
            {
              "internalType": "bytes32",
              "name": "txKey",
              "type": "bytes32"
            },
            {
              "internalType": "address",
              "name": "from",
              "type": "address"
            },
            {
              "internalType": "address",
              "name": "to",
              "type": "address"
            },
            {
              "internalType": "address",
              "name": "tokenAddr",
              "type": "address"
            },
            {
              "internalType": "uint256",
              "name": "amount",
              "type": "uint256"
            },
            {
              "internalType": "uint8",
              "name": "tokenType",
              "type": "uint8"
            },
            {
              "internalType": "uint256",
              "name": "nonce",
              "type": "uint256"
            }
          ],
          "internalType": "struct NativeBridge.Payload",
          "name": "payload",
          "type": "tuple"
        }
      ],
      "name": "unLockTokenVL",
      "outputs": [],
      "stateMutability": "nonpayable",
      "type": "function"
    },
    {
      "inputs": [],
      "name": "unpause",
      "outputs": [],
      "stateMutability": "nonpayable",
      "type": "function"
    },
    {
      "inputs": [
        {
          "internalType": "uint256",
          "name": "",
          "type": "uint256"
        }
      ],
      "name": "validators",
      "outputs": [
        {
          "internalType": "address",
          "name": "",
          "type": "address"
        }
      ],
      "stateMutability": "view",
      "type": "function"
    },
    {
      "inputs": [
        {
          "internalType": "address payable",
          "name": "to",
          "type": "address"
        },
        {
          "internalType": "uint256",
          "name": "amount",
          "type": "uint256"
        }
      ],
      "name": "withdraw",
      "outputs": [],
      "stateMutability": "nonpayable",
      "type": "function"
    },
    {
      "stateMutability": "payable",
      "type": "receive"
    }
  ],
  "bytecode": "0x60c06040523480156200001157600080fd5b506040516200431b3803806200431b833981016040819052620000349162000334565b836001600160a01b03811662000065576040516335fdcccd60e21b8152600060048201526024015b60405180910390fd5b6001600160a01b03166080526200007c3362000230565b6000805460ff60a01b19169055600180558251620000dd5760405162461bcd60e51b815260206004820152601e60248201527f56616c696461746f72206c6973742063616e6e6f7420626520656d707479000060448201526064016200005c565b600082118015620000ef575082518211155b620001315760405162461bcd60e51b8152602060048201526011602482015270125b9d985b1a59081d1a1c995cda1bdb19607a1b60448201526064016200005c565b82516200014690600390602086019062000280565b506004919091556001600160a01b031660a0908152604080518082018252600c81526b4e617469766542726964676560a01b6020918201528151808301835260018152603160f81b9082015281517f8b73c3c69bb8fe3d512ecc4cf759cc79239f7b179b0ffacaa9a75d522b39400f818301527fd060e77236a75b6130e2d5563fabd40660af2c1841536972e2fdaed438bebdd6818401527fc89efdaa54c0f20c7adf612882df0950f5a951637e0307cdcb4c672f298b8bc6606082015246608082015230818501528251808203909401845260c001909152815191012060025550620004399050565b600080546001600160a01b038381166001600160a01b0319831681178455604051919092169283917f8be0079c531659141344cd1fd0a4f28419497f9722a3daafe3b4186f6b6457e09190a35050565b828054828255906000526020600020908101928215620002d8579160200282015b82811115620002d857825182546001600160a01b0319166001600160a01b03909116178255602090920191600190910190620002a1565b50620002e6929150620002ea565b5090565b5b80821115620002e65760008155600101620002eb565b80516001600160a01b03811681146200031957600080fd5b919050565b634e487b7160e01b600052604160045260246000fd5b600080600080608085870312156200034b57600080fd5b620003568562000301565b602086810151919550906001600160401b03808211156200037657600080fd5b818801915088601f8301126200038b57600080fd5b815181811115620003a057620003a06200031e565b8060051b604051601f19603f83011681018181108582111715620003c857620003c86200031e565b60405291825284820192508381018501918b831115620003e757600080fd5b938501935b828510156200041057620004008562000301565b84529385019392850192620003ec565b809850505050505050604085015191506200042e6060860162000301565b905092959194509250565b60805160a051613ea762000474600039600081816104170152818161102a0152818161117701526115bf01526000611f9d0152613ea76000f3fe6080604052600436106101df5760003560e01c80637ecebe001161010a578063b0d83f4c116100a5578063ded624d71161006c578063ded624d714610647578063e98a814e14610674578063f2fde38b14610723578063f3fef3a314610743578063f698da251461076357005b8063b0d83f4c14610576578063b0f479a114610596578063b3cc026d146105ab578063dc18fa95146105d8578063dddd7f6f1461061357005b80637ecebe00146104395780638456cb591461046657806385572ffb1461047b578063886b7e181461049b57806388ba16ab146104bb5780638da5cb5b146104eb578063960bfe04146105095780639c23775314610529578063ac49c8e11461055657005b8063510f80631161017a578063510f80631461032a5780635c975abb1461033d57806364b6478b1461035257806365e2e58014610372578063667cb4ba146103925780637071688a146103c8578063715018a6146103dd5780637ab4a496146103f25780637d253aff1461040557005b806301ffc9a7146101e85780631d1622ff1461021d57806334fc93371461023057806335aa2e44146102725780633f4ba83a1461029f57806340a141ff146102b457806342cde4e8146102d45780634d238c8e146102ea578063507dafbd1461030a57005b366101e657005b005b3480156101f457600080fd5b506102086102033660046132d1565b610779565b60405190151581526020015b60405180910390f35b6101e661022b366004613317565b6107b0565b34801561023c57600080fd5b506102647f871b9fef34685e31b9551b2e4b6991006cd3ab5225a4a97b6c8548388d70879e81565b604051908152602001610214565b34801561027e57600080fd5b5061029261028d366004613350565b610879565b6040516102149190613369565b3480156102ab57600080fd5b506101e66108a3565b3480156102c057600080fd5b506101e66102cf36600461337d565b6108b5565b3480156102e057600080fd5b5061026460045481565b3480156102f657600080fd5b506101e661030536600461337d565b610a50565b34801561031657600080fd5b506101e661032536600461339a565b610bce565b6102646103383660046133f1565b610d1c565b34801561034957600080fd5b5061020861148d565b34801561035e57600080fd5b506101e661036d366004613464565b61149d565b34801561037e57600080fd5b5061026461038d366004613588565b6114de565b34801561039e57600080fd5b506102926103ad366004613350565b6006602052600090815260409020546001600160a01b031681565b3480156103d457600080fd5b50600354610264565b3480156103e957600080fd5b506101e661168e565b6101e6610400366004613615565b6116a0565b34801561041157600080fd5b506102927f000000000000000000000000000000000000000000000000000000000000000081565b34801561044557600080fd5b5061026461045436600461337d565b600c6020526000908152604090205481565b34801561047257600080fd5b506101e661186b565b34801561048757600080fd5b506101e661049636600461367b565b61187b565b3480156104a757600080fd5b506101e66104b636600461339a565b6118ca565b3480156104c757600080fd5b506102086104d6366004613350565b600a6020526000908152604090205460ff1681565b3480156104f757600080fd5b506000546001600160a01b0316610292565b34801561051557600080fd5b506101e6610524366004613350565b6118ee565b34801561053557600080fd5b5061026461054436600461337d565b600b6020526000908152604090205481565b34801561056257600080fd5b506101e6610571366004613350565b611a3d565b34801561058257600080fd5b506101e66105913660046136b5565b611aff565b3480156105a257600080fd5b50610292611f9b565b3480156105b757600080fd5b506102646105c6366004613350565b60086020526000908152604090205481565b3480156105e457600080fd5b506102086105f3366004613464565b600760209081526000928352604080842090915290825290205460ff1681565b34801561061f57600080fd5b506102647f71e6f75824b644afe2a01b50d8156281ca422aa3e52ee6d739d97a33af83e01381565b34801561065357600080fd5b5061026461066236600461337d565b60056020526000908152604090205481565b34801561068057600080fd5b506106dd61068f366004613350565b600960205260009081526040902080546001820154600283015460038401546004850154600586015460069096015494956001600160a01b03948516959385169490921692909160ff169087565b604080519788526001600160a01b03968716602089015294861694870194909452939091166060850152608084015260ff90911660a083015260c082015260e001610214565b34801561072f57600080fd5b506101e661073e36600461337d565b611fbf565b34801561074f57600080fd5b506101e661075e36600461339a565b612035565b34801561076f57600080fd5b5061026460025481565b60006001600160e01b031982166385572ffb60e01b14806107aa57506001600160e01b031982166301ffc9a760e01b145b92915050565b6107b86120ba565b6107c0612102565b346000036107e1576040516365e52d5160e11b815260040160405180910390fd5b336000908152600b602052604081208054349290610800908490613725565b9091555050604080513481526001600160a01b0384811660208301528316818301526080606082018190526003908201526208aa8960eb1b60a0820152905133917f206505b8c8248d9e4750716158a535a498e9edb4b956c96764591ac262749d53919081900360c00190a261087560018055565b5050565b6003818154811061088957600080fd5b6000918252602090912001546001600160a01b0316905081565b6108ab61215b565b6108b36121b5565b565b6108bd61215b565b6108c681612204565b61090d5760405162461bcd60e51b815260206004820152601360248201527215985b1a59185d1bdc881b9bdd08199bdd5b99606a1b60448201526064015b60405180910390fd5b60005b60035481101561087557816001600160a01b03166003828154811061093757610937613738565b6000918252602090912001546001600160a01b031603610a3e57600380546109619060019061374e565b8154811061097157610971613738565b600091825260209091200154600380546001600160a01b03909216918390811061099d5761099d613738565b9060005260206000200160006101000a8154816001600160a01b0302191690836001600160a01b0316021790555060038054806109dc576109dc613761565b600082815260209020810160001990810180546001600160a01b0319169055019055610a0661226d565b6040516001600160a01b038316907fe1434e25d6611e0db941968fdc97811c982ac1602e951637d206f5fdda9dd8f190600090a25050565b80610a4881613777565b915050610910565b610a5861215b565b6001600160a01b038116610aaa5760405162461bcd60e51b8152602060048201526019602482015278496e76616c69642076616c696461746f72206164647265737360381b6044820152606401610904565b610ab381612204565b15610afb5760405162461bcd60e51b815260206004820152601860248201527756616c696461746f7220616c72656164792065786973747360401b6044820152606401610904565b60035460001911610b445760405162461bcd60e51b815260206004820152601360248201527215985b1a59185d1bdc881b1a5cdd08199d5b1b606a1b6044820152606401610904565b600380546001810182556000919091527fc2575a0e9e593c00f959f8c92f12db2869c3395a3b0502d05e2516446f71f85b0180546001600160a01b0319166001600160a01b038316179055610b9761226d565b6040516001600160a01b038216907fe366c1c0452ed8eec96861e9e54141ebff23c9ec89fe27b996b45f5ec388498790600090a250565b610bd661215b565b6001600160a01b038216610bfc5760405162461bcd60e51b815260040161090490613790565b6040516370a0823160e01b815281906001600160a01b038416906370a0823190610c2a903090600401613369565b602060405180830381865afa158015610c47573d6000803e3d6000fd5b505050506040513d601f19601f82011682018060405250810190610c6b91906137bf565b1015610cb95760405162461bcd60e51b815260206004820152601a60248201527f496e73756666696369656e7420746f6b656e2062616c616e63650000000000006044820152606401610904565b610cdf610cce6000546001600160a01b031690565b6001600160a01b03841690836122dc565b7fedf6aaaf4b693988647901b0c5bb4a68720279d9345e416c5d49cd73d1ddcd278282604051610d109291906137d8565b60405180910390a15050565b6000610d266120ba565b610d2e612102565b856001600160401b0316600003610d585760405163780a7e7360e01b815260040160405180910390fd5b6001600160a01b038516610d7f576040516318d611b360e01b815260040160405180910390fd5b6001600160a01b038416610da657604051635caf28f760e11b815260040160405180910390fd5b82600003610dc75760405163a330592760e01b815260040160405180910390fd5b60008311610de75760405162461bcd60e51b8152600401610904906137f1565b6001600160a01b03871660009081526005602052604090205480610e1d5760405162461bcd60e51b81526004016109049061381d565b600080516020613e52833981519152604051610e5b906020808252600e908201526d151bdad95b9259081b585c1c195960921b604082015260600190565b60405180910390a16040516323b872dd60e01b8152336004820152306024820152604481018590526001600160a01b038916906323b872dd906064016020604051808303816000875af1158015610eb6573d6000803e3d6000fd5b505050506040513d601f19601f82011682018060405250810190610eda9190613848565b506040518481526001600160a01b0389169033907fec36c91f26bfb49a67d65fa075356f5bec12299c4b54c774d07fd15ad35a0a979060200160405180910390a3600080516020613e52833981519152604051610f57906020808252600c908201526b151bdad95b881b1bd8dad95960a21b604082015260600190565b60405180910390a160006040518060a0016040528088604051602001610f7d9190613369565b6040516020818303038152906040528152602001878488604051602001610fa69392919061386a565b60408051601f198184030181529190528152602001600060405190808252806020026020018201604052801561100257816020015b6040805180820190915260008082526020820152815260200190600190039081610fdb5790505b508152602001600186600181111561101c5761101c61388b565b1461102857600061104a565b7f00000000000000000000000000000000000000000000000000000000000000005b6001600160a01b0316815260200161107b6040518060400160405280620493e0815260200160011515815250612332565b905290506000611089611f9b565b6001600160a01b03166320487ded8a846040518363ffffffff1660e01b81526004016110b69291906138f1565b602060405180830381865afa1580156110d3573d6000803e3d6000fd5b505050506040513d601f19601f820116820180604052508101906110f791906137bf565b90507f01c07ee12c70d5c6053fd06c4684862308f1d87ce067678c60fec95f02ecb3238160405161112a91815260200190565b60405180910390a18034101561115c5760405163ddcc6fc960e01b815234600482015260248101829052604401610904565b60018560018111156111705761117061388b565b0361128d577f00000000000000000000000000000000000000000000000000000000000000006001600160a01b031663095ea7b36111ac611f9b565b836040518363ffffffff1660e01b81526004016111ca9291906137d8565b6020604051808303816000875af11580156111e9573d6000803e3d6000fd5b505050506040513d601f19601f8201168201806040525081019061120d9190613848565b50611216611f9b565b6001600160a01b03166396f4e9f98a846040518363ffffffff1660e01b81526004016112439291906138f1565b6020604051808303816000875af1158015611262573d6000803e3d6000fd5b505050506040513d601f19601f8201168201806040525081019061128691906137bf565b9350611309565b611295611f9b565b6001600160a01b03166396f4e9f9828b856040518463ffffffff1660e01b81526004016112c39291906138f1565b60206040518083038185885af11580156112e1573d6000803e3d6000fd5b50505050506040513d601f19601f8201168201806040525081019061130691906137bf565b93505b60405184907f54791b38f3859327992a1ca0590ad3c0f08feba98d1a4f56ab0dca74d203392a90600090a2876001600160a01b03168a6001600160a01b0316336001600160a01b03167f4b62de1390f9d38ddc2e85d18b6221446770ad70dc912c4f9beefc4c4fcefb9a898d8c604051611385939291906139ca565b60405180910390a4803411156114775760006113a1823461374e565b604051909150600090339083908381818185875af1925050503d80600081146113e6576040519150601f19603f3d011682016040523d82523d6000602084013e6113eb565b606091505b505090508061142c5760405162461bcd60e51b815260206004820152600d60248201526c1499599d5b990819985a5b1959609a1b6044820152606401610904565b600080516020613e5283398151915260405161146c9060208082526010908201526f1499599d5b99081cdd58d8d95959195960821b604082015260600190565b60405180910390a150505b50505061148360018055565b9695505050505050565b600054600160a01b900460ff1690565b6114a561215b565b600082815260066020908152604080832080546001600160a01b039095166001600160a01b031990951685179055928252600590522055565b604080516001808252818301909252600091829190816020015b60408051808201909152600080825260208201528152602001906001900390816114f85790505090506040518060400160405280856001600160a01b03168152602001848152508160008151811061155257611552613738565b602002602001018190525060006040518060a001604052808960405160200161157b9190613369565b60408051601f19818403018152918152908252602082018a9052810184905260600160018860018111156115b1576115b161388b565b146115bd5760006115df565b7f00000000000000000000000000000000000000000000000000000000000000005b6001600160a01b031681526020016116076040518060200160405280620493e0815250612390565b90529050611613611f9b565b6001600160a01b03166320487ded8a836040518363ffffffff1660e01b81526004016116409291906138f1565b602060405180830381865afa15801561165d573d6000803e3d6000fd5b505050506040513d601f19601f8201168201806040525081019061168191906137bf565b9998505050505050505050565b61169661215b565b6108b360006123ae565b6116a86120ba565b6116b0612102565b6001600160a01b0385166116fa5760405162461bcd60e51b815260206004820152601160248201527024b73b30b634b21027a32a103a37b5b2b760791b6044820152606401610904565b8261ffff81166001600160401b0382161461174e5760405162461bcd60e51b815260206004820152601460248201527364657374436861696e4964206f766572666c6f7760601b6044820152606401610904565b60408051606081018252338152600060208083018290528351600160f01b9181019190915262030d406022820152909282019060420160408051601f1981840301815291815291525163695ef6bf60e01b81529091506001600160a01b0388169063695ef6bf9034906117ce90339087906000908d9089906004016139f2565b6000604051808303818588803b1580156117e757600080fd5b505af11580156117fb573d6000803e3d6000fd5b5050505050836001600160a01b0316876001600160a01b0316336001600160a01b03167f4b62de1390f9d38ddc2e85d18b6221446770ad70dc912c4f9beefc4c4fcefb9a898988604051611851939291906139ca565b60405180910390a4505061186460018055565b5050505050565b61187361215b565b6108b36123fe565b611883611f9b565b6001600160a01b0316336001600160a01b0316146118b657336040516335fdcccd60e21b81526004016109049190613369565b6118c76118c282613b05565b612441565b50565b6118d261215b565b6001600160a01b03909116600090815260056020526040902055565b6118f661215b565b6000811161193e5760405162461bcd60e51b815260206004820152601560248201527405468726573686f6c64206d757374206265203e203605c1b6044820152606401610904565b60035481111561199a5760405162461bcd60e51b815260206004820152602160248201527f5468726573686f6c6420657863656564732076616c696461746f7220636f756e6044820152601d60fa1b6064820152608401610904565b600380546119a9906002613bb1565b6119b4906002613725565b6119be9190613bc8565b811015611a015760405162461bcd60e51b81526020600482015260116024820152705468726573686f6c6420746f6f206c6f7760781b6044820152606401610904565b60048190556040518181527fadfa8ecb21b6962ebcd0adbd9ab985b7b4c5b5eb3b0dead683171565c7bfe171906020015b60405180910390a150565b611a4561215b565b80471015611a955760405162461bcd60e51b815260206004820152601b60248201527f496e73756666696369656e74206e61746976652062616c616e636500000000006044820152606401610904565b600080546040516001600160a01b039091169183156108fc02918491818181858888f19350505050158015611ace573d6000803e3d6000fd5b506040518181527fad5f18c0d8f4785a3cfdaf17d461835d0449fdf84982519bfd588a14a329b85090602001611a32565b611b0833612204565b611b445760405162461bcd60e51b815260206004820152600d60248201526c2737ba103b30b634b230ba37b960991b6044820152606401610904565b8035600090815260076020908152604080832033845290915290205460ff1615611ba15760405162461bcd60e51b815260206004820152600e60248201526d105b1c9958591e481cda59db995960921b6044820152606401610904565b600c6000611bb5606084016040850161337d565b6001600160a01b03168152602081019190915260400160002054611bda906001613725565b8160c0013514611c1c5760405162461bcd60e51b815260206004820152600d60248201526c496e76616c6964206e6f6e636560981b6044820152606401610904565b6000611c35611c3036849003840184613bf9565b612788565b905081358114611c7e5760405162461bcd60e51b8152602060048201526014602482015273092dcecc2d8d2c840dacae6e6c2ceca40d0c2e6d60631b6044820152606401610904565b611c8a82358433612883565b611cca5760405162461bcd60e51b8152602060048201526011602482015270496e76616c6964207369676e617475726560781b6044820152606401610904565b81356000908152600860205260408120549003611d61576000611cf3606084016040850161337d565b6001600160a01b031603611d195760405162461bcd60e51b815260040161090490613c9d565b6000826080013511611d3d5760405162461bcd60e51b8152600401610904906137f1565b813560009081526009602052604090208290611d598282613cf0565b905050611eca565b8135600081815260096020908152604091829020825160e081018452815480825260018301546001600160a01b039081169483019490945260028301548416948201949094526003820154909216606083015260048101546080830152600581015460ff1660a08301526006015460c082015291148015611e065750611ded604084016020850161337d565b6001600160a01b031681602001516001600160a01b0316145b8015611e365750611e1d606084016040850161337d565b6001600160a01b031681604001516001600160a01b0316145b8015611e665750611e4d608084016060850161337d565b6001600160a01b031681606001516001600160a01b0316145b8015611e79575082608001358160800151145b8015611e8c57508260c001358160c00151145b611ec85760405162461bcd60e51b815260206004820152600d60248201526c088c2e8c240dad2e6dac2e8c6d609b1b6044820152606401610904565b505b813560008181526007602090815260408083203384528252808320805460ff19166001908117909155938352600890915281208054909190611f0d908490613725565b909155505060405133908335907f9fae4663050594146745d8ef909ace78285592fca37a57e4e551398fe43a9e6990600090a3600454823560009081526008602052604090205410611f965760c0820135600c6000611f72606086016040870161337d565b6001600160a01b03168152602081019190915260400160002055611f9682356128ab565b505050565b7f000000000000000000000000000000000000000000000000000000000000000090565b611fc761215b565b6001600160a01b03811661202c5760405162461bcd60e51b815260206004820152602660248201527f4f776e61626c653a206e6577206f776e657220697320746865207a65726f206160448201526564647265737360d01b6064820152608401610904565b6118c7816123ae565b61203d61215b565b804710156120845760405162461bcd60e51b8152602060048201526014602482015273496e73756666696369656e742062616c616e636560601b6044820152606401610904565b6040516001600160a01b0383169082156108fc029083906000818181858888f19350505050158015611f96573d6000803e3d6000fd5b6120c261148d565b156108b35760405162461bcd60e51b815260206004820152601060248201526f14185d5cd8589b194e881c185d5cd95960821b6044820152606401610904565b6002600154036121545760405162461bcd60e51b815260206004820152601f60248201527f5265656e7472616e637947756172643a207265656e7472616e742063616c6c006044820152606401610904565b6002600155565b6000546001600160a01b031633146108b35760405162461bcd60e51b815260206004820181905260248201527f4f776e61626c653a2063616c6c6572206973206e6f7420746865206f776e65726044820152606401610904565b6121bd612db9565b6000805460ff60a01b191690557f5db9ee0a495bf2e6ff9c91a7834c1ba4fdd244a5e8aa4e537bd38aeae4b073aa335b6040516121fa9190613369565b60405180910390a1565b6000805b60035481101561226457826001600160a01b03166003828154811061222f5761222f613738565b6000918252602090912001546001600160a01b0316036122525750600192915050565b8061225c81613777565b915050612208565b50600092915050565b6003546000036122815760006004556122a9565b60038054612290906002613bb1565b61229b906002613725565b6122a59190613bc8565b6004555b7fadfa8ecb21b6962ebcd0adbd9ab985b7b4c5b5eb3b0dead683171565c7bfe1716004546040516121fa91815260200190565b611f968363a9059cbb60e01b84846040516024016122fb9291906137d8565b60408051601f198184030181529190526020810180516001600160e01b03166001600160e01b031990931692909217909152612e04565b60405181516024820152602082015115156044820152606090630181dcf160e41b906064015b60408051601f198184030181529190526020810180516001600160e01b03166001600160e01b03199093169290921790915292915050565b604051815160248201526060906397a657c960e01b90604401612358565b600080546001600160a01b038381166001600160a01b0319831681178455604051919092169283917f8be0079c531659141344cd1fd0a4f28419497f9722a3daafe3b4186f6b6457e09190a35050565b6124066120ba565b6000805460ff60a01b1916600160a01b1790557f62e78cea01bee320cd4e420270b5ea74000d11b0c9f74754ebdbfc544b05a2586121ed3390565b6124496120ba565b612451612102565b80516000818152600a602052604090205460ff16156124825760405162461bcd60e51b815260040161090490613d81565b6000818152600a602090815260408220805460ff1916600117905560608401518051839283926124b792810182019101613db4565b925092509250600081116124dd5760405162461bcd60e51b8152600401610904906137f1565b6000828152600660209081526040918290205482518581526001600160a01b0390911691810182905290917f43cb3663146f3147f9185b890808a814c1de11cc0dbbfa91c33f6afec0403f31910160405180910390a16001600160a01b0381166125595760405162461bcd60e51b81526004016109049061381d565b6040516370a0823160e01b81526000906001600160a01b038316906370a0823190612588903090600401613369565b602060405180830381865afa1580156125a5573d6000803e3d6000fd5b505050506040513d601f19601f820116820180604052508101906125c991906137bf565b9050828110156125eb5760405162461bcd60e51b815260040161090490613deb565b6125ff6001600160a01b03831686856122dc565b83856001600160a01b03167ff0b66de88c63ce17f906ba7a4d0f096a8d34b91eec0610fff882576110aed0a584868a60405161263d9392919061386a565b60405180910390a37f7cce8063e0a541e7513d83f745b856b4b873ddca21c1420f2a87fcb802ad9841858385856001600160a01b03166370a08231306040518263ffffffff1660e01b81526004016126959190613369565b602060405180830381865afa1580156126b2573d6000803e3d6000fd5b505050506040513d601f19601f820116820180604052508101906126d691906137bf565b6040516370a0823160e01b81526001600160a01b038816906370a0823190612702908d90600401613369565b602060405180830381865afa15801561271f573d6000803e3d6000fd5b505050506040513d601f19601f8201168201806040525081019061274391906137bf565b604080516001600160a01b039687168152959094166020860152928401919091526060830152608082015260a00160405180910390a15050505050506118c760018055565b60006002547f871b9fef34685e31b9551b2e4b6991006cd3ab5225a4a97b6c8548388d70879e836000015184602001518560400151866060015187608001518860a001518960c0015160405160200161282998979695949392919097885260208801969096526001600160a01b03948516604088015292841660608701529216608085015260a084019190915260ff1660c083015260e08201526101000190565b6040516020818303038152906040528051906020012060405160200161286692919061190160f01b81526002810192909252602282015260420190565b604051602081830303815290604052805190602001209050919050565b6000816001600160a01b03166128998585612ed9565b6001600160a01b031614949350505050565b6000818152600a602052604090205460ff16156128da5760405162461bcd60e51b815260040161090490613d81565b600081815260096020908152604091829020825160e0810184528154815260018201546001600160a01b0390811693820193909352600282015483169381019390935260038101549091166060830152600481015460808301819052600582015460ff1660a084015260069091015460c083015261298b5760405162461bcd60e51b815260206004820152600e60248201526d125b9d985b1a5908185b5bdd5b9d60921b6044820152606401610904565b60408101516001600160a01b03166129b55760405162461bcd60e51b815260040161090490613c9d565b6040808201516000848152600a602052918220805460ff1916600117905560a0830151909160ff919091169003612b35578160800151471015612a445760405162461bcd60e51b815260206004820152602160248201527f496e73756666696369656e74206e617469766520746f6b656e2062616c616e636044820152606560f81b6064820152608401610904565b60808201516040516000916001600160a01b038416918381818185875af1925050503d8060008114612a92576040519150601f19603f3d011682016040523d82523d6000602084013e612a97565b606091505b5050905080612ae85760405162461bcd60e51b815260206004820152601b60248201527f4661696c656420746f2073656e64206e617469766520746f6b656e00000000006044820152606401610904565b816001600160a01b03167f827a29774a914300112ae9b21a208058471205663f038ac2d01dfd1847e502978460800151604051612b2791815260200190565b60405180910390a250612cb9565b8160a0015160ff16600103612c785760608201516001600160a01b0316612b6e5760405162461bcd60e51b815260040161090490613790565b816080015182606001516001600160a01b03166370a08231306040518263ffffffff1660e01b8152600401612ba39190613369565b602060405180830381865afa158015612bc0573d6000803e3d6000fd5b505050506040513d601f19601f82011682018060405250810190612be491906137bf565b1015612c025760405162461bcd60e51b815260040161090490613deb565b612c2881836080015184606001516001600160a01b03166122dc9092919063ffffffff16565b806001600160a01b03167fcc9c77572623c7148558aa65066780e486653470c442376db7d9a6762ac7ce3f83606001518460800151604051612c6b9291906137d8565b60405180910390a2612cb9565b60405162461bcd60e51b8152602060048201526016602482015275556e737570706f7274656420746f6b656e207479706560501b6044820152606401610904565b60008381526009602090815260408083208381556001810180546001600160a01b03199081169091556002820180548216905560038201805490911690556004810184905560058101805460ff19169055600601839055600890915281208190555b600354811015612d885760008481526007602052604081206003805491929184908110612d4a57612d4a613738565b60009182526020808320909101546001600160a01b031683528201929092526040019020805460ff1916905580612d8081613777565b915050612d1b565b5060405183907fa74c8847d513feba22a0f0cb38d53081abf97562cdb293926ba243689e7c41ca90600090a2505050565b612dc161148d565b6108b35760405162461bcd60e51b815260206004820152601460248201527314185d5cd8589b194e881b9bdd081c185d5cd95960621b6044820152606401610904565b6000612e59826040518060400160405280602081526020017f5361666545524332303a206c6f772d6c6576656c2063616c6c206661696c6564815250856001600160a01b0316612efd9092919063ffffffff16565b9050805160001480612e7a575080806020019051810190612e7a9190613848565b611f965760405162461bcd60e51b815260206004820152602a60248201527f5361666545524332303a204552433230206f7065726174696f6e20646964206e6044820152691bdd081cdd58d8d9595960b21b6064820152608401610904565b6000806000612ee88585612f14565b91509150612ef581612f59565b509392505050565b6060612f0c848460008561309e565b949350505050565b6000808251604103612f4a5760208301516040840151606085015160001a612f3e87828585613179565b94509450505050612f52565b506000905060025b9250929050565b6000816004811115612f6d57612f6d61388b565b03612f755750565b6001816004811115612f8957612f8961388b565b03612fd15760405162461bcd60e51b815260206004820152601860248201527745434453413a20696e76616c6964207369676e617475726560401b6044820152606401610904565b6002816004811115612fe557612fe561388b565b036130325760405162461bcd60e51b815260206004820152601f60248201527f45434453413a20696e76616c6964207369676e6174757265206c656e677468006044820152606401610904565b60038160048111156130465761304661388b565b036118c75760405162461bcd60e51b815260206004820152602260248201527f45434453413a20696e76616c6964207369676e6174757265202773272076616c604482015261756560f01b6064820152608401610904565b6060824710156130ff5760405162461bcd60e51b815260206004820152602660248201527f416464726573733a20696e73756666696369656e742062616c616e636520666f6044820152651c8818d85b1b60d21b6064820152608401610904565b600080866001600160a01b0316858760405161311b9190613e22565b60006040518083038185875af1925050503d8060008114613158576040519150601f19603f3d011682016040523d82523d6000602084013e61315d565b606091505b509150915061316e87838387613233565b979650505050505050565b6000806fa2a8918ca85bafe22016d0b997e4df60600160ff1b038311156131a6575060009050600361322a565b6040805160008082526020820180845289905260ff881692820192909252606081018690526080810185905260019060a0016020604051602081039080840390855afa1580156131fa573d6000803e3d6000fd5b5050604051601f1901519150506001600160a01b0381166132235760006001925092505061322a565b9150600090505b94509492505050565b606083156132a257825160000361329b576001600160a01b0385163b61329b5760405162461bcd60e51b815260206004820152601d60248201527f416464726573733a2063616c6c20746f206e6f6e2d636f6e74726163740000006044820152606401610904565b5081612f0c565b612f0c83838151156132b75781518083602001fd5b8060405162461bcd60e51b81526004016109049190613e3e565b6000602082840312156132e357600080fd5b81356001600160e01b0319811681146132fb57600080fd5b9392505050565b6001600160a01b03811681146118c757600080fd5b6000806040838503121561332a57600080fd5b823561333581613302565b9150602083013561334581613302565b809150509250929050565b60006020828403121561336257600080fd5b5035919050565b6001600160a01b0391909116815260200190565b60006020828403121561338f57600080fd5b81356132fb81613302565b600080604083850312156133ad57600080fd5b82356133b881613302565b946020939093013593505050565b80356001600160401b03811681146133dd57600080fd5b919050565b8035600281106133dd57600080fd5b60008060008060008060c0878903121561340a57600080fd5b863561341581613302565b9550613423602088016133c6565b9450604087013561343381613302565b9350606087013561344381613302565b92506080870135915061345860a088016133e2565b90509295509295509295565b6000806040838503121561347757600080fd5b82359150602083013561334581613302565b634e487b7160e01b600052604160045260246000fd5b604080519081016001600160401b03811182821017156134c1576134c1613489565b60405290565b60405160a081016001600160401b03811182821017156134c1576134c1613489565b604051601f8201601f191681016001600160401b038111828210171561351157613511613489565b604052919050565b600082601f83011261352a57600080fd5b81356001600160401b0381111561354357613543613489565b613556601f8201601f19166020016134e9565b81815284602083860101111561356b57600080fd5b816020850160208301376000918101602001919091529392505050565b60008060008060008060c087890312156135a157600080fd5b6135aa876133c6565b955060208701356135ba81613302565b945060408701356001600160401b038111156135d557600080fd5b6135e189828a01613519565b9450506135f0606088016133e2565b9250608087013561360081613302565b8092505060a087013590509295509295509295565b600080600080600060a0868803121561362d57600080fd5b853561363881613302565b94506020860135935061364d604087016133c6565b9250606086013561365d81613302565b9150608086013561366d81613302565b809150509295509295909350565b60006020828403121561368d57600080fd5b81356001600160401b038111156136a357600080fd5b820160a081850312156132fb57600080fd5b6000808284036101008112156136ca57600080fd5b83356001600160401b038111156136e057600080fd5b6136ec86828701613519565b93505060e0601f198201121561370157600080fd5b506020830190509250929050565b634e487b7160e01b600052601160045260246000fd5b808201808211156107aa576107aa61370f565b634e487b7160e01b600052603260045260246000fd5b818103818111156107aa576107aa61370f565b634e487b7160e01b600052603160045260246000fd5b6000600182016137895761378961370f565b5060010190565b602080825260159082015274496e76616c696420746f6b656e206164647265737360581b604082015260600190565b6000602082840312156137d157600080fd5b5051919050565b6001600160a01b03929092168252602082015260400190565b6020808252601290820152710416d6f756e74206d757374206265203e20360741b604082015260600190565b6020808252601190820152702ab739bab83837b93a32b2103a37b5b2b760791b604082015260600190565b60006020828403121561385a57600080fd5b815180151581146132fb57600080fd5b6001600160a01b039390931683526020830191909152604082015260600190565b634e487b7160e01b600052602160045260246000fd5b60005b838110156138bc5781810151838201526020016138a4565b50506000910152565b600081518084526138dd8160208601602086016138a1565b601f01601f19169290920160200192915050565b600060406001600160401b038516835260208181850152845160a08386015261391d60e08601826138c5565b905081860151603f198087840301606088015261393a83836138c5565b88860151888203830160808a01528051808352908601945060009350908501905b8084101561398d57845180516001600160a01b031683528601518683015293850193600193909301929086019061395b565b5060608901516001600160a01b031660a08901526080890151888203830160c08a015295506139bc81876138c5565b9a9950505050505050505050565b9283526001600160401b039190911660208301526001600160a01b0316604082015260600190565b600060018060a01b03808816835261ffff8716602084015285604084015284606084015260a060808401528084511660a08401528060208501511660c0840152506040830151606060e0840152613a4d6101008401826138c5565b98975050505050505050565b600082601f830112613a6a57600080fd5b813560206001600160401b03821115613a8557613a85613489565b613a93818360051b016134e9565b82815260069290921b84018101918181019086841115613ab257600080fd5b8286015b84811015613afa5760408189031215613acf5760008081fd5b613ad761349f565b8135613ae281613302565b81528185013585820152835291830191604001613ab6565b509695505050505050565b600060a08236031215613b1757600080fd5b613b1f6134c7565b82358152613b2f602084016133c6565b602082015260408301356001600160401b0380821115613b4e57600080fd5b613b5a36838701613519565b60408401526060850135915080821115613b7357600080fd5b613b7f36838701613519565b60608401526080850135915080821115613b9857600080fd5b50613ba536828601613a59565b60808301525092915050565b80820281158282048414176107aa576107aa61370f565b600082613be557634e487b7160e01b600052601260045260246000fd5b500490565b60ff811681146118c757600080fd5b600060e08284031215613c0b57600080fd5b60405160e081018181106001600160401b0382111715613c2d57613c2d613489565b604052823581526020830135613c4281613302565b60208201526040830135613c5581613302565b60408201526060830135613c6881613302565b60608201526080838101359082015260a0830135613c8581613bea565b60a082015260c0928301359281019290925250919050565b602080825260199082015278496e76616c696420726563697069656e74206164647265737360381b604082015260600190565b80546001600160a01b0319166001600160a01b0392909216919091179055565b813581556020820135613d0281613302565b613d0f8160018401613cd0565b506040820135613d1e81613302565b613d2b8160028401613cd0565b506060820135613d3a81613302565b613d478160038401613cd0565b50608082013560048201556005810160a0830135613d6481613bea565b60ff811660ff19835416178255505060c082013560068201555050565b60208082526019908201527813595cdcd859d948185b1c9958591e481c1c9bd8d95cdcd959603a1b604082015260600190565b600080600060608486031215613dc957600080fd5b8351613dd481613302565b602085015160409095015190969495509392505050565b6020808252601a908201527f496e73756666696369656e742045524332302062616c616e6365000000000000604082015260600190565b60008251613e348184602087016138a1565b9190910192915050565b6020815260006132fb60208301846138c556fe860fab49fdadbdbe734e78cb9bc1a5f504e2d1d356c9930aef6e010448db52b9a26469706673582212204bc2a594d95a20855157018134e947206858ced3b3f990ab96603607b2dbbc0c64736f6c63430008140033",
  "linkReferences": {},
  "deployedLinkReferences": {}
}