{
  "_format": "hh-sol-artifact-1",
  "contractName": "NativeBridge",
  "sourceName": "contracts/NativeBridge.sol",
  "abi": [
    {
      "inputs": [
        {
          "internalType": "address",
          "name": "_ccipRouter",
          "type": "address"
        },
        {
          "internalType": "address[]",
          "name": "_validators",
          "type": "address[]"
        },
        {
          "internalType": "uint256",
          "name": "_threshold",
          "type": "uint256"
        },
        {
          "internalType": "address",
          "name": "link",
          "type": "address"
        }
      ],
      "stateMutability": "nonpayable",
      "type": "constructor"
    },
    {
      "inputs": [],
      "name": "AmountToBridgeZero",
      "type": "error"
    },
    {
      "inputs": [],
      "name": "AmountZero",
      "type": "error"
    },
    {
      "inputs": [],
      "name": "DesWalletAddressZero",
      "type": "error"
    },
    {
      "inputs": [],
      "name": "DestAddressZero",
      "type": "error"
    },
    {
      "inputs": [
        {
          "internalType": "uint256",
          "name": "sent",
          "type": "uint256"
        },
        {
          "internalType": "uint256",
          "name": "required",
          "type": "uint256"
        }
      ],
      "name": "InsufficientFeeSent",
      "type": "error"
    },
    {
      "inputs": [],
      "name": "InvalidDestChainSelector",
      "type": "error"
    },
    {
      "inputs": [
        {
          "internalType": "address",
          "name": "router",
          "type": "address"
        }
      ],
      "name": "InvalidRouter",
      "type": "error"
    },
    {
      "anonymous": false,
      "inputs": [
        {
          "indexed": false,
          "internalType": "uint256",
          "name": "allowance",
          "type": "uint256"
        }
      ],
      "name": "DebugAllowance",
      "type": "event"
    },
    {
      "anonymous": false,
      "inputs": [
        {
          "indexed": false,
          "internalType": "uint256",
          "name": "balance",
          "type": "uint256"
        }
      ],
      "name": "DebugBalance",
      "type": "event"
    },
    {
      "anonymous": false,
      "inputs": [
        {
          "indexed": false,
          "internalType": "uint256",
          "name": "fee",
          "type": "uint256"
        }
      ],
      "name": "DebugFee",
      "type": "event"
    },
    {
      "anonymous": false,
      "inputs": [
        {
          "indexed": false,
          "internalType": "string",
          "name": "message",
          "type": "string"
        }
      ],
      "name": "DebugMsg",
      "type": "event"
    },
    {
      "anonymous": false,
      "inputs": [
        {
          "indexed": false,
          "internalType": "bytes32",
          "name": "tokenId",
          "type": "bytes32"
        },
        {
          "indexed": false,
          "internalType": "address",
          "name": "tokenAddr",
          "type": "address"
        }
      ],
      "name": "DebugTokenMapping",
      "type": "event"
    },
    {
      "anonymous": false,
      "inputs": [
        {
          "indexed": false,
          "internalType": "address",
          "name": "user",
          "type": "address"
        },
        {
          "indexed": false,
          "internalType": "uint256",
          "name": "amount",
          "type": "uint256"
        },
        {
          "indexed": false,
          "internalType": "uint256",
          "name": "balanceBefore",
          "type": "uint256"
        },
        {
          "indexed": false,
          "internalType": "uint256",
          "name": "balanceAfter",
          "type": "uint256"
        }
      ],
      "name": "DebugUnlockTokenVL",
      "type": "event"
    },
    {
      "anonymous": false,
      "inputs": [
        {
          "indexed": true,
          "internalType": "bytes32",
          "name": "txKey",
          "type": "bytes32"
        }
      ],
      "name": "Executed",
      "type": "event"
    },
    {
      "anonymous": false,
      "inputs": [
        {
          "indexed": true,
          "internalType": "address",
          "name": "sender",
          "type": "address"
        },
        {
          "indexed": true,
          "internalType": "address",
          "name": "token",
          "type": "address"
        },
        {
          "indexed": false,
          "internalType": "uint256",
          "name": "amount",
          "type": "uint256"
        },
        {
          "indexed": false,
          "internalType": "uint64",
          "name": "destChainSelector",
          "type": "uint64"
        },
        {
          "indexed": true,
          "internalType": "address",
          "name": "destAddress",
          "type": "address"
        },
        {
          "indexed": false,
          "internalType": "address",
          "name": "desWalletAddress",
          "type": "address"
        }
      ],
      "name": "LockedTokenCCIP",
      "type": "event"
    },
    {
      "anonymous": false,
      "inputs": [
        {
          "indexed": true,
          "internalType": "address",
          "name": "sender",
          "type": "address"
        },
        {
          "indexed": false,
          "internalType": "uint256",
          "name": "amount",
          "type": "uint256"
        },
        {
          "indexed": false,
          "internalType": "address",
          "name": "destAddress",
          "type": "address"
        },
        {
          "indexed": false,
          "internalType": "address",
          "name": "destWalletAddress",
          "type": "address"
        },
        {
          "indexed": false,
          "internalType": "address",
          "name": "tokenAddr",
          "type": "address"
        }
      ],
      "name": "LockedTokenVL",
      "type": "event"
    },
    {
      "anonymous": false,
      "inputs": [
        {
          "indexed": true,
          "internalType": "address",
          "name": "user",
          "type": "address"
        },
        {
          "indexed": true,
          "internalType": "bytes32",
          "name": "tokenId",
          "type": "bytes32"
        },
        {
          "indexed": false,
          "internalType": "address",
          "name": "tokenAddr",
          "type": "address"
        },
        {
          "indexed": false,
          "internalType": "uint256",
          "name": "amount",
          "type": "uint256"
        },
        {
          "indexed": false,
          "internalType": "bytes32",
          "name": "messageId",
          "type": "bytes32"
        }
      ],
      "name": "MessageReceived",
      "type": "event"
    },
    {
      "anonymous": false,
      "inputs": [
        {
          "indexed": true,
          "internalType": "bytes32",
          "name": "messageId",
          "type": "bytes32"
        }
      ],
      "name": "MessageSent",
      "type": "event"
    },
    {
      "anonymous": false,
      "inputs": [
        {
          "indexed": true,
          "internalType": "address",
          "name": "previousOwner",
          "type": "address"
        },
        {
          "indexed": true,
          "internalType": "address",
          "name": "newOwner",
          "type": "address"
        }
      ],
      "name": "OwnershipTransferred",
      "type": "event"
    },
    {
      "anonymous": false,
      "inputs": [
        {
          "indexed": false,
          "internalType": "address",
          "name": "account",
          "type": "address"
        }
      ],
      "name": "Paused",
      "type": "event"
    },
    {
      "anonymous": false,
      "inputs": [
        {
          "indexed": false,
          "internalType": "address",
          "name": "token",
          "type": "address"
        },
        {
          "indexed": false,
          "internalType": "uint256",
          "name": "amount",
          "type": "uint256"
        }
      ],
      "name": "RescueTokenCCIP",
      "type": "event"
    },
    {
      "anonymous": false,
      "inputs": [
        {
          "indexed": false,
          "internalType": "uint256",
          "name": "amount",
          "type": "uint256"
        }
      ],
      "name": "RescueTokenVL",
      "type": "event"
    },
    {
      "anonymous": false,
      "inputs": [
        {
          "indexed": true,
          "internalType": "bytes32",
          "name": "txKey",
          "type": "bytes32"
        },
        {
          "indexed": true,
          "internalType": "address",
          "name": "signer",
          "type": "address"
        }
      ],
      "name": "SignatureSubmitted",
      "type": "event"
    },
    {
      "anonymous": false,
      "inputs": [
        {
          "indexed": false,
          "internalType": "uint256",
          "name": "newThreshold",
          "type": "uint256"
        }
      ],
      "name": "ThresholdUpdated",
      "type": "event"
    },
    {
      "anonymous": false,
      "inputs": [
        {
          "indexed": true,
          "internalType": "address",
          "name": "sender",
          "type": "address"
        },
        {
          "indexed": true,
          "internalType": "address",
          "name": "token",
          "type": "address"
        },
        {
          "indexed": false,
          "internalType": "uint256",
          "name": "amount",
          "type": "uint256"
        }
      ],
      "name": "TokenCCIPLocked",
      "type": "event"
    },
    {
      "anonymous": false,
      "inputs": [
        {
          "indexed": false,
          "internalType": "address",
          "name": "user",
          "type": "address"
        },
        {
          "indexed": false,
          "internalType": "address",
          "name": "token",
          "type": "address"
        },
        {
          "indexed": false,
          "internalType": "uint256",
          "name": "amount",
          "type": "uint256"
        },
        {
          "indexed": false,
          "internalType": "uint256",
          "name": "balanceBefore",
          "type": "uint256"
        },
        {
          "indexed": false,
          "internalType": "uint256",
          "name": "balanceAfter",
          "type": "uint256"
        }
      ],
      "name": "UnlockTokenCCIP",
      "type": "event"
    },
    {
      "anonymous": false,
      "inputs": [
        {
          "indexed": true,
          "internalType": "address",
          "name": "recipientAddr",
          "type": "address"
        },
        {
          "indexed": false,
          "internalType": "address",
          "name": "tokenAddr",
          "type": "address"
        },
        {
          "indexed": false,
          "internalType": "uint256",
          "name": "amount",
          "type": "uint256"
        }
      ],
      "name": "UnlockedTokenERC20VL",
      "type": "event"
    },
    {
      "anonymous": false,
      "inputs": [
        {
          "indexed": true,
          "internalType": "address",
          "name": "recipientAddr",
          "type": "address"
        },
        {
          "indexed": false,
          "internalType": "uint256",
          "name": "amount",
          "type": "uint256"
        }
      ],
      "name": "UnlockedTokenVL",
      "type": "event"
    },
    {
      "anonymous": false,
      "inputs": [
        {
          "indexed": false,
          "internalType": "address",
          "name": "account",
          "type": "address"
        }
      ],
      "name": "Unpaused",
      "type": "event"
    },
    {
      "anonymous": false,
      "inputs": [
        {
          "indexed": true,
          "internalType": "address",
          "name": "validator",
          "type": "address"
        }
      ],
      "name": "ValidatorAdded",
      "type": "event"
    },
    {
      "anonymous": false,
      "inputs": [
        {
          "indexed": true,
          "internalType": "address",
          "name": "validator",
          "type": "address"
        }
      ],
      "name": "ValidatorRemoved",
      "type": "event"
    },
    {
      "stateMutability": "payable",
      "type": "fallback"
    },
    {
      "inputs": [],
      "name": "LOCK_ERC20_TYPEHASH",
      "outputs": [
        {
          "internalType": "bytes32",
          "name": "",
          "type": "bytes32"
        }
      ],
      "stateMutability": "view",
      "type": "function"
    },
    {
      "inputs": [],
      "name": "PAYLOAD_TYPEHASH",
      "outputs": [
        {
          "internalType": "bytes32",
          "name": "",
          "type": "bytes32"
        }
      ],
      "stateMutability": "view",
      "type": "function"
    },
    {
      "inputs": [
        {
          "internalType": "address",
          "name": "validator",
          "type": "address"
        }
      ],
      "name": "addValidator",
      "outputs": [],
      "stateMutability": "nonpayable",
      "type": "function"
    },
    {
      "inputs": [
        {
          "components": [
            {
              "internalType": "bytes32",
              "name": "messageId",
              "type": "bytes32"
            },
            {
              "internalType": "uint64",
              "name": "sourceChainSelector",
              "type": "uint64"
            },
            {
              "internalType": "bytes",
              "name": "sender",
              "type": "bytes"
            },
            {
              "internalType": "bytes",
              "name": "data",
              "type": "bytes"
            },
            {
              "components": [
                {
                  "internalType": "address",
                  "name": "token",
                  "type": "address"
                },
                {
                  "internalType": "uint256",
                  "name": "amount",
                  "type": "uint256"
                }
              ],
              "internalType": "struct Client.EVMTokenAmount[]",
              "name": "destTokenAmounts",
              "type": "tuple[]"
            }
          ],
          "internalType": "struct Client.Any2EVMMessage",
          "name": "message",
          "type": "tuple"
        }
      ],
      "name": "ccipReceive",
      "outputs": [],
      "stateMutability": "nonpayable",
      "type": "function"
    },
    {
      "inputs": [],
      "name": "domainSeparator",
      "outputs": [
        {
          "internalType": "bytes32",
          "name": "",
          "type": "bytes32"
        }
      ],
      "stateMutability": "view",
      "type": "function"
    },
    {
      "inputs": [
        {
          "internalType": "uint64",
          "name": "destChainSelector",
          "type": "uint64"
        },
        {
          "internalType": "address",
          "name": "receiver",
          "type": "address"
        },
        {
          "internalType": "bytes",
          "name": "data",
          "type": "bytes"
        },
        {
          "internalType": "enum NativeBridge.PayFeesIn",
          "name": "payFeesIn",
          "type": "uint8"
        },
        {
          "internalType": "address",
          "name": "tokenAddress",
          "type": "address"
        },
        {
          "internalType": "uint256",
          "name": "tokenAmount",
          "type": "uint256"
        }
      ],
      "name": "getFeeCCIP",
      "outputs": [
        {
          "internalType": "uint256",
          "name": "",
          "type": "uint256"
        }
      ],
      "stateMutability": "view",
      "type": "function"
    },
    {
      "inputs": [
        {
          "internalType": "address",
          "name": "user",
          "type": "address"
        }
      ],
      "name": "getNonce",
      "outputs": [
        {
          "internalType": "uint256",
          "name": "",
          "type": "uint256"
        }
      ],
      "stateMutability": "view",
      "type": "function"
    },
    {
      "inputs": [],
      "name": "getRouter",
      "outputs": [
        {
          "internalType": "address",
          "name": "",
          "type": "address"
        }
      ],
      "stateMutability": "view",
      "type": "function"
    },
    {
      "inputs": [],
      "name": "getValidatorCount",
      "outputs": [
        {
          "internalType": "uint256",
          "name": "",
          "type": "uint256"
        }
      ],
      "stateMutability": "view",
      "type": "function"
    },
    {
      "inputs": [],
      "name": "i_link",
      "outputs": [
        {
          "internalType": "address",
          "name": "",
          "type": "address"
        }
      ],
      "stateMutability": "view",
      "type": "function"
    },
    {
      "inputs": [
        {
          "internalType": "contract OFTV2",
          "name": "oftToken",
          "type": "address"
        },
        {
          "internalType": "uint256",
          "name": "amountToBridge",
          "type": "uint256"
        },
        {
          "internalType": "uint64",
          "name": "destChainId",
          "type": "uint64"
        },
        {
          "internalType": "address",
          "name": "destAddress",
          "type": "address"
        },
        {
          "internalType": "address",
          "name": "desWalletAddress",
          "type": "address"
        }
      ],
      "name": "lockOFT",
      "outputs": [],
      "stateMutability": "payable",
      "type": "function"
    },
    {
      "inputs": [
        {
          "internalType": "contract IERC20",
          "name": "token",
          "type": "address"
        },
        {
          "internalType": "uint64",
          "name": "destChainSelector",
          "type": "uint64"
        },
        {
          "internalType": "address",
          "name": "destAddress",
          "type": "address"
        },
        {
          "internalType": "address",
          "name": "desWalletAddress",
          "type": "address"
        },
        {
          "internalType": "uint256",
          "name": "amountToBridge",
          "type": "uint256"
        },
        {
          "internalType": "enum NativeBridge.PayFeesIn",
          "name": "payFeesIn",
          "type": "uint8"
        }
      ],
      "name": "lockTokenCCIP",
      "outputs": [
        {
          "internalType": "bytes32",
          "name": "messageId",
          "type": "bytes32"
        }
      ],
      "stateMutability": "payable",
      "type": "function"
    },
    {
      "inputs": [
        {
          "internalType": "address",
          "name": "tokenAddr",
          "type": "address"
        },
        {
          "internalType": "uint256",
          "name": "amount",
          "type": "uint256"
        },
        {
          "internalType": "address",
          "name": "destAddress",
          "type": "address"
        },
        {
          "internalType": "address",
          "name": "destWalletAddress",
          "type": "address"
        }
      ],
      "name": "lockTokenVL",
      "outputs": [],
      "stateMutability": "payable",
      "type": "function"
    },
    {
      "inputs": [
        {
          "internalType": "address",
          "name": "",
          "type": "address"
        }
      ],
      "name": "lockedTokenVL",
      "outputs": [
        {
          "internalType": "uint256",
          "name": "",
          "type": "uint256"
        }
      ],
      "stateMutability": "view",
      "type": "function"
    },
    {
      "inputs": [
        {
          "internalType": "address",
          "name": "",
          "type": "address"
        }
      ],
      "name": "nonces",
      "outputs": [
        {
          "internalType": "uint256",
          "name": "",
          "type": "uint256"
        }
      ],
      "stateMutability": "view",
      "type": "function"
    },
    {
      "inputs": [],
      "name": "owner",
      "outputs": [
        {
          "internalType": "address",
          "name": "",
          "type": "address"
        }
      ],
      "stateMutability": "view",
      "type": "function"
    },
    {
      "inputs": [],
      "name": "pause",
      "outputs": [],
      "stateMutability": "nonpayable",
      "type": "function"
    },
    {
      "inputs": [],
      "name": "paused",
      "outputs": [
        {
          "internalType": "bool",
          "name": "",
          "type": "bool"
        }
      ],
      "stateMutability": "view",
      "type": "function"
    },
    {
      "inputs": [
        {
          "internalType": "bytes32",
          "name": "",
          "type": "bytes32"
        }
      ],
      "name": "payloadData",
      "outputs": [
        {
          "internalType": "bytes32",
          "name": "txKey",
          "type": "bytes32"
        },
        {
          "internalType": "address",
          "name": "from",
          "type": "address"
        },
        {
          "internalType": "address",
          "name": "to",
          "type": "address"
        },
        {
          "internalType": "address",
          "name": "tokenAddr",
          "type": "address"
        },
        {
          "internalType": "uint256",
          "name": "amount",
          "type": "uint256"
        },
        {
          "internalType": "uint8",
          "name": "tokenType",
          "type": "uint8"
        },
        {
          "internalType": "uint256",
          "name": "nonce",
          "type": "uint256"
        }
      ],
      "stateMutability": "view",
      "type": "function"
    },
    {
      "inputs": [
        {
          "internalType": "bytes32",
          "name": "",
          "type": "bytes32"
        }
      ],
      "name": "processedMessages",
      "outputs": [
        {
          "internalType": "bool",
          "name": "",
          "type": "bool"
        }
      ],
      "stateMutability": "view",
      "type": "function"
    },
    {
      "inputs": [
        {
          "internalType": "address",
          "name": "validator",
          "type": "address"
        }
      ],
      "name": "removeValidator",
      "outputs": [],
      "stateMutability": "nonpayable",
      "type": "function"
    },
    {
      "inputs": [],
      "name": "renounceOwnership",
      "outputs": [],
      "stateMutability": "nonpayable",
      "type": "function"
    },
    {
      "inputs": [
        {
          "internalType": "contract IERC20",
          "name": "token",
          "type": "address"
        },
        {
          "internalType": "uint256",
          "name": "amount",
          "type": "uint256"
        }
      ],
      "name": "rescueTokenCCIP",
      "outputs": [],
      "stateMutability": "nonpayable",
      "type": "function"
    },
    {
      "inputs": [
        {
          "internalType": "uint256",
          "name": "amount",
          "type": "uint256"
        }
      ],
      "name": "rescueTokenVL",
      "outputs": [],
      "stateMutability": "nonpayable",
      "type": "function"
    },
    {
      "inputs": [
        {
          "internalType": "uint256",
          "name": "newThreshold",
          "type": "uint256"
        }
      ],
      "name": "setThreshold",
      "outputs": [],
      "stateMutability": "nonpayable",
      "type": "function"
    },
    {
      "inputs": [
        {
          "internalType": "address",
          "name": "tokenAddress",
          "type": "address"
        },
        {
          "internalType": "bytes32",
          "name": "tokenId",
          "type": "bytes32"
        }
      ],
      "name": "setTokenAddressToId",
      "outputs": [],
      "stateMutability": "nonpayable",
      "type": "function"
    },
    {
      "inputs": [
        {
          "internalType": "bytes32",
          "name": "tokenId",
          "type": "bytes32"
        },
        {
          "internalType": "address",
          "name": "tokenAddress",
          "type": "address"
        }
      ],
      "name": "setTokenMapping",
      "outputs": [],
      "stateMutability": "nonpayable",
      "type": "function"
    },
    {
      "inputs": [
        {
          "internalType": "bytes32",
          "name": "",
          "type": "bytes32"
        }
      ],
      "name": "signatureCount",
      "outputs": [
        {
          "internalType": "uint256",
          "name": "",
          "type": "uint256"
        }
      ],
      "stateMutability": "view",
      "type": "function"
    },
    {
      "inputs": [
        {
          "internalType": "bytes32",
          "name": "",
          "type": "bytes32"
        },
        {
          "internalType": "address",
          "name": "",
          "type": "address"
        }
      ],
      "name": "signatures",
      "outputs": [
        {
          "internalType": "bool",
          "name": "",
          "type": "bool"
        }
      ],
      "stateMutability": "view",
      "type": "function"
    },
    {
      "inputs": [
        {
          "internalType": "bytes4",
          "name": "interfaceId",
          "type": "bytes4"
        }
      ],
      "name": "supportsInterface",
      "outputs": [
        {
          "internalType": "bool",
          "name": "",
          "type": "bool"
        }
      ],
      "stateMutability": "view",
      "type": "function"
    },
    {
      "inputs": [],
      "name": "threshold",
      "outputs": [
        {
          "internalType": "uint256",
          "name": "",
          "type": "uint256"
        }
      ],
      "stateMutability": "view",
      "type": "function"
    },
    {
      "inputs": [
        {
          "internalType": "address",
          "name": "",
          "type": "address"
        }
      ],
      "name": "tokenAddressToId",
      "outputs": [
        {
          "internalType": "bytes32",
          "name": "",
          "type": "bytes32"
        }
      ],
      "stateMutability": "view",
      "type": "function"
    },
    {
      "inputs": [
        {
          "internalType": "bytes32",
          "name": "",
          "type": "bytes32"
        }
      ],
      "name": "tokenMapping",
      "outputs": [
        {
          "internalType": "address",
          "name": "",
          "type": "address"
        }
      ],
      "stateMutability": "view",
      "type": "function"
    },
    {
      "inputs": [
        {
          "internalType": "address",
          "name": "newOwner",
          "type": "address"
        }
      ],
      "name": "transferOwnership",
      "outputs": [],
      "stateMutability": "nonpayable",
      "type": "function"
    },
    {
      "inputs": [
        {
          "internalType": "bytes",
          "name": "signature",
          "type": "bytes"
        },
        {
          "components": [
            {
              "internalType": "bytes32",
              "name": "txKey",
              "type": "bytes32"
            },
            {
              "internalType": "address",
              "name": "from",
              "type": "address"
            },
            {
              "internalType": "address",
              "name": "to",
              "type": "address"
            },
            {
              "internalType": "address",
              "name": "tokenAddr",
              "type": "address"
            },
            {
              "internalType": "uint256",
              "name": "amount",
              "type": "uint256"
            },
            {
              "internalType": "uint8",
              "name": "tokenType",
              "type": "uint8"
            },
            {
              "internalType": "uint256",
              "name": "nonce",
              "type": "uint256"
            }
          ],
          "internalType": "struct NativeBridge.Payload",
          "name": "payload",
          "type": "tuple"
        }
      ],
      "name": "unLockTokenVL",
      "outputs": [],
      "stateMutability": "nonpayable",
      "type": "function"
    },
    {
      "inputs": [],
      "name": "unpause",
      "outputs": [],
      "stateMutability": "nonpayable",
      "type": "function"
    },
    {
      "inputs": [
        {
          "internalType": "uint256",
          "name": "",
          "type": "uint256"
        }
      ],
      "name": "validators",
      "outputs": [
        {
          "internalType": "address",
          "name": "",
          "type": "address"
        }
      ],
      "stateMutability": "view",
      "type": "function"
    },
    {
      "inputs": [
        {
          "internalType": "address payable",
          "name": "to",
          "type": "address"
        },
        {
          "internalType": "uint256",
          "name": "amount",
          "type": "uint256"
        }
      ],
      "name": "withdraw",
      "outputs": [],
      "stateMutability": "nonpayable",
      "type": "function"
    },
    {
      "stateMutability": "payable",
      "type": "receive"
    }
  ],
  "bytecode": "0x60c06040523480156200001157600080fd5b506040516200404338038062004043833981016040819052620000349162000334565b836001600160a01b03811662000065576040516335fdcccd60e21b8152600060048201526024015b60405180910390fd5b6001600160a01b03166080526200007c3362000230565b6000805460ff60a01b19169055600180558251620000dd5760405162461bcd60e51b815260206004820152601e60248201527f56616c696461746f72206c6973742063616e6e6f7420626520656d707479000060448201526064016200005c565b600082118015620000ef575082518211155b620001315760405162461bcd60e51b8152602060048201526011602482015270125b9d985b1a59081d1a1c995cda1bdb19607a1b60448201526064016200005c565b82516200014690600390602086019062000280565b506004919091556001600160a01b031660a0908152604080518082018252600c81526b4e617469766542726964676560a01b6020918201528151808301835260018152603160f81b9082015281517f8b73c3c69bb8fe3d512ecc4cf759cc79239f7b179b0ffacaa9a75d522b39400f818301527fd060e77236a75b6130e2d5563fabd40660af2c1841536972e2fdaed438bebdd6818401527fc89efdaa54c0f20c7adf612882df0950f5a951637e0307cdcb4c672f298b8bc6606082015246608082015230818501528251808203909401845260c001909152815191012060025550620004399050565b600080546001600160a01b038381166001600160a01b0319831681178455604051919092169283917f8be0079c531659141344cd1fd0a4f28419497f9722a3daafe3b4186f6b6457e09190a35050565b828054828255906000526020600020908101928215620002d8579160200282015b82811115620002d857825182546001600160a01b0319166001600160a01b03909116178255602090920191600190910190620002a1565b50620002e6929150620002ea565b5090565b5b80821115620002e65760008155600101620002eb565b80516001600160a01b03811681146200031957600080fd5b919050565b634e487b7160e01b600052604160045260246000fd5b600080600080608085870312156200034b57600080fd5b620003568562000301565b602086810151919550906001600160401b03808211156200037657600080fd5b818801915088601f8301126200038b57600080fd5b815181811115620003a057620003a06200031e565b8060051b604051601f19603f83011681018181108582111715620003c857620003c86200031e565b60405291825284820192508381018501918b831115620003e757600080fd5b938501935b828510156200041057620004008562000301565b84529385019392850192620003ec565b809850505050505050604085015191506200042e6060860162000301565b905092959194509250565b60805160a051613bcf620004746000396000818161046501528181611078015281816111c5015261160d01526000611f3a0152613bcf6000f3fe6080604052600436106101f75760003560e01c80637ecebe001161010a578063b0d83f4c116100a5578063ded624d71161006c578063ded624d714610695578063e98a814e146106c2578063f2fde38b14610771578063f3fef3a314610791578063f698da25146107b157005b8063b0d83f4c146105c4578063b0f479a1146105e4578063b3cc026d146105f9578063dc18fa9514610626578063dddd7f6f1461066157005b80637ecebe00146104875780638456cb59146104b457806385572ffb146104c9578063886b7e18146104e957806388ba16ab146105095780638da5cb5b14610539578063960bfe04146105575780639c23775314610577578063ac49c8e1146105a457005b8063507dafbd11610192578063667cb4ba11610159578063667cb4ba146103e05780637071688a14610416578063715018a61461042b5780637ab4a496146104405780637d253aff1461045357005b8063507dafbd14610358578063510f8063146103785780635c975abb1461038b57806364b6478b146103a057806365e2e580146103c057005b806301ffc9a7146102005780631d1622ff146102355780632d0335ab1461024857806334fc93371461028c57806335aa2e44146102c05780633f4ba83a146102ed57806340a141ff1461030257806342cde4e8146103225780634d238c8e1461033857005b366101fe57005b005b34801561020c57600080fd5b5061022061021b36600461308e565b6107c7565b60405190151581526020015b60405180910390f35b6101fe6102433660046130d4565b6107fe565b34801561025457600080fd5b5061027e61026336600461310d565b6001600160a01b03166000908152600c602052604090205490565b60405190815260200161022c565b34801561029857600080fd5b5061027e7f871b9fef34685e31b9551b2e4b6991006cd3ab5225a4a97b6c8548388d70879e81565b3480156102cc57600080fd5b506102e06102db36600461312a565b6108c7565b60405161022c9190613143565b3480156102f957600080fd5b506101fe6108f1565b34801561030e57600080fd5b506101fe61031d36600461310d565b610903565b34801561032e57600080fd5b5061027e60045481565b34801561034457600080fd5b506101fe61035336600461310d565b610a9e565b34801561036457600080fd5b506101fe610373366004613157565b610c1c565b61027e6103863660046131ae565b610d6a565b34801561039757600080fd5b506102206114db565b3480156103ac57600080fd5b506101fe6103bb366004613221565b6114eb565b3480156103cc57600080fd5b5061027e6103db366004613345565b61152c565b3480156103ec57600080fd5b506102e06103fb36600461312a565b6006602052600090815260409020546001600160a01b031681565b34801561042257600080fd5b5060035461027e565b34801561043757600080fd5b506101fe6116dc565b6101fe61044e3660046133d2565b6116ee565b34801561045f57600080fd5b506102e07f000000000000000000000000000000000000000000000000000000000000000081565b34801561049357600080fd5b5061027e6104a236600461310d565b600c6020526000908152604090205481565b3480156104c057600080fd5b506101fe61186f565b3480156104d557600080fd5b506101fe6104e4366004613438565b61187f565b3480156104f557600080fd5b506101fe610504366004613157565b6118ce565b34801561051557600080fd5b5061022061052436600461312a565b600a6020526000908152604090205460ff1681565b34801561054557600080fd5b506000546001600160a01b03166102e0565b34801561056357600080fd5b506101fe61057236600461312a565b6118f2565b34801561058357600080fd5b5061027e61059236600461310d565b600b6020526000908152604090205481565b3480156105b057600080fd5b506101fe6105bf36600461312a565b611a41565b3480156105d057600080fd5b506101fe6105df366004613472565b611b03565b3480156105f057600080fd5b506102e0611f38565b34801561060557600080fd5b5061027e61061436600461312a565b60086020526000908152604090205481565b34801561063257600080fd5b50610220610641366004613221565b600760209081526000928352604080842090915290825290205460ff1681565b34801561066d57600080fd5b5061027e7f71e6f75824b644afe2a01b50d8156281ca422aa3e52ee6d739d97a33af83e01381565b3480156106a157600080fd5b5061027e6106b036600461310d565b60056020526000908152604090205481565b3480156106ce57600080fd5b5061072b6106dd36600461312a565b600960205260009081526040902080546001820154600283015460038401546004850154600586015460069096015494956001600160a01b03948516959385169490921692909160ff169087565b604080519788526001600160a01b03968716602089015294861694870194909452939091166060850152608084015260ff90911660a083015260c082015260e00161022c565b34801561077d57600080fd5b506101fe61078c36600461310d565b611f5c565b34801561079d57600080fd5b506101fe6107ac366004613157565b611fd2565b3480156107bd57600080fd5b5061027e60025481565b60006001600160e01b031982166385572ffb60e01b14806107f857506001600160e01b031982166301ffc9a760e01b145b92915050565b61080661205c565b61080e6120a4565b3460000361082f576040516365e52d5160e11b815260040160405180910390fd5b336000908152600b60205260408120805434929061084e9084906134e2565b9091555050604080513481526001600160a01b0384811660208301528316818301526080606082018190526003908201526208aa8960eb1b60a0820152905133917f206505b8c8248d9e4750716158a535a498e9edb4b956c96764591ac262749d53919081900360c00190a26108c360018055565b5050565b600381815481106108d757600080fd5b6000918252602090912001546001600160a01b0316905081565b6108f96120fd565b610901612157565b565b61090b6120fd565b610914816121a6565b61095b5760405162461bcd60e51b815260206004820152601360248201527215985b1a59185d1bdc881b9bdd08199bdd5b99606a1b60448201526064015b60405180910390fd5b60005b6003548110156108c357816001600160a01b031660038281548110610985576109856134f5565b6000918252602090912001546001600160a01b031603610a8c57600380546109af9060019061350b565b815481106109bf576109bf6134f5565b600091825260209091200154600380546001600160a01b0390921691839081106109eb576109eb6134f5565b9060005260206000200160006101000a8154816001600160a01b0302191690836001600160a01b031602179055506003805480610a2a57610a2a61351e565b600082815260209020810160001990810180546001600160a01b0319169055019055610a5461220f565b6040516001600160a01b038316907fe1434e25d6611e0db941968fdc97811c982ac1602e951637d206f5fdda9dd8f190600090a25050565b80610a9681613534565b91505061095e565b610aa66120fd565b6001600160a01b038116610af85760405162461bcd60e51b8152602060048201526019602482015278496e76616c69642076616c696461746f72206164647265737360381b6044820152606401610952565b610b01816121a6565b15610b495760405162461bcd60e51b815260206004820152601860248201527756616c696461746f7220616c72656164792065786973747360401b6044820152606401610952565b60035460001911610b925760405162461bcd60e51b815260206004820152601360248201527215985b1a59185d1bdc881b1a5cdd08199d5b1b606a1b6044820152606401610952565b600380546001810182556000919091527fc2575a0e9e593c00f959f8c92f12db2869c3395a3b0502d05e2516446f71f85b0180546001600160a01b0319166001600160a01b038316179055610be561220f565b6040516001600160a01b038216907fe366c1c0452ed8eec96861e9e54141ebff23c9ec89fe27b996b45f5ec388498790600090a250565b610c246120fd565b6001600160a01b038216610c4a5760405162461bcd60e51b81526004016109529061354d565b6040516370a0823160e01b815281906001600160a01b038416906370a0823190610c78903090600401613143565b602060405180830381865afa158015610c95573d6000803e3d6000fd5b505050506040513d601f19601f82011682018060405250810190610cb9919061357c565b1015610d075760405162461bcd60e51b815260206004820152601a60248201527f496e73756666696369656e7420746f6b656e2062616c616e63650000000000006044820152606401610952565b610d2d610d1c6000546001600160a01b031690565b6001600160a01b038416908361227e565b7fedf6aaaf4b693988647901b0c5bb4a68720279d9345e416c5d49cd73d1ddcd278282604051610d5e929190613595565b60405180910390a15050565b6000610d7461205c565b610d7c6120a4565b856001600160401b0316600003610da65760405163780a7e7360e01b815260040160405180910390fd5b6001600160a01b038516610dcd576040516318d611b360e01b815260040160405180910390fd5b6001600160a01b038416610df457604051635caf28f760e11b815260040160405180910390fd5b82600003610e155760405163a330592760e01b815260040160405180910390fd5b60008311610e355760405162461bcd60e51b8152600401610952906135ae565b6001600160a01b03871660009081526005602052604090205480610e6b5760405162461bcd60e51b8152600401610952906135da565b600080516020613b7a833981519152604051610ea9906020808252600e908201526d151bdad95b9259081b585c1c195960921b604082015260600190565b60405180910390a16040516323b872dd60e01b8152336004820152306024820152604481018590526001600160a01b038916906323b872dd906064016020604051808303816000875af1158015610f04573d6000803e3d6000fd5b505050506040513d601f19601f82011682018060405250810190610f289190613605565b506040518481526001600160a01b0389169033907fec36c91f26bfb49a67d65fa075356f5bec12299c4b54c774d07fd15ad35a0a979060200160405180910390a3600080516020613b7a833981519152604051610fa5906020808252600c908201526b151bdad95b881b1bd8dad95960a21b604082015260600190565b60405180910390a160006040518060a0016040528088604051602001610fcb9190613143565b6040516020818303038152906040528152602001878488604051602001610ff493929190613627565b60408051601f198184030181529190528152602001600060405190808252806020026020018201604052801561105057816020015b60408051808201909152600080825260208201528152602001906001900390816110295790505b508152602001600186600181111561106a5761106a613648565b14611076576000611098565b7f00000000000000000000000000000000000000000000000000000000000000005b6001600160a01b031681526020016110c96040518060400160405280620493e08152602001600115158152506122d4565b9052905060006110d7611f38565b6001600160a01b03166320487ded8a846040518363ffffffff1660e01b81526004016111049291906136ae565b602060405180830381865afa158015611121573d6000803e3d6000fd5b505050506040513d601f19601f82011682018060405250810190611145919061357c565b90507f01c07ee12c70d5c6053fd06c4684862308f1d87ce067678c60fec95f02ecb3238160405161117891815260200190565b60405180910390a1803410156111aa5760405163ddcc6fc960e01b815234600482015260248101829052604401610952565b60018560018111156111be576111be613648565b036112db577f00000000000000000000000000000000000000000000000000000000000000006001600160a01b031663095ea7b36111fa611f38565b836040518363ffffffff1660e01b8152600401611218929190613595565b6020604051808303816000875af1158015611237573d6000803e3d6000fd5b505050506040513d601f19601f8201168201806040525081019061125b9190613605565b50611264611f38565b6001600160a01b03166396f4e9f98a846040518363ffffffff1660e01b81526004016112919291906136ae565b6020604051808303816000875af11580156112b0573d6000803e3d6000fd5b505050506040513d601f19601f820116820180604052508101906112d4919061357c565b9350611357565b6112e3611f38565b6001600160a01b03166396f4e9f9828b856040518463ffffffff1660e01b81526004016113119291906136ae565b60206040518083038185885af115801561132f573d6000803e3d6000fd5b50505050506040513d601f19601f82011682018060405250810190611354919061357c565b93505b60405184907f54791b38f3859327992a1ca0590ad3c0f08feba98d1a4f56ab0dca74d203392a90600090a2876001600160a01b03168a6001600160a01b0316336001600160a01b03167f4b62de1390f9d38ddc2e85d18b6221446770ad70dc912c4f9beefc4c4fcefb9a898d8c6040516113d393929190613787565b60405180910390a4803411156114c55760006113ef823461350b565b604051909150600090339083908381818185875af1925050503d8060008114611434576040519150601f19603f3d011682016040523d82523d6000602084013e611439565b606091505b505090508061147a5760405162461bcd60e51b815260206004820152600d60248201526c1499599d5b990819985a5b1959609a1b6044820152606401610952565b600080516020613b7a8339815191526040516114ba9060208082526010908201526f1499599d5b99081cdd58d8d95959195960821b604082015260600190565b60405180910390a150505b5050506114d160018055565b9695505050505050565b600054600160a01b900460ff1690565b6114f36120fd565b600082815260066020908152604080832080546001600160a01b039095166001600160a01b031990951685179055928252600590522055565b604080516001808252818301909252600091829190816020015b60408051808201909152600080825260208201528152602001906001900390816115465790505090506040518060400160405280856001600160a01b0316815260200184815250816000815181106115a0576115a06134f5565b602002602001018190525060006040518060a00160405280896040516020016115c99190613143565b60408051601f19818403018152918152908252602082018a9052810184905260600160018860018111156115ff576115ff613648565b1461160b57600061162d565b7f00000000000000000000000000000000000000000000000000000000000000005b6001600160a01b031681526020016116556040518060200160405280620493e0815250612332565b90529050611661611f38565b6001600160a01b03166320487ded8a836040518363ffffffff1660e01b815260040161168e9291906136ae565b602060405180830381865afa1580156116ab573d6000803e3d6000fd5b505050506040513d601f19601f820116820180604052508101906116cf919061357c565b9998505050505050505050565b6116e46120fd565b6109016000612350565b6116f661205c565b6116fe6120a4565b8261ffff81166001600160401b038216146117525760405162461bcd60e51b815260206004820152601460248201527364657374436861696e4964206f766572666c6f7760601b6044820152606401610952565b60408051606081018252338152600060208083018290528351600160f01b9181019190915262030d406022820152909282019060420160408051601f1981840301815291815291525163695ef6bf60e01b81529091506001600160a01b0388169063695ef6bf9034906117d290339087906000908d9089906004016137af565b6000604051808303818588803b1580156117eb57600080fd5b505af11580156117ff573d6000803e3d6000fd5b5050505050836001600160a01b0316876001600160a01b0316336001600160a01b03167f4b62de1390f9d38ddc2e85d18b6221446770ad70dc912c4f9beefc4c4fcefb9a89898860405161185593929190613787565b60405180910390a4505061186860018055565b5050505050565b6118776120fd565b6109016123a0565b611887611f38565b6001600160a01b0316336001600160a01b0316146118ba57336040516335fdcccd60e21b81526004016109529190613143565b6118cb6118c6826138c2565b6123e3565b50565b6118d66120fd565b6001600160a01b03909116600090815260056020526040902055565b6118fa6120fd565b600081116119425760405162461bcd60e51b815260206004820152601560248201527405468726573686f6c64206d757374206265203e203605c1b6044820152606401610952565b60035481111561199e5760405162461bcd60e51b815260206004820152602160248201527f5468726573686f6c6420657863656564732076616c696461746f7220636f756e6044820152601d60fa1b6064820152608401610952565b600380546119ad90600261396e565b6119b89060026134e2565b6119c29190613985565b811015611a055760405162461bcd60e51b81526020600482015260116024820152705468726573686f6c6420746f6f206c6f7760781b6044820152606401610952565b60048190556040518181527fadfa8ecb21b6962ebcd0adbd9ab985b7b4c5b5eb3b0dead683171565c7bfe171906020015b60405180910390a150565b611a496120fd565b80471015611a995760405162461bcd60e51b815260206004820152601b60248201527f496e73756666696369656e74206e61746976652062616c616e636500000000006044820152606401610952565b600080546040516001600160a01b039091169183156108fc02918491818181858888f19350505050158015611ad2573d6000803e3d6000fd5b506040518181527fad5f18c0d8f4785a3cfdaf17d461835d0449fdf84982519bfd588a14a329b85090602001611a36565b611b0c336121a6565b611b485760405162461bcd60e51b815260206004820152600d60248201526c2737ba103b30b634b230ba37b960991b6044820152606401610952565b8035600090815260076020908152604080832033845290915290205460ff1615611ba55760405162461bcd60e51b815260206004820152600e60248201526d105b1c9958591e481cda59db995960921b6044820152606401610952565b600c6000611bb9606084016040850161310d565b6001600160a01b03168152602081019190915260400160002054611bde9060016134e2565b8160c0013514611c205760405162461bcd60e51b815260206004820152600d60248201526c496e76616c6964206e6f6e636560981b6044820152606401610952565b611c2c8135833361272a565b611c6c5760405162461bcd60e51b8152602060048201526011602482015270496e76616c6964207369676e617475726560781b6044820152606401610952565b80356000908152600860205260408120549003611d03576000611c95606083016040840161310d565b6001600160a01b031603611cbb5760405162461bcd60e51b8152600401610952906139a7565b6000816080013511611cdf5760405162461bcd60e51b8152600401610952906135ae565b803560009081526009602052604090208190611cfb82826139fa565b905050611e6c565b8035600081815260096020908152604091829020825160e081018452815480825260018301546001600160a01b039081169483019490945260028301548416948201949094526003820154909216606083015260048101546080830152600581015460ff1660a08301526006015460c082015291148015611da85750611d8f604083016020840161310d565b6001600160a01b031681602001516001600160a01b0316145b8015611dd85750611dbf606083016040840161310d565b6001600160a01b031681604001516001600160a01b0316145b8015611e085750611def608083016060840161310d565b6001600160a01b031681606001516001600160a01b0316145b8015611e1b575081608001358160800151145b8015611e2e57508160c001358160c00151145b611e6a5760405162461bcd60e51b815260206004820152600d60248201526c088c2e8c240dad2e6dac2e8c6d609b1b6044820152606401610952565b505b803560008181526007602090815260408083203384528252808320805460ff19166001908117909155938352600890915281208054909190611eaf9084906134e2565b909155505060405133908235907f9fae4663050594146745d8ef909ace78285592fca37a57e4e551398fe43a9e6990600090a36004548135600090815260086020526040902054106108c35760c0810135600c6000611f14606085016040860161310d565b6001600160a01b031681526020810191909152604001600020556108c38135612752565b7f000000000000000000000000000000000000000000000000000000000000000090565b611f646120fd565b6001600160a01b038116611fc95760405162461bcd60e51b815260206004820152602660248201527f4f776e61626c653a206e6577206f776e657220697320746865207a65726f206160448201526564647265737360d01b6064820152608401610952565b6118cb81612350565b611fda6120fd565b804710156120215760405162461bcd60e51b8152602060048201526014602482015273496e73756666696369656e742062616c616e636560601b6044820152606401610952565b6040516001600160a01b0383169082156108fc029083906000818181858888f19350505050158015612057573d6000803e3d6000fd5b505050565b6120646114db565b156109015760405162461bcd60e51b815260206004820152601060248201526f14185d5cd8589b194e881c185d5cd95960821b6044820152606401610952565b6002600154036120f65760405162461bcd60e51b815260206004820152601f60248201527f5265656e7472616e637947756172643a207265656e7472616e742063616c6c006044820152606401610952565b6002600155565b6000546001600160a01b031633146109015760405162461bcd60e51b815260206004820181905260248201527f4f776e61626c653a2063616c6c6572206973206e6f7420746865206f776e65726044820152606401610952565b61215f612c60565b6000805460ff60a01b191690557f5db9ee0a495bf2e6ff9c91a7834c1ba4fdd244a5e8aa4e537bd38aeae4b073aa335b60405161219c9190613143565b60405180910390a1565b6000805b60035481101561220657826001600160a01b0316600382815481106121d1576121d16134f5565b6000918252602090912001546001600160a01b0316036121f45750600192915050565b806121fe81613534565b9150506121aa565b50600092915050565b60035460000361222357600060045561224b565b6003805461223290600261396e565b61223d9060026134e2565b6122479190613985565b6004555b7fadfa8ecb21b6962ebcd0adbd9ab985b7b4c5b5eb3b0dead683171565c7bfe17160045460405161219c91815260200190565b6120578363a9059cbb60e01b848460405160240161229d929190613595565b60408051601f198184030181529190526020810180516001600160e01b03166001600160e01b031990931692909217909152612cab565b60405181516024820152602082015115156044820152606090630181dcf160e41b906064015b60408051601f198184030181529190526020810180516001600160e01b03166001600160e01b03199093169290921790915292915050565b604051815160248201526060906397a657c960e01b906044016122fa565b600080546001600160a01b038381166001600160a01b0319831681178455604051919092169283917f8be0079c531659141344cd1fd0a4f28419497f9722a3daafe3b4186f6b6457e09190a35050565b6123a861205c565b6000805460ff60a01b1916600160a01b1790557f62e78cea01bee320cd4e420270b5ea74000d11b0c9f74754ebdbfc544b05a25861218f3390565b6123eb61205c565b6123f36120a4565b80516000818152600a602052604090205460ff16156124245760405162461bcd60e51b815260040161095290613a90565b6000818152600a602090815260408220805460ff19166001179055606084015180518392839261245992810182019101613ac3565b9250925092506000811161247f5760405162461bcd60e51b8152600401610952906135ae565b6000828152600660209081526040918290205482518581526001600160a01b0390911691810182905290917f43cb3663146f3147f9185b890808a814c1de11cc0dbbfa91c33f6afec0403f31910160405180910390a16001600160a01b0381166124fb5760405162461bcd60e51b8152600401610952906135da565b6040516370a0823160e01b81526000906001600160a01b038316906370a082319061252a903090600401613143565b602060405180830381865afa158015612547573d6000803e3d6000fd5b505050506040513d601f19601f8201168201806040525081019061256b919061357c565b90508281101561258d5760405162461bcd60e51b815260040161095290613afa565b6125a16001600160a01b038316868561227e565b83856001600160a01b03167ff0b66de88c63ce17f906ba7a4d0f096a8d34b91eec0610fff882576110aed0a584868a6040516125df93929190613627565b60405180910390a37f7cce8063e0a541e7513d83f745b856b4b873ddca21c1420f2a87fcb802ad9841858385856001600160a01b03166370a08231306040518263ffffffff1660e01b81526004016126379190613143565b602060405180830381865afa158015612654573d6000803e3d6000fd5b505050506040513d601f19601f82011682018060405250810190612678919061357c565b6040516370a0823160e01b81526001600160a01b038816906370a08231906126a4908d90600401613143565b602060405180830381865afa1580156126c1573d6000803e3d6000fd5b505050506040513d601f19601f820116820180604052508101906126e5919061357c565b604080516001600160a01b039687168152959094166020860152928401919091526060830152608082015260a00160405180910390a15050505050506118cb60018055565b6000816001600160a01b03166127408585612d80565b6001600160a01b031614949350505050565b6000818152600a602052604090205460ff16156127815760405162461bcd60e51b815260040161095290613a90565b600081815260096020908152604091829020825160e0810184528154815260018201546001600160a01b0390811693820193909352600282015483169381019390935260038101549091166060830152600481015460808301819052600582015460ff1660a084015260069091015460c08301526128325760405162461bcd60e51b815260206004820152600e60248201526d125b9d985b1a5908185b5bdd5b9d60921b6044820152606401610952565b60408101516001600160a01b031661285c5760405162461bcd60e51b8152600401610952906139a7565b6040808201516000848152600a602052918220805460ff1916600117905560a0830151909160ff9190911690036129dc5781608001514710156128eb5760405162461bcd60e51b815260206004820152602160248201527f496e73756666696369656e74206e617469766520746f6b656e2062616c616e636044820152606560f81b6064820152608401610952565b60808201516040516000916001600160a01b038416918381818185875af1925050503d8060008114612939576040519150601f19603f3d011682016040523d82523d6000602084013e61293e565b606091505b505090508061298f5760405162461bcd60e51b815260206004820152601b60248201527f4661696c656420746f2073656e64206e617469766520746f6b656e00000000006044820152606401610952565b816001600160a01b03167f827a29774a914300112ae9b21a208058471205663f038ac2d01dfd1847e5029784608001516040516129ce91815260200190565b60405180910390a250612b60565b8160a0015160ff16600103612b1f5760608201516001600160a01b0316612a155760405162461bcd60e51b81526004016109529061354d565b816080015182606001516001600160a01b03166370a08231306040518263ffffffff1660e01b8152600401612a4a9190613143565b602060405180830381865afa158015612a67573d6000803e3d6000fd5b505050506040513d601f19601f82011682018060405250810190612a8b919061357c565b1015612aa95760405162461bcd60e51b815260040161095290613afa565b612acf81836080015184606001516001600160a01b031661227e9092919063ffffffff16565b806001600160a01b03167fcc9c77572623c7148558aa65066780e486653470c442376db7d9a6762ac7ce3f83606001518460800151604051612b12929190613595565b60405180910390a2612b60565b60405162461bcd60e51b8152602060048201526016602482015275556e737570706f7274656420746f6b656e207479706560501b6044820152606401610952565b60008381526009602090815260408083208381556001810180546001600160a01b03199081169091556002820180548216905560038201805490911690556004810184905560058101805460ff19169055600601839055600890915281208190555b600354811015612c2f5760008481526007602052604081206003805491929184908110612bf157612bf16134f5565b60009182526020808320909101546001600160a01b031683528201929092526040019020805460ff1916905580612c2781613534565b915050612bc2565b5060405183907fa74c8847d513feba22a0f0cb38d53081abf97562cdb293926ba243689e7c41ca90600090a2505050565b612c686114db565b6109015760405162461bcd60e51b815260206004820152601460248201527314185d5cd8589b194e881b9bdd081c185d5cd95960621b6044820152606401610952565b6000612d00826040518060400160405280602081526020017f5361666545524332303a206c6f772d6c6576656c2063616c6c206661696c6564815250856001600160a01b0316612efe9092919063ffffffff16565b9050805160001480612d21575080806020019051810190612d219190613605565b6120575760405162461bcd60e51b815260206004820152602a60248201527f5361666545524332303a204552433230206f7065726174696f6e20646964206e6044820152691bdd081cdd58d8d9595960b21b6064820152608401610952565b60008151604114612dce5760405162461bcd60e51b8152602060048201526018602482015277092dcecc2d8d2c840e6d2cedcc2e8eae4ca40d8cadccee8d60431b6044820152606401610952565b60208201516040830151606084015160001a601b811015612df757612df4601b82613b31565b90505b8060ff16601b1480612e0c57508060ff16601c145b612e4a5760405162461bcd60e51b815260206004820152600f60248201526e496e76616c696420762076616c756560881b6044820152606401610952565b6040517f19457468657265756d205369676e6564204d6573736167653a0a3332000000006020820152603c8101879052600090605c0160408051601f1981840301815282825280516020918201206000845290830180835281905260ff8516918301919091526060820186905260808201859052915060019060a0016020604051602081039080840390855afa158015612ee8573d6000803e3d6000fd5b5050604051601f19015198975050505050505050565b6060612f0d8484600085612f15565b949350505050565b606082471015612f765760405162461bcd60e51b815260206004820152602660248201527f416464726573733a20696e73756666696369656e742062616c616e636520666f6044820152651c8818d85b1b60d21b6064820152608401610952565b600080866001600160a01b03168587604051612f929190613b4a565b60006040518083038185875af1925050503d8060008114612fcf576040519150601f19603f3d011682016040523d82523d6000602084013e612fd4565b606091505b5091509150612fe587838387612ff0565b979650505050505050565b6060831561305f578251600003613058576001600160a01b0385163b6130585760405162461bcd60e51b815260206004820152601d60248201527f416464726573733a2063616c6c20746f206e6f6e2d636f6e74726163740000006044820152606401610952565b5081612f0d565b612f0d83838151156130745781518083602001fd5b8060405162461bcd60e51b81526004016109529190613b66565b6000602082840312156130a057600080fd5b81356001600160e01b0319811681146130b857600080fd5b9392505050565b6001600160a01b03811681146118cb57600080fd5b600080604083850312156130e757600080fd5b82356130f2816130bf565b91506020830135613102816130bf565b809150509250929050565b60006020828403121561311f57600080fd5b81356130b8816130bf565b60006020828403121561313c57600080fd5b5035919050565b6001600160a01b0391909116815260200190565b6000806040838503121561316a57600080fd5b8235613175816130bf565b946020939093013593505050565b80356001600160401b038116811461319a57600080fd5b919050565b80356002811061319a57600080fd5b60008060008060008060c087890312156131c757600080fd5b86356131d2816130bf565b95506131e060208801613183565b945060408701356131f0816130bf565b93506060870135613200816130bf565b92506080870135915061321560a0880161319f565b90509295509295509295565b6000806040838503121561323457600080fd5b823591506020830135613102816130bf565b634e487b7160e01b600052604160045260246000fd5b604080519081016001600160401b038111828210171561327e5761327e613246565b60405290565b60405160a081016001600160401b038111828210171561327e5761327e613246565b604051601f8201601f191681016001600160401b03811182821017156132ce576132ce613246565b604052919050565b600082601f8301126132e757600080fd5b81356001600160401b0381111561330057613300613246565b613313601f8201601f19166020016132a6565b81815284602083860101111561332857600080fd5b816020850160208301376000918101602001919091529392505050565b60008060008060008060c0878903121561335e57600080fd5b61336787613183565b95506020870135613377816130bf565b945060408701356001600160401b0381111561339257600080fd5b61339e89828a016132d6565b9450506133ad6060880161319f565b925060808701356133bd816130bf565b8092505060a087013590509295509295509295565b600080600080600060a086880312156133ea57600080fd5b85356133f5816130bf565b94506020860135935061340a60408701613183565b9250606086013561341a816130bf565b9150608086013561342a816130bf565b809150509295509295909350565b60006020828403121561344a57600080fd5b81356001600160401b0381111561346057600080fd5b820160a081850312156130b857600080fd5b60008082840361010081121561348757600080fd5b83356001600160401b0381111561349d57600080fd5b6134a9868287016132d6565b93505060e0601f19820112156134be57600080fd5b506020830190509250929050565b634e487b7160e01b600052601160045260246000fd5b808201808211156107f8576107f86134cc565b634e487b7160e01b600052603260045260246000fd5b818103818111156107f8576107f86134cc565b634e487b7160e01b600052603160045260246000fd5b600060018201613546576135466134cc565b5060010190565b602080825260159082015274496e76616c696420746f6b656e206164647265737360581b604082015260600190565b60006020828403121561358e57600080fd5b5051919050565b6001600160a01b03929092168252602082015260400190565b6020808252601290820152710416d6f756e74206d757374206265203e20360741b604082015260600190565b6020808252601190820152702ab739bab83837b93a32b2103a37b5b2b760791b604082015260600190565b60006020828403121561361757600080fd5b815180151581146130b857600080fd5b6001600160a01b039390931683526020830191909152604082015260600190565b634e487b7160e01b600052602160045260246000fd5b60005b83811015613679578181015183820152602001613661565b50506000910152565b6000815180845261369a81602086016020860161365e565b601f01601f19169290920160200192915050565b600060406001600160401b038516835260208181850152845160a0838601526136da60e0860182613682565b905081860151603f19808784030160608801526136f78383613682565b88860151888203830160808a01528051808352908601945060009350908501905b8084101561374a57845180516001600160a01b0316835286015186830152938501936001939093019290860190613718565b5060608901516001600160a01b031660a08901526080890151888203830160c08a015295506137798187613682565b9a9950505050505050505050565b9283526001600160401b039190911660208301526001600160a01b0316604082015260600190565b600060018060a01b03808816835261ffff8716602084015285604084015284606084015260a060808401528084511660a08401528060208501511660c0840152506040830151606060e084015261380a610100840182613682565b98975050505050505050565b600082601f83011261382757600080fd5b813560206001600160401b0382111561384257613842613246565b613850818360051b016132a6565b82815260069290921b8401810191818101908684111561386f57600080fd5b8286015b848110156138b7576040818903121561388c5760008081fd5b61389461325c565b813561389f816130bf565b81528185013585820152835291830191604001613873565b509695505050505050565b600060a082360312156138d457600080fd5b6138dc613284565b823581526138ec60208401613183565b602082015260408301356001600160401b038082111561390b57600080fd5b613917368387016132d6565b6040840152606085013591508082111561393057600080fd5b61393c368387016132d6565b6060840152608085013591508082111561395557600080fd5b5061396236828601613816565b60808301525092915050565b80820281158282048414176107f8576107f86134cc565b6000826139a257634e487b7160e01b600052601260045260246000fd5b500490565b602080825260199082015278496e76616c696420726563697069656e74206164647265737360381b604082015260600190565b80546001600160a01b0319166001600160a01b0392909216919091179055565b813581556020820135613a0c816130bf565b613a1981600184016139da565b506040820135613a28816130bf565b613a3581600284016139da565b506060820135613a44816130bf565b613a5181600384016139da565b506080820135600482015560a082013560ff81168114613a7057600080fd5b60058201805460ff191660ff83161790555060c082013560068201555050565b60208082526019908201527813595cdcd859d948185b1c9958591e481c1c9bd8d95cdcd959603a1b604082015260600190565b600080600060608486031215613ad857600080fd5b8351613ae3816130bf565b602085015160409095015190969495509392505050565b6020808252601a908201527f496e73756666696369656e742045524332302062616c616e6365000000000000604082015260600190565b60ff81811683821601908111156107f8576107f86134cc565b60008251613b5c81846020870161365e565b9190910192915050565b6020815260006130b8602083018461368256fe860fab49fdadbdbe734e78cb9bc1a5f504e2d1d356c9930aef6e010448db52b9a2646970667358221220687d3e4838952dc66c11f90bab4b6b6e767e15aa4aeef5778c8c8eb581f633d164736f6c63430008140033",
  "linkReferences": {},
  "deployedLinkReferences": {}
}