{
  "_format": "hh-sol-artifact-1",
  "contractName": "NativeBridge",
  "sourceName": "contracts/NativeBridge.sol",
  "abi": [
    {
      "inputs": [
        {
          "internalType": "address",
          "name": "_ccipRouter",
          "type": "address"
        },
        {
          "internalType": "address[]",
          "name": "_validators",
          "type": "address[]"
        },
        {
          "internalType": "uint256",
          "name": "_threshold",
          "type": "uint256"
        },
        {
          "internalType": "address",
          "name": "link",
          "type": "address"
        }
      ],
      "stateMutability": "nonpayable",
      "type": "constructor"
    },
    {
      "inputs": [],
      "name": "AmountToBridgeZero",
      "type": "error"
    },
    {
      "inputs": [],
      "name": "DesWalletAddressZero",
      "type": "error"
    },
    {
      "inputs": [],
      "name": "DestAddressZero",
      "type": "error"
    },
    {
      "inputs": [
        {
          "internalType": "uint256",
          "name": "sent",
          "type": "uint256"
        },
        {
          "internalType": "uint256",
          "name": "required",
          "type": "uint256"
        }
      ],
      "name": "InsufficientFeeSent",
      "type": "error"
    },
    {
      "inputs": [],
      "name": "InvalidDestChainSelector",
      "type": "error"
    },
    {
      "inputs": [
        {
          "internalType": "address",
          "name": "router",
          "type": "address"
        }
      ],
      "name": "InvalidRouter",
      "type": "error"
    },
    {
      "anonymous": false,
      "inputs": [
        {
          "indexed": false,
          "internalType": "uint256",
          "name": "allowance",
          "type": "uint256"
        }
      ],
      "name": "DebugAllowance",
      "type": "event"
    },
    {
      "anonymous": false,
      "inputs": [
        {
          "indexed": false,
          "internalType": "uint256",
          "name": "balance",
          "type": "uint256"
        }
      ],
      "name": "DebugBalance",
      "type": "event"
    },
    {
      "anonymous": false,
      "inputs": [
        {
          "indexed": false,
          "internalType": "uint256",
          "name": "fee",
          "type": "uint256"
        }
      ],
      "name": "DebugFee",
      "type": "event"
    },
    {
      "anonymous": false,
      "inputs": [
        {
          "indexed": false,
          "internalType": "string",
          "name": "message",
          "type": "string"
        }
      ],
      "name": "DebugMsg",
      "type": "event"
    },
    {
      "anonymous": false,
      "inputs": [
        {
          "indexed": false,
          "internalType": "bytes32",
          "name": "tokenId",
          "type": "bytes32"
        },
        {
          "indexed": false,
          "internalType": "address",
          "name": "tokenAddr",
          "type": "address"
        }
      ],
      "name": "DebugTokenMapping",
      "type": "event"
    },
    {
      "anonymous": false,
      "inputs": [
        {
          "indexed": false,
          "internalType": "address",
          "name": "user",
          "type": "address"
        },
        {
          "indexed": false,
          "internalType": "uint256",
          "name": "amount",
          "type": "uint256"
        },
        {
          "indexed": false,
          "internalType": "uint256",
          "name": "balanceBefore",
          "type": "uint256"
        },
        {
          "indexed": false,
          "internalType": "uint256",
          "name": "balanceAfter",
          "type": "uint256"
        }
      ],
      "name": "DebugUnlockTokenVL",
      "type": "event"
    },
    {
      "anonymous": false,
      "inputs": [
        {
          "indexed": true,
          "internalType": "bytes32",
          "name": "messageHash",
          "type": "bytes32"
        }
      ],
      "name": "Executed",
      "type": "event"
    },
    {
      "anonymous": false,
      "inputs": [
        {
          "indexed": true,
          "internalType": "address",
          "name": "sender",
          "type": "address"
        },
        {
          "indexed": true,
          "internalType": "address",
          "name": "token",
          "type": "address"
        },
        {
          "indexed": false,
          "internalType": "uint256",
          "name": "amount",
          "type": "uint256"
        },
        {
          "indexed": false,
          "internalType": "uint64",
          "name": "destChainSelector",
          "type": "uint64"
        },
        {
          "indexed": true,
          "internalType": "address",
          "name": "destAddress",
          "type": "address"
        },
        {
          "indexed": false,
          "internalType": "address",
          "name": "desWalletAddress",
          "type": "address"
        }
      ],
      "name": "LockedTokenCCIP",
      "type": "event"
    },
    {
      "anonymous": false,
      "inputs": [
        {
          "indexed": true,
          "internalType": "address",
          "name": "sender",
          "type": "address"
        },
        {
          "indexed": false,
          "internalType": "uint256",
          "name": "amount",
          "type": "uint256"
        },
        {
          "indexed": false,
          "internalType": "uint64",
          "name": "destChainId",
          "type": "uint64"
        },
        {
          "indexed": false,
          "internalType": "address",
          "name": "destAddress",
          "type": "address"
        },
        {
          "indexed": false,
          "internalType": "address",
          "name": "desWalletAddress",
          "type": "address"
        }
      ],
      "name": "LockedTokenVL",
      "type": "event"
    },
    {
      "anonymous": false,
      "inputs": [
        {
          "indexed": true,
          "internalType": "address",
          "name": "user",
          "type": "address"
        },
        {
          "indexed": true,
          "internalType": "bytes32",
          "name": "tokenId",
          "type": "bytes32"
        },
        {
          "indexed": false,
          "internalType": "address",
          "name": "tokenAddr",
          "type": "address"
        },
        {
          "indexed": false,
          "internalType": "uint256",
          "name": "amount",
          "type": "uint256"
        },
        {
          "indexed": false,
          "internalType": "bytes32",
          "name": "messageId",
          "type": "bytes32"
        }
      ],
      "name": "MessageReceived",
      "type": "event"
    },
    {
      "anonymous": false,
      "inputs": [
        {
          "indexed": true,
          "internalType": "bytes32",
          "name": "messageId",
          "type": "bytes32"
        }
      ],
      "name": "MessageSent",
      "type": "event"
    },
    {
      "anonymous": false,
      "inputs": [
        {
          "indexed": true,
          "internalType": "address",
          "name": "previousOwner",
          "type": "address"
        },
        {
          "indexed": true,
          "internalType": "address",
          "name": "newOwner",
          "type": "address"
        }
      ],
      "name": "OwnershipTransferred",
      "type": "event"
    },
    {
      "anonymous": false,
      "inputs": [
        {
          "indexed": false,
          "internalType": "address",
          "name": "account",
          "type": "address"
        }
      ],
      "name": "Paused",
      "type": "event"
    },
    {
      "anonymous": false,
      "inputs": [
        {
          "indexed": false,
          "internalType": "address",
          "name": "token",
          "type": "address"
        },
        {
          "indexed": false,
          "internalType": "uint256",
          "name": "amount",
          "type": "uint256"
        }
      ],
      "name": "RescueTokenCCIP",
      "type": "event"
    },
    {
      "anonymous": false,
      "inputs": [
        {
          "indexed": false,
          "internalType": "uint256",
          "name": "amount",
          "type": "uint256"
        }
      ],
      "name": "RescueTokenVL",
      "type": "event"
    },
    {
      "anonymous": false,
      "inputs": [
        {
          "indexed": true,
          "internalType": "bytes32",
          "name": "messageHash",
          "type": "bytes32"
        },
        {
          "indexed": true,
          "internalType": "address",
          "name": "signer",
          "type": "address"
        }
      ],
      "name": "SignatureSubmitted",
      "type": "event"
    },
    {
      "anonymous": false,
      "inputs": [
        {
          "indexed": false,
          "internalType": "uint256",
          "name": "newThreshold",
          "type": "uint256"
        }
      ],
      "name": "ThresholdUpdated",
      "type": "event"
    },
    {
      "anonymous": false,
      "inputs": [
        {
          "indexed": true,
          "internalType": "address",
          "name": "sender",
          "type": "address"
        },
        {
          "indexed": true,
          "internalType": "address",
          "name": "token",
          "type": "address"
        },
        {
          "indexed": false,
          "internalType": "uint256",
          "name": "amount",
          "type": "uint256"
        }
      ],
      "name": "TokenCCIPLocked",
      "type": "event"
    },
    {
      "anonymous": false,
      "inputs": [
        {
          "indexed": false,
          "internalType": "address",
          "name": "user",
          "type": "address"
        },
        {
          "indexed": false,
          "internalType": "address",
          "name": "token",
          "type": "address"
        },
        {
          "indexed": false,
          "internalType": "uint256",
          "name": "amount",
          "type": "uint256"
        },
        {
          "indexed": false,
          "internalType": "uint256",
          "name": "balanceBefore",
          "type": "uint256"
        },
        {
          "indexed": false,
          "internalType": "uint256",
          "name": "balanceAfter",
          "type": "uint256"
        }
      ],
      "name": "UnlockTokenCCIP",
      "type": "event"
    },
    {
      "anonymous": false,
      "inputs": [
        {
          "indexed": true,
          "internalType": "bytes",
          "name": "user",
          "type": "bytes"
        },
        {
          "indexed": false,
          "internalType": "address",
          "name": "tokenAddr",
          "type": "address"
        },
        {
          "indexed": false,
          "internalType": "uint256",
          "name": "amount",
          "type": "uint256"
        }
      ],
      "name": "UnlockedTokenCCIP",
      "type": "event"
    },
    {
      "anonymous": false,
      "inputs": [
        {
          "indexed": true,
          "internalType": "bytes",
          "name": "user",
          "type": "bytes"
        },
        {
          "indexed": false,
          "internalType": "uint256",
          "name": "amount",
          "type": "uint256"
        }
      ],
      "name": "UnlockedTokenVL",
      "type": "event"
    },
    {
      "anonymous": false,
      "inputs": [
        {
          "indexed": false,
          "internalType": "address",
          "name": "account",
          "type": "address"
        }
      ],
      "name": "Unpaused",
      "type": "event"
    },
    {
      "anonymous": false,
      "inputs": [
        {
          "indexed": true,
          "internalType": "address",
          "name": "validator",
          "type": "address"
        }
      ],
      "name": "ValidatorAdded",
      "type": "event"
    },
    {
      "anonymous": false,
      "inputs": [
        {
          "indexed": true,
          "internalType": "address",
          "name": "validator",
          "type": "address"
        }
      ],
      "name": "ValidatorRemoved",
      "type": "event"
    },
    {
      "stateMutability": "payable",
      "type": "fallback"
    },
    {
      "inputs": [
        {
          "internalType": "address",
          "name": "validator",
          "type": "address"
        }
      ],
      "name": "addValidator",
      "outputs": [],
      "stateMutability": "nonpayable",
      "type": "function"
    },
    {
      "inputs": [
        {
          "components": [
            {
              "internalType": "bytes32",
              "name": "messageId",
              "type": "bytes32"
            },
            {
              "internalType": "uint64",
              "name": "sourceChainSelector",
              "type": "uint64"
            },
            {
              "internalType": "bytes",
              "name": "sender",
              "type": "bytes"
            },
            {
              "internalType": "bytes",
              "name": "data",
              "type": "bytes"
            },
            {
              "components": [
                {
                  "internalType": "address",
                  "name": "token",
                  "type": "address"
                },
                {
                  "internalType": "uint256",
                  "name": "amount",
                  "type": "uint256"
                }
              ],
              "internalType": "struct Client.EVMTokenAmount[]",
              "name": "destTokenAmounts",
              "type": "tuple[]"
            }
          ],
          "internalType": "struct Client.Any2EVMMessage",
          "name": "message",
          "type": "tuple"
        }
      ],
      "name": "ccipReceive",
      "outputs": [],
      "stateMutability": "nonpayable",
      "type": "function"
    },
    {
      "inputs": [
        {
          "internalType": "uint64",
          "name": "destChainSelector",
          "type": "uint64"
        },
        {
          "internalType": "address",
          "name": "receiver",
          "type": "address"
        },
        {
          "internalType": "bytes",
          "name": "data",
          "type": "bytes"
        },
        {
          "internalType": "enum NativeBridge.PayFeesIn",
          "name": "payFeesIn",
          "type": "uint8"
        },
        {
          "internalType": "address",
          "name": "tokenAddress",
          "type": "address"
        },
        {
          "internalType": "uint256",
          "name": "tokenAmount",
          "type": "uint256"
        }
      ],
      "name": "getFeeCCIP",
      "outputs": [
        {
          "internalType": "uint256",
          "name": "",
          "type": "uint256"
        }
      ],
      "stateMutability": "view",
      "type": "function"
    },
    {
      "inputs": [],
      "name": "getRouter",
      "outputs": [
        {
          "internalType": "address",
          "name": "",
          "type": "address"
        }
      ],
      "stateMutability": "view",
      "type": "function"
    },
    {
      "inputs": [],
      "name": "getValidatorCount",
      "outputs": [
        {
          "internalType": "uint256",
          "name": "",
          "type": "uint256"
        }
      ],
      "stateMutability": "view",
      "type": "function"
    },
    {
      "inputs": [],
      "name": "i_link",
      "outputs": [
        {
          "internalType": "address",
          "name": "",
          "type": "address"
        }
      ],
      "stateMutability": "view",
      "type": "function"
    },
    {
      "inputs": [
        {
          "internalType": "contract OFTV2",
          "name": "oftToken",
          "type": "address"
        },
        {
          "internalType": "uint256",
          "name": "amountToBridge",
          "type": "uint256"
        },
        {
          "internalType": "uint64",
          "name": "destChainId",
          "type": "uint64"
        },
        {
          "internalType": "address",
          "name": "destAddress",
          "type": "address"
        },
        {
          "internalType": "address",
          "name": "desWalletAddress",
          "type": "address"
        }
      ],
      "name": "lockOFT",
      "outputs": [],
      "stateMutability": "payable",
      "type": "function"
    },
    {
      "inputs": [
        {
          "internalType": "contract IERC20",
          "name": "token",
          "type": "address"
        },
        {
          "internalType": "uint64",
          "name": "destChainSelector",
          "type": "uint64"
        },
        {
          "internalType": "address",
          "name": "destAddress",
          "type": "address"
        },
        {
          "internalType": "address",
          "name": "desWalletAddress",
          "type": "address"
        },
        {
          "internalType": "uint256",
          "name": "amountToBridge",
          "type": "uint256"
        },
        {
          "internalType": "enum NativeBridge.PayFeesIn",
          "name": "payFeesIn",
          "type": "uint8"
        }
      ],
      "name": "lockTokenCCIP",
      "outputs": [
        {
          "internalType": "bytes32",
          "name": "messageId",
          "type": "bytes32"
        }
      ],
      "stateMutability": "payable",
      "type": "function"
    },
    {
      "inputs": [
        {
          "internalType": "uint64",
          "name": "destChainSelector",
          "type": "uint64"
        },
        {
          "internalType": "address",
          "name": "destAddress",
          "type": "address"
        },
        {
          "internalType": "address",
          "name": "desWalletAddress",
          "type": "address"
        },
        {
          "internalType": "uint256",
          "name": "amountToBridge",
          "type": "uint256"
        }
      ],
      "name": "lockTokenVL",
      "outputs": [],
      "stateMutability": "payable",
      "type": "function"
    },
    {
      "inputs": [
        {
          "internalType": "contract IERC20",
          "name": "token",
          "type": "address"
        },
        {
          "internalType": "uint256",
          "name": "amountToBridge",
          "type": "uint256"
        },
        {
          "internalType": "uint64",
          "name": "destChainSelector",
          "type": "uint64"
        },
        {
          "internalType": "address",
          "name": "destAddress",
          "type": "address"
        },
        {
          "internalType": "address",
          "name": "desWalletAddress",
          "type": "address"
        }
      ],
      "name": "lockkERC20",
      "outputs": [],
      "stateMutability": "payable",
      "type": "function"
    },
    {
      "inputs": [
        {
          "internalType": "bytes32",
          "name": "",
          "type": "bytes32"
        }
      ],
      "name": "messageData",
      "outputs": [
        {
          "internalType": "bytes",
          "name": "user",
          "type": "bytes"
        },
        {
          "internalType": "uint256",
          "name": "amount",
          "type": "uint256"
        },
        {
          "internalType": "uint8",
          "name": "tokenType",
          "type": "uint8"
        },
        {
          "internalType": "address",
          "name": "tokenAddr",
          "type": "address"
        }
      ],
      "stateMutability": "view",
      "type": "function"
    },
    {
      "inputs": [],
      "name": "owner",
      "outputs": [
        {
          "internalType": "address",
          "name": "",
          "type": "address"
        }
      ],
      "stateMutability": "view",
      "type": "function"
    },
    {
      "inputs": [],
      "name": "pause",
      "outputs": [],
      "stateMutability": "nonpayable",
      "type": "function"
    },
    {
      "inputs": [],
      "name": "paused",
      "outputs": [
        {
          "internalType": "bool",
          "name": "",
          "type": "bool"
        }
      ],
      "stateMutability": "view",
      "type": "function"
    },
    {
      "inputs": [
        {
          "internalType": "bytes32",
          "name": "",
          "type": "bytes32"
        }
      ],
      "name": "processedMessages",
      "outputs": [
        {
          "internalType": "bool",
          "name": "",
          "type": "bool"
        }
      ],
      "stateMutability": "view",
      "type": "function"
    },
    {
      "inputs": [
        {
          "internalType": "address",
          "name": "validator",
          "type": "address"
        }
      ],
      "name": "removeValidator",
      "outputs": [],
      "stateMutability": "nonpayable",
      "type": "function"
    },
    {
      "inputs": [],
      "name": "renounceOwnership",
      "outputs": [],
      "stateMutability": "nonpayable",
      "type": "function"
    },
    {
      "inputs": [
        {
          "internalType": "contract IERC20",
          "name": "token",
          "type": "address"
        },
        {
          "internalType": "uint256",
          "name": "amount",
          "type": "uint256"
        }
      ],
      "name": "rescueTokenCCIP",
      "outputs": [],
      "stateMutability": "nonpayable",
      "type": "function"
    },
    {
      "inputs": [
        {
          "internalType": "uint256",
          "name": "amount",
          "type": "uint256"
        }
      ],
      "name": "rescueTokenVL",
      "outputs": [],
      "stateMutability": "nonpayable",
      "type": "function"
    },
    {
      "inputs": [
        {
          "internalType": "uint256",
          "name": "newThreshold",
          "type": "uint256"
        }
      ],
      "name": "setThreshold",
      "outputs": [],
      "stateMutability": "nonpayable",
      "type": "function"
    },
    {
      "inputs": [
        {
          "internalType": "address",
          "name": "tokenAddress",
          "type": "address"
        },
        {
          "internalType": "bytes32",
          "name": "tokenId",
          "type": "bytes32"
        }
      ],
      "name": "setTokenAddressToId",
      "outputs": [],
      "stateMutability": "nonpayable",
      "type": "function"
    },
    {
      "inputs": [
        {
          "internalType": "bytes32",
          "name": "tokenId",
          "type": "bytes32"
        },
        {
          "internalType": "address",
          "name": "tokenAddress",
          "type": "address"
        }
      ],
      "name": "setTokenMapping",
      "outputs": [],
      "stateMutability": "nonpayable",
      "type": "function"
    },
    {
      "inputs": [
        {
          "internalType": "bytes32",
          "name": "",
          "type": "bytes32"
        }
      ],
      "name": "signatureCount",
      "outputs": [
        {
          "internalType": "uint256",
          "name": "",
          "type": "uint256"
        }
      ],
      "stateMutability": "view",
      "type": "function"
    },
    {
      "inputs": [
        {
          "internalType": "bytes32",
          "name": "",
          "type": "bytes32"
        },
        {
          "internalType": "address",
          "name": "",
          "type": "address"
        }
      ],
      "name": "signatures",
      "outputs": [
        {
          "internalType": "bool",
          "name": "",
          "type": "bool"
        }
      ],
      "stateMutability": "view",
      "type": "function"
    },
    {
      "inputs": [
        {
          "internalType": "bytes32",
          "name": "messageHash",
          "type": "bytes32"
        },
        {
          "internalType": "bytes",
          "name": "signature",
          "type": "bytes"
        },
        {
          "internalType": "bytes",
          "name": "user",
          "type": "bytes"
        },
        {
          "internalType": "uint256",
          "name": "amount",
          "type": "uint256"
        },
        {
          "internalType": "uint8",
          "name": "tokenType",
          "type": "uint8"
        },
        {
          "internalType": "address",
          "name": "tokenAddr",
          "type": "address"
        }
      ],
      "name": "submitSignature",
      "outputs": [],
      "stateMutability": "nonpayable",
      "type": "function"
    },
    {
      "inputs": [
        {
          "internalType": "bytes4",
          "name": "interfaceId",
          "type": "bytes4"
        }
      ],
      "name": "supportsInterface",
      "outputs": [
        {
          "internalType": "bool",
          "name": "",
          "type": "bool"
        }
      ],
      "stateMutability": "view",
      "type": "function"
    },
    {
      "inputs": [],
      "name": "threshold",
      "outputs": [
        {
          "internalType": "uint256",
          "name": "",
          "type": "uint256"
        }
      ],
      "stateMutability": "view",
      "type": "function"
    },
    {
      "inputs": [
        {
          "internalType": "address",
          "name": "",
          "type": "address"
        }
      ],
      "name": "tokenAddressToId",
      "outputs": [
        {
          "internalType": "bytes32",
          "name": "",
          "type": "bytes32"
        }
      ],
      "stateMutability": "view",
      "type": "function"
    },
    {
      "inputs": [
        {
          "internalType": "bytes32",
          "name": "",
          "type": "bytes32"
        }
      ],
      "name": "tokenMapping",
      "outputs": [
        {
          "internalType": "address",
          "name": "",
          "type": "address"
        }
      ],
      "stateMutability": "view",
      "type": "function"
    },
    {
      "inputs": [
        {
          "internalType": "address",
          "name": "newOwner",
          "type": "address"
        }
      ],
      "name": "transferOwnership",
      "outputs": [],
      "stateMutability": "nonpayable",
      "type": "function"
    },
    {
      "inputs": [],
      "name": "unpause",
      "outputs": [],
      "stateMutability": "nonpayable",
      "type": "function"
    },
    {
      "inputs": [
        {
          "internalType": "uint256",
          "name": "",
          "type": "uint256"
        }
      ],
      "name": "validators",
      "outputs": [
        {
          "internalType": "address",
          "name": "",
          "type": "address"
        }
      ],
      "stateMutability": "view",
      "type": "function"
    },
    {
      "stateMutability": "payable",
      "type": "receive"
    }
  ],
  "bytecode": "0x60c06040523480156200001157600080fd5b50604051620043e1380380620043e1833981016040819052620000349162000232565b836001600160a01b03811662000065576040516335fdcccd60e21b8152600060048201526024015b60405180910390fd5b6001600160a01b03166080526200007c336200012e565b6000805460ff60a01b19169055600180558251821115620000d45760405162461bcd60e51b8152602060048201526011602482015270125b9d985b1a59081d1a1c995cda1bdb19607a1b60448201526064016200005c565b8251620000e99060029060208601906200017e565b50600383516002620000fc91906200034d565b620001099060026200036d565b62000115919062000383565b6003556001600160a01b031660a05250620003a6915050565b600080546001600160a01b038381166001600160a01b0319831681178455604051919092169283917f8be0079c531659141344cd1fd0a4f28419497f9722a3daafe3b4186f6b6457e09190a35050565b828054828255906000526020600020908101928215620001d6579160200282015b82811115620001d657825182546001600160a01b0319166001600160a01b039091161782556020909201916001909101906200019f565b50620001e4929150620001e8565b5090565b5b80821115620001e45760008155600101620001e9565b80516001600160a01b03811681146200021757600080fd5b919050565b634e487b7160e01b600052604160045260246000fd5b600080600080608085870312156200024957600080fd5b6200025485620001ff565b602086810151919550906001600160401b03808211156200027457600080fd5b818801915088601f8301126200028957600080fd5b8151818111156200029e576200029e6200021c565b8060051b604051601f19603f83011681018181108582111715620002c657620002c66200021c565b60405291825284820192508381018501918b831115620002e557600080fd5b938501935b828510156200030e57620002fe85620001ff565b84529385019392850192620002ea565b809850505050505050604085015191506200032c60608601620001ff565b905092959194509250565b634e487b7160e01b600052601160045260246000fd5b808202811582820484141762000367576200036762000337565b92915050565b8082018082111562000367576200036762000337565b600082620003a157634e487b7160e01b600052601260045260246000fd5b500490565b60805160a051614000620003e1600039600081816103ef015281816111f8015281816113d7015261186601526000611e1001526140006000f3fe60806040526004361061019b5760003560e01c8063715018a6116100dc578063960bfe0411610082578063960bfe04146104b4578063ac49c8e1146104d4578063b0f479a1146104f4578063b3cc026d14610509578063dc18fa9514610536578063ded624d714610571578063f26302a01461059e578063f2fde38b146105b157005b8063715018a6146103b55780637ab4a496146103ca5780637d253aff146103dd5780638456cb591461041157806385572ffb14610426578063886b7e181461044657806388ba16ab146104665780638da5cb5b1461049657005b8063507dafbd11610141578063507dafbd146102cf578063510f8063146102ef5780635c975abb1461030257806364b6478b1461031757806365e2e58014610337578063667cb4ba146103575780636e7a4d051461038d5780637071688a146103a057005b806301ffc9a7146101a45780632dd43c18146101d957806335aa2e44146101f9578063395fc293146102265780633f4ba83a1461025657806340a141ff1461026b57806342cde4e81461028b5780634d238c8e146102af57005b366101a257005b005b3480156101b057600080fd5b506101c46101bf366004613295565b6105d1565b60405190151581526020015b60405180910390f35b3480156101e557600080fd5b506101a26101f43660046133da565b610608565b34801561020557600080fd5b5061021961021436600461347c565b610942565b6040516101d09190613495565b34801561023257600080fd5b5061024661024136600461347c565b61096c565b6040516101d094939291906134f9565b34801561026257600080fd5b506101a2610a29565b34801561027757600080fd5b506101a2610286366004613534565b610a3b565b34801561029757600080fd5b506102a160035481565b6040519081526020016101d0565b3480156102bb57600080fd5b506101a26102ca366004613534565b610c04565b3480156102db57600080fd5b506101a26102ea366004613551565b610da0565b6102a16102fd3660046135a8565b610eee565b34801561030e57600080fd5b506101c4611734565b34801561032357600080fd5b506101a261033236600461361b565b611744565b34801561034357600080fd5b506102a161035236600461364b565b611785565b34801561036357600080fd5b5061021961037236600461347c565b6005602052600090815260409020546001600160a01b031681565b6101a261039b3660046136d8565b611935565b3480156103ac57600080fd5b506002546102a1565b3480156103c157600080fd5b506101a2611a1d565b6101a26103d83660046136d8565b611a2f565b3480156103e957600080fd5b506102197f000000000000000000000000000000000000000000000000000000000000000081565b34801561041d57600080fd5b506101a2611be1565b34801561043257600080fd5b506101a261044136600461373e565b611bf1565b34801561045257600080fd5b506101a2610461366004613551565b611c40565b34801561047257600080fd5b506101c461048136600461347c565b60096020526000908152604090205460ff1681565b3480156104a257600080fd5b506000546001600160a01b0316610219565b3480156104c057600080fd5b506101a26104cf36600461347c565b611c64565b3480156104e057600080fd5b506101a26104ef36600461347c565b611d4c565b34801561050057600080fd5b50610219611e0e565b34801561051557600080fd5b506102a161052436600461347c565b60076020526000908152604090205481565b34801561054257600080fd5b506101c461055136600461361b565b600660209081526000928352604080842090915290825290205460ff1681565b34801561057d57600080fd5b506102a161058c366004613534565b60046020526000908152604090205481565b6101a26105ac366004613778565b611e32565b3480156105bd57600080fd5b506101a26105cc366004613534565b61218c565b60006001600160e01b031982166385572ffb60e01b148061060257506001600160e01b031982166301ffc9a760e01b145b92915050565b61061133612202565b6106525760405162461bcd60e51b815260206004820152600d60248201526c2737ba103b30b634b230ba37b960991b60448201526064015b60405180910390fd5b600086815260066020908152604080832033845290915290205460ff16156106ad5760405162461bcd60e51b815260206004820152600e60248201526d105b1c9958591e481cda59db995960921b6044820152606401610649565b6106b886863361226b565b6106f85760405162461bcd60e51b8152602060048201526011602482015270496e76616c6964207369676e617475726560781b6044820152606401610649565b60008681526007602052604081205490036108a65760148451101561072f5760405162461bcd60e51b8152600401610649906137c7565b6000831161074f5760405162461bcd60e51b8152600401610649906137fe565b8160ff16600103610785576001600160a01b0381166107805760405162461bcd60e51b81526004016106499061382a565b6107a6565b60ff8216156107a65760405162461bcd60e51b815260040161064990613859565b85848484846040516020016107be94939291906134f9565b60405160208183030381529060405280519060200120146108185760405162461bcd60e51b8152602060048201526014602482015273092dcecc2d8d2c840dacae6e6c2ceca40d0c2e6d60631b6044820152606401610649565b60408051608081018252858152602080820186905260ff8516828401526001600160a01b03841660608301526000898152600890915291909120815181906108609082613909565b50602082015160018201556040820151600290910180546060909301516001600160a01b0316610100026001600160a81b031990931660ff909216919091179190911790555b60008681526006602090815260408083203384528252808320805460ff19166001908117909155898452600790925282208054919290916108e89084906139de565b9091555050604051339087907f9fae4663050594146745d8ef909ace78285592fca37a57e4e551398fe43a9e6990600090a36003546000878152600760205260409020541061093a5761093a86612364565b505050505050565b6002818154811061095257600080fd5b6000918252602090912001546001600160a01b0316905081565b60086020526000908152604090208054819061098790613889565b80601f01602080910402602001604051908101604052809291908181526020018280546109b390613889565b8015610a005780601f106109d557610100808354040283529160200191610a00565b820191906000526020600020905b8154815290600101906020018083116109e357829003601f168201915b50505050600183015460029093015491929160ff8116915061010090046001600160a01b031684565b610a316128f7565b610a39612951565b565b610a436128f7565b610a4c81612202565b610a8e5760405162461bcd60e51b815260206004820152601360248201527215985b1a59185d1bdc881b9bdd08199bdd5b99606a1b6044820152606401610649565b60005b600254811015610c0057816001600160a01b031660028281548110610ab857610ab86139f1565b6000918252602090912001546001600160a01b031603610bee5760028054610ae290600190613a07565b81548110610af257610af26139f1565b600091825260209091200154600280546001600160a01b039092169183908110610b1e57610b1e6139f1565b9060005260206000200160006101000a8154816001600160a01b0302191690836001600160a01b031602179055506002805480610b5d57610b5d613a1a565b600082815260209020810160001990810180546001600160a01b0319169055019055600254610b8d576000610bb3565b60028054600391610b9e9190613a30565b610ba99060026139de565b610bb39190613a47565b6003556040516001600160a01b038316907fe1434e25d6611e0db941968fdc97811c982ac1602e951637d206f5fdda9dd8f190600090a25050565b80610bf881613a69565b915050610a91565b5050565b610c0c6128f7565b6001600160a01b038116610c5e5760405162461bcd60e51b8152602060048201526019602482015278496e76616c69642076616c696461746f72206164647265737360381b6044820152606401610649565b610c6781612202565b15610caf5760405162461bcd60e51b815260206004820152601860248201527756616c696461746f7220616c72656164792065786973747360401b6044820152606401610649565b60025460001911610cf85760405162461bcd60e51b815260206004820152601360248201527215985b1a59185d1bdc881b1a5cdd08199d5b1b606a1b6044820152606401610649565b6002805460018101825560008290527f405787fa12a823e0f2b7631cc41b3ba8828b3321ca811111fa75cd3aa3bb5ace0180546001600160a01b0319166001600160a01b0384161790558054600391610d519190613a30565b610d5c9060026139de565b610d669190613a47565b6003556040516001600160a01b038216907fe366c1c0452ed8eec96861e9e54141ebff23c9ec89fe27b996b45f5ec388498790600090a250565b610da86128f7565b6001600160a01b038216610dce5760405162461bcd60e51b81526004016106499061382a565b6040516370a0823160e01b815281906001600160a01b038416906370a0823190610dfc903090600401613495565b602060405180830381865afa158015610e19573d6000803e3d6000fd5b505050506040513d601f19601f82011682018060405250810190610e3d9190613a82565b1015610e8b5760405162461bcd60e51b815260206004820152601a60248201527f496e73756666696369656e7420746f6b656e2062616c616e63650000000000006044820152606401610649565b610eb1610ea06000546001600160a01b031690565b6001600160a01b03841690836129a0565b7fedf6aaaf4b693988647901b0c5bb4a68720279d9345e416c5d49cd73d1ddcd278282604051610ee2929190613a9b565b60405180910390a15050565b6000610ef86129fb565b610f00612a43565b856001600160401b0316600003610f2a5760405163780a7e7360e01b815260040160405180910390fd5b6001600160a01b038516610f51576040516318d611b360e01b815260040160405180910390fd5b6001600160a01b038416610f7857604051635caf28f760e11b815260040160405180910390fd5b82600003610f995760405163a330592760e01b815260040160405180910390fd5b60008311610fb95760405162461bcd60e51b8152600401610649906137fe565b6001600160a01b03871660009081526004602052604090205480610fef5760405162461bcd60e51b815260040161064990613ab4565b600080516020613fab83398151915260405161102d906020808252600e908201526d151bdad95b9259081b585c1c195960921b604082015260600190565b60405180910390a16040516323b872dd60e01b81526001600160a01b038916906323b872dd9061106590339030908990600401613adf565b6020604051808303816000875af1158015611084573d6000803e3d6000fd5b505050506040513d601f19601f820116820180604052508101906110a89190613b03565b506040518481526001600160a01b0389169033907fec36c91f26bfb49a67d65fa075356f5bec12299c4b54c774d07fd15ad35a0a979060200160405180910390a3600080516020613fab833981519152604051611125906020808252600c908201526b151bdad95b881b1bd8dad95960a21b604082015260600190565b60405180910390a160006040518060a001604052808860405160200161114b9190613495565b604051602081830303815290604052815260200187848860405160200161117493929190613b25565b60408051601f19818403018152919052815260200160006040519080825280602002602001820160405280156111d057816020015b60408051808201909152600080825260208201528152602001906001900390816111a95790505b50815260200160018660018111156111ea576111ea613b46565b146111f6576000611218565b7f00000000000000000000000000000000000000000000000000000000000000005b6001600160a01b0316815260200161124960405180604001604052806207a120815260200160011515815250612a9c565b8152509050600080516020613fab8339815191526040516112909060208082526012908201527110d0d254081b595cdcd859d948189d5a5b1d60721b604082015260600190565b60405180910390a160006112a2611e0e565b6001600160a01b03166320487ded8a846040518363ffffffff1660e01b81526004016112cf929190613b5c565b602060405180830381865afa1580156112ec573d6000803e3d6000fd5b505050506040513d601f19601f820116820180604052508101906113109190613a82565b90507f01c07ee12c70d5c6053fd06c4684862308f1d87ce067678c60fec95f02ecb3238160405161134391815260200190565b60405180910390a1803410156113755760405163ddcc6fc960e01b815234600482015260248101829052604401610649565b600080516020613fab8339815191526040516113b4906020808252600f908201526e1099599bdc994818d8da5c14d95b99608a1b604082015260600190565b60405180910390a160018560018111156113d0576113d0613b46565b036114ed577f00000000000000000000000000000000000000000000000000000000000000006001600160a01b031663095ea7b361140c611e0e565b836040518363ffffffff1660e01b815260040161142a929190613a9b565b6020604051808303816000875af1158015611449573d6000803e3d6000fd5b505050506040513d601f19601f8201168201806040525081019061146d9190613b03565b50611476611e0e565b6001600160a01b03166396f4e9f98a846040518363ffffffff1660e01b81526004016114a3929190613b5c565b6020604051808303816000875af11580156114c2573d6000803e3d6000fd5b505050506040513d601f19601f820116820180604052508101906114e69190613a82565b9350611569565b6114f5611e0e565b6001600160a01b03166396f4e9f9828b856040518463ffffffff1660e01b8152600401611523929190613b5c565b60206040518083038185885af1158015611541573d6000803e3d6000fd5b50505050506040513d601f19601f820116820180604052508101906115669190613a82565b93505b60405184907f54791b38f3859327992a1ca0590ad3c0f08feba98d1a4f56ab0dca74d203392a90600090a2876001600160a01b03168a6001600160a01b0316336001600160a01b0316600080516020613f8b833981519152898d8c6040516115d393929190613c35565b60405180910390a4803411156116d95760006115ef8234613a07565b604051909150600090339083908381818185875af1925050503d8060008114611634576040519150601f19603f3d011682016040523d82523d6000602084013e611639565b606091505b50509050801561169057600080516020613fab8339815191526040516116839060208082526010908201526f1499599d5b99081cdd58d8d95959195960821b604082015260600190565b60405180910390a16116d6565b600080516020613fab8339815191526040516116cd906020808252600d908201526c1499599d5b990819985a5b1959609a1b604082015260600190565b60405180910390a15b50505b600080516020613fab833981519152604051611716906020808252600d908201526c0456e64206c6f636b455243323609c1b604082015260600190565b60405180910390a150505061172a60018055565b9695505050505050565b600054600160a01b900460ff1690565b61174c6128f7565b600082815260056020908152604080832080546001600160a01b039095166001600160a01b031990951685179055928252600490522055565b604080516001808252818301909252600091829190816020015b604080518082019091526000808252602082015281526020019060019003908161179f5790505090506040518060400160405280856001600160a01b0316815260200184815250816000815181106117f9576117f96139f1565b602002602001018190525060006040518060a00160405280896040516020016118229190613495565b60408051601f19818403018152918152908252602082018a90528101849052606001600188600181111561185857611858613b46565b14611864576000611886565b7f00000000000000000000000000000000000000000000000000000000000000005b6001600160a01b031681526020016118ae6040518060200160405280620493e0815250612afa565b905290506118ba611e0e565b6001600160a01b03166320487ded8a836040518363ffffffff1660e01b81526004016118e7929190613b5c565b602060405180830381865afa158015611904573d6000803e3d6000fd5b505050506040513d601f19601f820116820180604052508101906119289190613a82565b9998505050505050505050565b61193d6129fb565b611945612a43565b600084116119655760405162461bcd60e51b8152600401610649906137fe565b6001600160a01b03811661198b5760405162461bcd60e51b815260040161064990613c5d565b6001600160a01b0385166119b15760405162461bcd60e51b81526004016106499061382a565b6119c66001600160a01b038616333087612b18565b816001600160a01b0316856001600160a01b0316336001600160a01b0316600080516020613f8b833981519152878786604051611a0593929190613c35565b60405180910390a4611a1660018055565b5050505050565b611a256128f7565b610a396000612b39565b611a376129fb565b611a3f612a43565b6001600160a01b038516611a895760405162461bcd60e51b815260206004820152601160248201527024b73b30b634b21027a32a103a37b5b2b760791b6044820152606401610649565b8261ffff81166001600160401b03821614611add5760405162461bcd60e51b815260206004820152601460248201527364657374436861696e4964206f766572666c6f7760601b6044820152606401610649565b60408051606081018252338152600060208083018290528351600160f01b9181019190915262030d406022820152909282019060420160408051601f1981840301815291815291525163695ef6bf60e01b81529091506001600160a01b0388169063695ef6bf903490611b5d90339087906000908d908990600401613ca6565b6000604051808303818588803b158015611b7657600080fd5b505af1158015611b8a573d6000803e3d6000fd5b5050505050836001600160a01b0316876001600160a01b0316336001600160a01b0316600080516020613f8b833981519152898988604051611bce93929190613c35565b60405180910390a45050611a1660018055565b611be96128f7565b610a39612b89565b611bf9611e0e565b6001600160a01b0316336001600160a01b031614611c2c57336040516335fdcccd60e21b81526004016106499190613495565b611c3d611c3882613db9565b612bcc565b50565b611c486128f7565b6001600160a01b03909116600090815260046020526040902055565b611c6c6128f7565b60008111611cb45760405162461bcd60e51b815260206004820152601560248201527405468726573686f6c64206d757374206265203e203605c1b6044820152606401610649565b600254811115611d105760405162461bcd60e51b815260206004820152602160248201527f5468726573686f6c6420657863656564732076616c696461746f7220636f756e6044820152601d60fa1b6064820152608401610649565b60038190556040518181527fadfa8ecb21b6962ebcd0adbd9ab985b7b4c5b5eb3b0dead683171565c7bfe171906020015b60405180910390a150565b611d546128f7565b80471015611da45760405162461bcd60e51b815260206004820152601b60248201527f496e73756666696369656e74206e61746976652062616c616e636500000000006044820152606401610649565b600080546040516001600160a01b039091169183156108fc02918491818181858888f19350505050158015611ddd573d6000803e3d6000fd5b506040518181527fad5f18c0d8f4785a3cfdaf17d461835d0449fdf84982519bfd588a14a329b85090602001611d41565b7f000000000000000000000000000000000000000000000000000000000000000090565b611e3a6129fb565b611e42612a43565b60008111611e925760405162461bcd60e51b815260206004820152601c60248201527f416d6f756e7420746f20627269646765206d757374206265203e2030000000006044820152606401610649565b6001600160a01b038216611eb85760405162461bcd60e51b815260040161064990613c5d565b604080516001600160a01b0384166020820152808201839052600060608201819052608080830182905283518084039091018152600160a0840181815260e085019095529093919260c0015b6040805180820190915260008082526020820152815260200190600190039081611f04579050509050604051806040016040528060006001600160a01b031681526020018481525081600081518110611f5f57611f5f6139f1565b602002602001018190525060006040518060a0016040528087604051602001611f889190613495565b604051602081830303815290604052815260200184815260200183815260200160006001600160a01b03168152602001611fd2604051806020016040528062030d40815250612afa565b905290506000611fe0611e0e565b6001600160a01b03166320487ded89846040518363ffffffff1660e01b815260040161200d929190613b5c565b602060405180830381865afa15801561202a573d6000803e3d6000fd5b505050506040513d601f19601f8201168201806040525081019061204e9190613a82565b9050612058611e0e565b6001600160a01b03166396f4e9f9348a856040518463ffffffff1660e01b8152600401612086929190613b5c565b60206040518083038185885af11580156120a4573d6000803e3d6000fd5b50505050506040513d601f19601f820116820180604052508101906120c99190613a82565b50604080518681526001600160401b038a1660208201526001600160a01b038981168284015288166060820152905133917f05e6bad01423304d62a6a84b4552a893086d9b916f944a706715a369d2c56f03919081900360800190a261212f85826139de565b34111561217957336108fc866121458434613a07565b61214f9190613a07565b6040518115909202916000818181858888f19350505050158015612177573d6000803e3d6000fd5b505b5050505061218660018055565b50505050565b6121946128f7565b6001600160a01b0381166121f95760405162461bcd60e51b815260206004820152602660248201527f4f776e61626c653a206e6577206f776e657220697320746865207a65726f206160448201526564647265737360d01b6064820152608401610649565b611c3d81612b39565b6000805b60025481101561226257826001600160a01b03166002828154811061222d5761222d6139f1565b6000918252602090912001546001600160a01b0316036122505750600192915050565b8061225a81613a69565b915050612206565b50600092915050565b6000806122c5856040517f19457468657265756d205369676e6564204d6573736167653a0a3332000000006020820152603c8101829052600090605c01604051602081830303815290604052805190602001209050919050565b905060008060006122d587612f13565b925092509250856001600160a01b031660018583868660405160008152602001604052604051612321949392919093845260ff9290921660208401526040830152606082015260800190565b6020604051602081039080840390855afa158015612343573d6000803e3d6000fd5b505050602060405103516001600160a01b0316149450505050509392505050565b60008181526009602052604090205460ff16156123935760405162461bcd60e51b815260040161064990613e65565b6000818152600860205260408082208151608081019092528054829082906123ba90613889565b80601f01602080910402602001604051908101604052809291908181526020018280546123e690613889565b80156124335780601f1061240857610100808354040283529160200191612433565b820191906000526020600020905b81548152906001019060200180831161241657829003601f168201915b5050509183525050600182015460208083019190915260029092015460ff8116604083015261010090046001600160a01b03166060909101528101519091506124af5760405162461bcd60e51b815260206004820152600e60248201526d125b9d985b1a5908185b5bdd5b9d60921b6044820152606401610649565b805151601411156124d25760405162461bcd60e51b8152600401610649906137c7565b80516000906124e090613e98565b60601c9050806125295760405162461bcd60e51b8152602060048201526014602482015273496e76616c69642075736572206164647265737360601b6044820152606401610649565b600083815260096020526040808220805460ff1916600117905583015160ff1690036126ab5781602001514710156125ad5760405162461bcd60e51b815260206004820152602160248201527f496e73756666696369656e74206e617469766520746f6b656e2062616c616e636044820152606560f81b6064820152608401610649565b60208201516040516000916001600160a01b038416918381818185875af1925050503d80600081146125fb576040519150601f19603f3d011682016040523d82523d6000602084013e612600565b606091505b50509050806126515760405162461bcd60e51b815260206004820152601b60248201527f4661696c656420746f2073656e64206e617469766520746f6b656e00000000006044820152606401610649565b82516040516126609190613ed4565b60405180910390207fddacf213abda7d34234d90da4af1808b7c2c2629f4ae3bb67ba9d5d93369f17e846020015160405161269d91815260200190565b60405180910390a250612813565b816040015160ff166001036127fb5760608201516001600160a01b03166126e45760405162461bcd60e51b81526004016106499061382a565b816020015182606001516001600160a01b03166370a08231306040518263ffffffff1660e01b81526004016127199190613495565b602060405180830381865afa158015612736573d6000803e3d6000fd5b505050506040513d601f19601f8201168201806040525081019061275a9190613a82565b10156127785760405162461bcd60e51b815260040161064990613ef0565b61279e81836020015184606001516001600160a01b03166129a09092919063ffffffff16565b81516040516127ad9190613ed4565b60405180910390207f2b8840b19df0fd5edc54ff2cb07b13b5a21c90d4b8af65b92d66a1b4b069055d836060015184602001516040516127ee929190613a9b565b60405180910390a2612813565b60405162461bcd60e51b815260040161064990613859565b60008381526008602052604081209061282c8282613247565b50600060018201819055600290910180546001600160a81b03191690558381526007602052604081208190555b6002548110156128c65760008481526006602052604081206002805491929184908110612888576128886139f1565b60009182526020808320909101546001600160a01b031683528201929092526040019020805460ff19169055806128be81613a69565b915050612859565b5060405183907fa74c8847d513feba22a0f0cb38d53081abf97562cdb293926ba243689e7c41ca90600090a2505050565b6000546001600160a01b03163314610a395760405162461bcd60e51b815260206004820181905260248201527f4f776e61626c653a2063616c6c6572206973206e6f7420746865206f776e65726044820152606401610649565b612959612f97565b6000805460ff60a01b191690557f5db9ee0a495bf2e6ff9c91a7834c1ba4fdd244a5e8aa4e537bd38aeae4b073aa335b6040516129969190613495565b60405180910390a1565b6129f68363a9059cbb60e01b84846040516024016129bf929190613a9b565b60408051601f198184030181529190526020810180516001600160e01b03166001600160e01b031990931692909217909152612fe2565b505050565b612a03611734565b15610a395760405162461bcd60e51b815260206004820152601060248201526f14185d5cd8589b194e881c185d5cd95960821b6044820152606401610649565b600260015403612a955760405162461bcd60e51b815260206004820152601f60248201527f5265656e7472616e637947756172643a207265656e7472616e742063616c6c006044820152606401610649565b6002600155565b60405181516024820152602082015115156044820152606090630181dcf160e41b906064015b60408051601f198184030181529190526020810180516001600160e01b03166001600160e01b03199093169290921790915292915050565b604051815160248201526060906397a657c960e01b90604401612ac2565b612186846323b872dd60e01b8585856040516024016129bf93929190613adf565b600080546001600160a01b038381166001600160a01b0319831681178455604051919092169283917f8be0079c531659141344cd1fd0a4f28419497f9722a3daafe3b4186f6b6457e09190a35050565b612b916129fb565b6000805460ff60a01b1916600160a01b1790557f62e78cea01bee320cd4e420270b5ea74000d11b0c9f74754ebdbfc544b05a2586129893390565b612bd46129fb565b612bdc612a43565b805160008181526009602052604090205460ff1615612c0d5760405162461bcd60e51b815260040161064990613e65565b60008181526009602090815260408220805460ff191660011790556060840151805183928392612c4292810182019101613f27565b92509250925060008111612c685760405162461bcd60e51b8152600401610649906137fe565b6000828152600560209081526040918290205482518581526001600160a01b0390911691810182905290917f43cb3663146f3147f9185b890808a814c1de11cc0dbbfa91c33f6afec0403f31910160405180910390a16001600160a01b038116612ce45760405162461bcd60e51b815260040161064990613ab4565b6040516370a0823160e01b81526000906001600160a01b038316906370a0823190612d13903090600401613495565b602060405180830381865afa158015612d30573d6000803e3d6000fd5b505050506040513d601f19601f82011682018060405250810190612d549190613a82565b905082811015612d765760405162461bcd60e51b815260040161064990613ef0565b612d8a6001600160a01b03831686856129a0565b83856001600160a01b03167ff0b66de88c63ce17f906ba7a4d0f096a8d34b91eec0610fff882576110aed0a584868a604051612dc893929190613b25565b60405180910390a37f7cce8063e0a541e7513d83f745b856b4b873ddca21c1420f2a87fcb802ad9841858385856001600160a01b03166370a08231306040518263ffffffff1660e01b8152600401612e209190613495565b602060405180830381865afa158015612e3d573d6000803e3d6000fd5b505050506040513d601f19601f82011682018060405250810190612e619190613a82565b6040516370a0823160e01b81526001600160a01b038816906370a0823190612e8d908d90600401613495565b602060405180830381865afa158015612eaa573d6000803e3d6000fd5b505050506040513d601f19601f82011682018060405250810190612ece9190613a82565b604080516001600160a01b039687168152959094166020860152928401919091526060830152608082015260a00160405180910390a1505050505050611c3d60018055565b60008060008351604114612f645760405162461bcd60e51b8152602060048201526018602482015277092dcecc2d8d2c840e6d2cedcc2e8eae4ca40d8cadccee8d60431b6044820152606401610649565b50505060208101516040820151606083015160001a601b811015612f9057612f8d601b82613f5e565b90505b9193909250565b612f9f611734565b610a395760405162461bcd60e51b815260206004820152601460248201527314185d5cd8589b194e881b9bdd081c185d5cd95960621b6044820152606401610649565b6000613037826040518060400160405280602081526020017f5361666545524332303a206c6f772d6c6576656c2063616c6c206661696c6564815250856001600160a01b03166130b79092919063ffffffff16565b90508051600014806130585750808060200190518101906130589190613b03565b6129f65760405162461bcd60e51b815260206004820152602a60248201527f5361666545524332303a204552433230206f7065726174696f6e20646964206e6044820152691bdd081cdd58d8d9595960b21b6064820152608401610649565b60606130c684846000856130ce565b949350505050565b60608247101561312f5760405162461bcd60e51b815260206004820152602660248201527f416464726573733a20696e73756666696369656e742062616c616e636520666f6044820152651c8818d85b1b60d21b6064820152608401610649565b600080866001600160a01b0316858760405161314b9190613ed4565b60006040518083038185875af1925050503d8060008114613188576040519150601f19603f3d011682016040523d82523d6000602084013e61318d565b606091505b509150915061319e878383876131a9565b979650505050505050565b60608315613218578251600003613211576001600160a01b0385163b6132115760405162461bcd60e51b815260206004820152601d60248201527f416464726573733a2063616c6c20746f206e6f6e2d636f6e74726163740000006044820152606401610649565b50816130c6565b6130c6838381511561322d5781518083602001fd5b8060405162461bcd60e51b81526004016106499190613f77565b50805461325390613889565b6000825580601f10613263575050565b601f016020900490600052602060002090810190611c3d91905b80821115613291576000815560010161327d565b5090565b6000602082840312156132a757600080fd5b81356001600160e01b0319811681146132bf57600080fd5b9392505050565b634e487b7160e01b600052604160045260246000fd5b604080519081016001600160401b03811182821017156132fe576132fe6132c6565b60405290565b60405160a081016001600160401b03811182821017156132fe576132fe6132c6565b604051601f8201601f191681016001600160401b038111828210171561334e5761334e6132c6565b604052919050565b600082601f83011261336757600080fd5b81356001600160401b03811115613380576133806132c6565b613393601f8201601f1916602001613326565b8181528460208386010111156133a857600080fd5b816020850160208301376000918101602001919091529392505050565b6001600160a01b0381168114611c3d57600080fd5b60008060008060008060c087890312156133f357600080fd5b8635955060208701356001600160401b038082111561341157600080fd5b61341d8a838b01613356565b9650604089013591508082111561343357600080fd5b5061344089828a01613356565b94505060608701359250608087013560ff8116811461345e57600080fd5b915060a087013561346e816133c5565b809150509295509295509295565b60006020828403121561348e57600080fd5b5035919050565b6001600160a01b0391909116815260200190565b60005b838110156134c45781810151838201526020016134ac565b50506000910152565b600081518084526134e58160208601602086016134a9565b601f01601f19169290920160200192915050565b60808152600061350c60808301876134cd565b60208301959095525060ff9290921660408301526001600160a01b0316606090910152919050565b60006020828403121561354657600080fd5b81356132bf816133c5565b6000806040838503121561356457600080fd5b823561356f816133c5565b946020939093013593505050565b80356001600160401b038116811461359457600080fd5b919050565b80356002811061359457600080fd5b60008060008060008060c087890312156135c157600080fd5b86356135cc816133c5565b95506135da6020880161357d565b945060408701356135ea816133c5565b935060608701356135fa816133c5565b92506080870135915061360f60a08801613599565b90509295509295509295565b6000806040838503121561362e57600080fd5b823591506020830135613640816133c5565b809150509250929050565b60008060008060008060c0878903121561366457600080fd5b61366d8761357d565b9550602087013561367d816133c5565b945060408701356001600160401b0381111561369857600080fd5b6136a489828a01613356565b9450506136b360608801613599565b925060808701356136c3816133c5565b8092505060a087013590509295509295509295565b600080600080600060a086880312156136f057600080fd5b85356136fb816133c5565b9450602086013593506137106040870161357d565b92506060860135613720816133c5565b91506080860135613730816133c5565b809150509295509295909350565b60006020828403121561375057600080fd5b81356001600160401b0381111561376657600080fd5b820160a081850312156132bf57600080fd5b6000806000806080858703121561378e57600080fd5b6137978561357d565b935060208501356137a7816133c5565b925060408501356137b7816133c5565b9396929550929360600135925050565b6020808252601b908201527f496e76616c696420757365722061646472657373206c656e6774680000000000604082015260600190565b6020808252601290820152710416d6f756e74206d757374206265203e20360741b604082015260600190565b602080825260159082015274496e76616c696420746f6b656e206164647265737360581b604082015260600190565b602080825260169082015275556e737570706f7274656420746f6b656e207479706560501b604082015260600190565b600181811c9082168061389d57607f821691505b6020821081036138bd57634e487b7160e01b600052602260045260246000fd5b50919050565b601f8211156129f657600081815260208120601f850160051c810160208610156138ea5750805b601f850160051c820191505b8181101561093a578281556001016138f6565b81516001600160401b03811115613922576139226132c6565b613936816139308454613889565b846138c3565b602080601f83116001811461396b57600084156139535750858301515b600019600386901b1c1916600185901b17855561093a565b600085815260208120601f198616915b8281101561399a5788860151825594840194600190910190840161397b565b50858210156139b85787850151600019600388901b60f8161c191681555b5050505050600190811b01905550565b634e487b7160e01b600052601160045260246000fd5b80820180821115610602576106026139c8565b634e487b7160e01b600052603260045260246000fd5b81810381811115610602576106026139c8565b634e487b7160e01b600052603160045260246000fd5b8082028115828204841417610602576106026139c8565b600082613a6457634e487b7160e01b600052601260045260246000fd5b500490565b600060018201613a7b57613a7b6139c8565b5060010190565b600060208284031215613a9457600080fd5b5051919050565b6001600160a01b03929092168252602082015260400190565b6020808252601190820152702ab739bab83837b93a32b2103a37b5b2b760791b604082015260600190565b6001600160a01b039384168152919092166020820152604081019190915260600190565b600060208284031215613b1557600080fd5b815180151581146132bf57600080fd5b6001600160a01b039390931683526020830191909152604082015260600190565b634e487b7160e01b600052602160045260246000fd5b600060406001600160401b038516835260208181850152845160a083860152613b8860e08601826134cd565b905081860151603f1980878403016060880152613ba583836134cd565b88860151888203830160808a01528051808352908601945060009350908501905b80841015613bf857845180516001600160a01b0316835286015186830152938501936001939093019290860190613bc6565b5060608901516001600160a01b031660a08901526080890151888203830160c08a01529550613c2781876134cd565b9a9950505050505050505050565b9283526001600160401b039190911660208301526001600160a01b0316604082015260600190565b60208082526029908201527f44657374696e6174696f6e2077616c6c657420616464726573732063616e6e6f60408201526874206265207a65726f60b81b606082015260800190565b600060018060a01b03808816835261ffff8716602084015285604084015284606084015260a060808401528084511660a08401528060208501511660c0840152506040830151606060e0840152613d016101008401826134cd565b98975050505050505050565b600082601f830112613d1e57600080fd5b813560206001600160401b03821115613d3957613d396132c6565b613d47818360051b01613326565b82815260069290921b84018101918181019086841115613d6657600080fd5b8286015b84811015613dae5760408189031215613d835760008081fd5b613d8b6132dc565b8135613d96816133c5565b81528185013585820152835291830191604001613d6a565b509695505050505050565b600060a08236031215613dcb57600080fd5b613dd3613304565b82358152613de36020840161357d565b602082015260408301356001600160401b0380821115613e0257600080fd5b613e0e36838701613356565b60408401526060850135915080821115613e2757600080fd5b613e3336838701613356565b60608401526080850135915080821115613e4c57600080fd5b50613e5936828601613d0d565b60808301525092915050565b60208082526019908201527813595cdcd859d948185b1c9958591e481c1c9bd8d95cdcd959603a1b604082015260600190565b805160208201516bffffffffffffffffffffffff198082169291906014831015613ecc5780818460140360031b1b83161693505b505050919050565b60008251613ee68184602087016134a9565b9190910192915050565b6020808252601a908201527f496e73756666696369656e742045524332302062616c616e6365000000000000604082015260600190565b600080600060608486031215613f3c57600080fd5b8351613f47816133c5565b602085015160409095015190969495509392505050565b60ff8181168382160190811115610602576106026139c8565b6020815260006132bf60208301846134cd56fe4b62de1390f9d38ddc2e85d18b6221446770ad70dc912c4f9beefc4c4fcefb9a860fab49fdadbdbe734e78cb9bc1a5f504e2d1d356c9930aef6e010448db52b9a2646970667358221220998d5c3dcc62c7a2177ea9408966ccb9d3fe9475d22ccabcce2d8d318bc49b9e64736f6c63430008140033",
  "linkReferences": {},
  "deployedLinkReferences": {}
}