{
  "_format": "hh-sol-artifact-1",
  "contractName": "NativeBridge",
  "sourceName": "contracts/NativeBridge.sol",
  "abi": [
    {
      "inputs": [
        {
          "internalType": "address",
          "name": "_ccipRouter",
          "type": "address"
        },
        {
          "internalType": "uint256",
          "name": "_minCCIPFee",
          "type": "uint256"
        },
        {
          "internalType": "uint256",
          "name": "_maxCCIPFee",
          "type": "uint256"
        },
        {
          "internalType": "address[]",
          "name": "_validators",
          "type": "address[]"
        },
        {
          "internalType": "uint256",
          "name": "_threshold",
          "type": "uint256"
        }
      ],
      "stateMutability": "nonpayable",
      "type": "constructor"
    },
    {
      "inputs": [
        {
          "internalType": "address",
          "name": "router",
          "type": "address"
        }
      ],
      "name": "InvalidRouter",
      "type": "error"
    },
    {
      "anonymous": false,
      "inputs": [
        {
          "indexed": true,
          "internalType": "bytes32",
          "name": "messageHash",
          "type": "bytes32"
        }
      ],
      "name": "Executed",
      "type": "event"
    },
    {
      "anonymous": false,
      "inputs": [
        {
          "indexed": true,
          "internalType": "address",
          "name": "sender",
          "type": "address"
        },
        {
          "indexed": false,
          "internalType": "address",
          "name": "token",
          "type": "address"
        },
        {
          "indexed": false,
          "internalType": "uint256",
          "name": "amount",
          "type": "uint256"
        },
        {
          "indexed": false,
          "internalType": "uint64",
          "name": "destChainId",
          "type": "uint64"
        },
        {
          "indexed": false,
          "internalType": "bytes",
          "name": "destAddress",
          "type": "bytes"
        },
        {
          "indexed": false,
          "internalType": "bytes",
          "name": "desWalletAddress",
          "type": "bytes"
        }
      ],
      "name": "LockedERC20",
      "type": "event"
    },
    {
      "anonymous": false,
      "inputs": [
        {
          "indexed": true,
          "internalType": "address",
          "name": "sender",
          "type": "address"
        },
        {
          "indexed": false,
          "internalType": "uint256",
          "name": "amount",
          "type": "uint256"
        },
        {
          "indexed": false,
          "internalType": "uint64",
          "name": "destChainId",
          "type": "uint64"
        },
        {
          "indexed": false,
          "internalType": "bytes",
          "name": "destAddress",
          "type": "bytes"
        },
        {
          "indexed": false,
          "internalType": "bytes",
          "name": "desWalletAddress",
          "type": "bytes"
        }
      ],
      "name": "LockedNative",
      "type": "event"
    },
    {
      "anonymous": false,
      "inputs": [
        {
          "indexed": false,
          "internalType": "uint256",
          "name": "newMaxFee",
          "type": "uint256"
        }
      ],
      "name": "MaxCCIPFeeUpdated",
      "type": "event"
    },
    {
      "anonymous": false,
      "inputs": [
        {
          "indexed": false,
          "internalType": "bytes",
          "name": "user",
          "type": "bytes"
        },
        {
          "indexed": false,
          "internalType": "uint256",
          "name": "amount",
          "type": "uint256"
        },
        {
          "indexed": false,
          "internalType": "uint8",
          "name": "tokenType",
          "type": "uint8"
        },
        {
          "indexed": false,
          "internalType": "address",
          "name": "tokenAddress",
          "type": "address"
        },
        {
          "indexed": false,
          "internalType": "bytes32",
          "name": "messageId",
          "type": "bytes32"
        }
      ],
      "name": "MessageReceived",
      "type": "event"
    },
    {
      "anonymous": false,
      "inputs": [
        {
          "indexed": false,
          "internalType": "uint256",
          "name": "newMinFee",
          "type": "uint256"
        }
      ],
      "name": "MinCCIPFeeUpdated",
      "type": "event"
    },
    {
      "anonymous": false,
      "inputs": [
        {
          "indexed": true,
          "internalType": "address",
          "name": "previousOwner",
          "type": "address"
        },
        {
          "indexed": true,
          "internalType": "address",
          "name": "newOwner",
          "type": "address"
        }
      ],
      "name": "OwnershipTransferred",
      "type": "event"
    },
    {
      "anonymous": false,
      "inputs": [
        {
          "indexed": false,
          "internalType": "address",
          "name": "account",
          "type": "address"
        }
      ],
      "name": "Paused",
      "type": "event"
    },
    {
      "anonymous": false,
      "inputs": [
        {
          "indexed": false,
          "internalType": "address",
          "name": "token",
          "type": "address"
        },
        {
          "indexed": false,
          "internalType": "uint256",
          "name": "amount",
          "type": "uint256"
        }
      ],
      "name": "RescueERC20",
      "type": "event"
    },
    {
      "anonymous": false,
      "inputs": [
        {
          "indexed": false,
          "internalType": "uint256",
          "name": "amount",
          "type": "uint256"
        }
      ],
      "name": "RescueNative",
      "type": "event"
    },
    {
      "anonymous": false,
      "inputs": [
        {
          "indexed": true,
          "internalType": "bytes32",
          "name": "messageHash",
          "type": "bytes32"
        },
        {
          "indexed": true,
          "internalType": "address",
          "name": "signer",
          "type": "address"
        }
      ],
      "name": "SignatureSubmitted",
      "type": "event"
    },
    {
      "anonymous": false,
      "inputs": [
        {
          "indexed": false,
          "internalType": "uint256",
          "name": "newThreshold",
          "type": "uint256"
        }
      ],
      "name": "ThresholdUpdated",
      "type": "event"
    },
    {
      "anonymous": false,
      "inputs": [
        {
          "indexed": true,
          "internalType": "bytes",
          "name": "user",
          "type": "bytes"
        },
        {
          "indexed": false,
          "internalType": "address",
          "name": "tokenAddr",
          "type": "address"
        },
        {
          "indexed": false,
          "internalType": "uint256",
          "name": "amount",
          "type": "uint256"
        }
      ],
      "name": "UnlockedERC20",
      "type": "event"
    },
    {
      "anonymous": false,
      "inputs": [
        {
          "indexed": true,
          "internalType": "bytes",
          "name": "user",
          "type": "bytes"
        },
        {
          "indexed": false,
          "internalType": "uint256",
          "name": "amount",
          "type": "uint256"
        }
      ],
      "name": "UnlockedNative",
      "type": "event"
    },
    {
      "anonymous": false,
      "inputs": [
        {
          "indexed": false,
          "internalType": "address",
          "name": "account",
          "type": "address"
        }
      ],
      "name": "Unpaused",
      "type": "event"
    },
    {
      "anonymous": false,
      "inputs": [
        {
          "indexed": true,
          "internalType": "address",
          "name": "validator",
          "type": "address"
        }
      ],
      "name": "ValidatorAdded",
      "type": "event"
    },
    {
      "anonymous": false,
      "inputs": [
        {
          "indexed": true,
          "internalType": "address",
          "name": "validator",
          "type": "address"
        }
      ],
      "name": "ValidatorRemoved",
      "type": "event"
    },
    {
      "stateMutability": "payable",
      "type": "fallback"
    },
    {
      "inputs": [
        {
          "internalType": "address",
          "name": "validator",
          "type": "address"
        }
      ],
      "name": "addValidator",
      "outputs": [],
      "stateMutability": "nonpayable",
      "type": "function"
    },
    {
      "inputs": [
        {
          "components": [
            {
              "internalType": "bytes32",
              "name": "messageId",
              "type": "bytes32"
            },
            {
              "internalType": "uint64",
              "name": "sourceChainSelector",
              "type": "uint64"
            },
            {
              "internalType": "bytes",
              "name": "sender",
              "type": "bytes"
            },
            {
              "internalType": "bytes",
              "name": "data",
              "type": "bytes"
            },
            {
              "components": [
                {
                  "internalType": "address",
                  "name": "token",
                  "type": "address"
                },
                {
                  "internalType": "uint256",
                  "name": "amount",
                  "type": "uint256"
                }
              ],
              "internalType": "struct Client.EVMTokenAmount[]",
              "name": "destTokenAmounts",
              "type": "tuple[]"
            }
          ],
          "internalType": "struct Client.Any2EVMMessage",
          "name": "message",
          "type": "tuple"
        }
      ],
      "name": "ccipReceive",
      "outputs": [],
      "stateMutability": "nonpayable",
      "type": "function"
    },
    {
      "inputs": [],
      "name": "getRouter",
      "outputs": [
        {
          "internalType": "address",
          "name": "",
          "type": "address"
        }
      ],
      "stateMutability": "view",
      "type": "function"
    },
    {
      "inputs": [],
      "name": "getValidatorCount",
      "outputs": [
        {
          "internalType": "uint256",
          "name": "",
          "type": "uint256"
        }
      ],
      "stateMutability": "view",
      "type": "function"
    },
    {
      "inputs": [
        {
          "internalType": "contract IERC20",
          "name": "token",
          "type": "address"
        },
        {
          "internalType": "uint256",
          "name": "amountToBridge",
          "type": "uint256"
        },
        {
          "internalType": "uint64",
          "name": "destChainSelector",
          "type": "uint64"
        },
        {
          "internalType": "bytes",
          "name": "destAddress",
          "type": "bytes"
        },
        {
          "internalType": "bytes",
          "name": "desWalletAddress",
          "type": "bytes"
        }
      ],
      "name": "lockERC20",
      "outputs": [],
      "stateMutability": "payable",
      "type": "function"
    },
    {
      "inputs": [
        {
          "internalType": "uint64",
          "name": "destChainSelector",
          "type": "uint64"
        },
        {
          "internalType": "bytes",
          "name": "destAddress",
          "type": "bytes"
        },
        {
          "internalType": "bytes",
          "name": "desWalletAddress",
          "type": "bytes"
        },
        {
          "internalType": "uint256",
          "name": "amountToBridge",
          "type": "uint256"
        }
      ],
      "name": "lockNative",
      "outputs": [],
      "stateMutability": "payable",
      "type": "function"
    },
    {
      "inputs": [
        {
          "internalType": "contract OFTV2",
          "name": "oftToken",
          "type": "address"
        },
        {
          "internalType": "uint256",
          "name": "amountToBridge",
          "type": "uint256"
        },
        {
          "internalType": "uint64",
          "name": "destChainId",
          "type": "uint64"
        },
        {
          "internalType": "bytes",
          "name": "destAddress",
          "type": "bytes"
        },
        {
          "internalType": "bytes",
          "name": "desWalletAddress",
          "type": "bytes"
        }
      ],
      "name": "lockOFT",
      "outputs": [],
      "stateMutability": "payable",
      "type": "function"
    },
    {
      "inputs": [],
      "name": "maxCCIPFee",
      "outputs": [
        {
          "internalType": "uint256",
          "name": "",
          "type": "uint256"
        }
      ],
      "stateMutability": "view",
      "type": "function"
    },
    {
      "inputs": [
        {
          "internalType": "bytes32",
          "name": "",
          "type": "bytes32"
        }
      ],
      "name": "messageData",
      "outputs": [
        {
          "internalType": "bytes",
          "name": "user",
          "type": "bytes"
        },
        {
          "internalType": "uint256",
          "name": "amount",
          "type": "uint256"
        },
        {
          "internalType": "uint8",
          "name": "tokenType",
          "type": "uint8"
        },
        {
          "internalType": "address",
          "name": "tokenAddr",
          "type": "address"
        }
      ],
      "stateMutability": "view",
      "type": "function"
    },
    {
      "inputs": [],
      "name": "minCCIPFee",
      "outputs": [
        {
          "internalType": "uint256",
          "name": "",
          "type": "uint256"
        }
      ],
      "stateMutability": "view",
      "type": "function"
    },
    {
      "inputs": [],
      "name": "owner",
      "outputs": [
        {
          "internalType": "address",
          "name": "",
          "type": "address"
        }
      ],
      "stateMutability": "view",
      "type": "function"
    },
    {
      "inputs": [],
      "name": "pause",
      "outputs": [],
      "stateMutability": "nonpayable",
      "type": "function"
    },
    {
      "inputs": [],
      "name": "paused",
      "outputs": [
        {
          "internalType": "bool",
          "name": "",
          "type": "bool"
        }
      ],
      "stateMutability": "view",
      "type": "function"
    },
    {
      "inputs": [
        {
          "internalType": "bytes32",
          "name": "",
          "type": "bytes32"
        }
      ],
      "name": "processedMessages",
      "outputs": [
        {
          "internalType": "bool",
          "name": "",
          "type": "bool"
        }
      ],
      "stateMutability": "view",
      "type": "function"
    },
    {
      "inputs": [
        {
          "internalType": "address",
          "name": "validator",
          "type": "address"
        }
      ],
      "name": "removeValidator",
      "outputs": [],
      "stateMutability": "nonpayable",
      "type": "function"
    },
    {
      "inputs": [],
      "name": "renounceOwnership",
      "outputs": [],
      "stateMutability": "nonpayable",
      "type": "function"
    },
    {
      "inputs": [
        {
          "internalType": "contract IERC20",
          "name": "token",
          "type": "address"
        },
        {
          "internalType": "uint256",
          "name": "amount",
          "type": "uint256"
        }
      ],
      "name": "rescueERC20",
      "outputs": [],
      "stateMutability": "nonpayable",
      "type": "function"
    },
    {
      "inputs": [
        {
          "internalType": "uint256",
          "name": "amount",
          "type": "uint256"
        }
      ],
      "name": "rescueNative",
      "outputs": [],
      "stateMutability": "nonpayable",
      "type": "function"
    },
    {
      "inputs": [
        {
          "internalType": "uint256",
          "name": "newMaxFee",
          "type": "uint256"
        }
      ],
      "name": "setMaxCCIPFee",
      "outputs": [],
      "stateMutability": "nonpayable",
      "type": "function"
    },
    {
      "inputs": [
        {
          "internalType": "uint256",
          "name": "newMinFee",
          "type": "uint256"
        }
      ],
      "name": "setMinCCIPFee",
      "outputs": [],
      "stateMutability": "nonpayable",
      "type": "function"
    },
    {
      "inputs": [
        {
          "internalType": "uint256",
          "name": "newThreshold",
          "type": "uint256"
        }
      ],
      "name": "setThreshold",
      "outputs": [],
      "stateMutability": "nonpayable",
      "type": "function"
    },
    {
      "inputs": [
        {
          "internalType": "bytes32",
          "name": "",
          "type": "bytes32"
        }
      ],
      "name": "signatureCount",
      "outputs": [
        {
          "internalType": "uint256",
          "name": "",
          "type": "uint256"
        }
      ],
      "stateMutability": "view",
      "type": "function"
    },
    {
      "inputs": [
        {
          "internalType": "bytes32",
          "name": "",
          "type": "bytes32"
        },
        {
          "internalType": "address",
          "name": "",
          "type": "address"
        }
      ],
      "name": "signatures",
      "outputs": [
        {
          "internalType": "bool",
          "name": "",
          "type": "bool"
        }
      ],
      "stateMutability": "view",
      "type": "function"
    },
    {
      "inputs": [
        {
          "internalType": "bytes32",
          "name": "messageHash",
          "type": "bytes32"
        },
        {
          "internalType": "bytes",
          "name": "signature",
          "type": "bytes"
        },
        {
          "internalType": "bytes",
          "name": "user",
          "type": "bytes"
        },
        {
          "internalType": "uint256",
          "name": "amount",
          "type": "uint256"
        },
        {
          "internalType": "uint8",
          "name": "tokenType",
          "type": "uint8"
        },
        {
          "internalType": "address",
          "name": "tokenAddr",
          "type": "address"
        }
      ],
      "name": "submitSignature",
      "outputs": [],
      "stateMutability": "nonpayable",
      "type": "function"
    },
    {
      "inputs": [
        {
          "internalType": "bytes4",
          "name": "interfaceId",
          "type": "bytes4"
        }
      ],
      "name": "supportsInterface",
      "outputs": [
        {
          "internalType": "bool",
          "name": "",
          "type": "bool"
        }
      ],
      "stateMutability": "view",
      "type": "function"
    },
    {
      "inputs": [],
      "name": "threshold",
      "outputs": [
        {
          "internalType": "uint256",
          "name": "",
          "type": "uint256"
        }
      ],
      "stateMutability": "view",
      "type": "function"
    },
    {
      "inputs": [
        {
          "internalType": "address",
          "name": "newOwner",
          "type": "address"
        }
      ],
      "name": "transferOwnership",
      "outputs": [],
      "stateMutability": "nonpayable",
      "type": "function"
    },
    {
      "inputs": [],
      "name": "unpause",
      "outputs": [],
      "stateMutability": "nonpayable",
      "type": "function"
    },
    {
      "inputs": [
        {
          "internalType": "uint256",
          "name": "",
          "type": "uint256"
        }
      ],
      "name": "validators",
      "outputs": [
        {
          "internalType": "address",
          "name": "",
          "type": "address"
        }
      ],
      "stateMutability": "view",
      "type": "function"
    },
    {
      "stateMutability": "payable",
      "type": "receive"
    }
  ],
  "bytecode": "0x60a06040523480156200001157600080fd5b5060405162003fd438038062003fd48339810160408190526200003491620002e9565b846001600160a01b03811662000065576040516335fdcccd60e21b8152600060048201526024015b60405180910390fd5b6001600160a01b03166080526200007c33620001e5565b6000805460ff60a01b19169055600180558151811115620000d45760405162461bcd60e51b8152602060048201526011602482015270125b9d985b1a59081d1a1c995cda1bdb19607a1b60448201526064016200005c565b82841115620001265760405162461bcd60e51b815260206004820181905260248201527f6d696e43434950466565206d757374206265203c3d206d61784343495046656560448201526064016200005c565b6002849055600383905581516200014590600490602085019062000235565b5060038251600262000158919062000406565b6200016590600262000426565b6200017191906200043c565b6005556040518481527feb51e6e8636eccb3cd774c6d003d601854fd48b1bc7f3a0d53431391b04a944c9060200160405180910390a16040518381527f9ae94256c27d03adb9e9d6e73d2654fb40de14f3d69bb8e61b5bd9d21653d06b9060200160405180910390a150505050506200045f565b600080546001600160a01b038381166001600160a01b0319831681178455604051919092169283917f8be0079c531659141344cd1fd0a4f28419497f9722a3daafe3b4186f6b6457e09190a35050565b8280548282559060005260206000209081019282156200028d579160200282015b828111156200028d57825182546001600160a01b0319166001600160a01b0390911617825560209092019160019091019062000256565b506200029b9291506200029f565b5090565b5b808211156200029b5760008155600101620002a0565b80516001600160a01b0381168114620002ce57600080fd5b919050565b634e487b7160e01b600052604160045260246000fd5b600080600080600060a086880312156200030257600080fd5b6200030d86620002b6565b602087810151604089015160608a01519398509096509450906001600160401b03808211156200033c57600080fd5b818901915089601f8301126200035157600080fd5b815181811115620003665762000366620002d3565b8060051b604051601f19603f830116810181811085821117156200038e576200038e620002d3565b60405291825284820192508381018501918c831115620003ad57600080fd5b938501935b82851015620003d657620003c685620002b6565b84529385019392850192620003b2565b809750505050505050608086015190509295509295909350565b634e487b7160e01b600052601160045260246000fd5b8082028115828204841417620004205762000420620003f0565b92915050565b80820180821115620004205762000420620003f0565b6000826200045a57634e487b7160e01b600052601260045260246000fd5b500490565b608051613b596200047b6000396000611b6a0152613b596000f3fe60806040526004361061017a5760003560e01c80638456cb59116100d15780639b04bc78116100825780639b04bc781461040c578063a7627f191461042c578063b0f479a11461043f578063b3cc026d14610454578063b50cadde14610481578063bfb550f314610497578063dc18fa95146104b7578063f2fde38b146104f257005b80638456cb591461033657806385572ffb1461034b57806388ba16ab1461036b5780638cd4426d1461039b5780638da5cb5b146103bb578063960bfe04146103d95780639a10646c146103f957005b806342cde4e81161012b57806342cde4e81461028e578063454aa669146102a45780634d238c8e146102c45780635c975abb146102e45780637071688a146102f9578063711a05cd1461030e578063715018a61461032157005b806301ffc9a7146101835780632dd43c18146101b857806335aa2e44146101d8578063395fc293146102055780633f4ba83a1461023557806340a141ff1461024a57806342b7f17a1461026a57005b3661018157005b005b34801561018f57600080fd5b506101a361019e366004612c6e565b610512565b60405190151581526020015b60405180910390f35b3480156101c457600080fd5b506101816101d3366004612dd0565b610549565b3480156101e457600080fd5b506101f86101f3366004612e6c565b6109d5565b6040516101af9190612e85565b34801561021157600080fd5b50610225610220366004612e6c565b6109ff565b6040516101af9493929190612ee9565b34801561024157600080fd5b50610181610abc565b34801561025657600080fd5b50610181610265366004612f24565b610ace565b34801561027657600080fd5b5061028060025481565b6040519081526020016101af565b34801561029a57600080fd5b5061028060055481565b3480156102b057600080fd5b506101816102bf366004612e6c565b610c97565b3480156102d057600080fd5b506101816102df366004612f24565b610d60565b3480156102f057600080fd5b506101a3610efc565b34801561030557600080fd5b50600454610280565b61018161031c366004612fa5565b610f0c565b34801561032d57600080fd5b5061018161116b565b34801561034257600080fd5b5061018161117d565b34801561035757600080fd5b50610181610366366004613041565b61118d565b34801561037757600080fd5b506101a3610386366004612e6c565b60096020526000908152604090205460ff1681565b3480156103a757600080fd5b506101816103b636600461307b565b6111dc565b3480156103c757600080fd5b506000546001600160a01b03166101f8565b3480156103e557600080fd5b506101816103f4366004612e6c565b61132a565b6101816104073660046130a7565b61140b565b34801561041857600080fd5b50610181610427366004612e6c565b6117db565b61018161043a366004612fa5565b61186a565b34801561044b57600080fd5b506101f8611b68565b34801561046057600080fd5b5061028061046f366004612e6c565b60076020526000908152604090205481565b34801561048d57600080fd5b5061028060035481565b3480156104a357600080fd5b506101816104b2366004612e6c565b611b8c565b3480156104c357600080fd5b506101a36104d236600461312f565b600660209081526000928352604080842090915290825290205460ff1681565b3480156104fe57600080fd5b5061018161050d366004612f24565b611c1b565b60006001600160e01b031982166385572ffb60e01b148061054357506001600160e01b031982166301ffc9a760e01b145b92915050565b61055233611c91565b6105935760405162461bcd60e51b815260206004820152600d60248201526c2737ba103b30b634b230ba37b960991b60448201526064015b60405180910390fd5b600086815260066020908152604080832033845290915290205460ff16156105ee5760405162461bcd60e51b815260206004820152600e60248201526d105b1c9958591e481cda59db995960921b604482015260640161058a565b6105f9868633611cfa565b6106395760405162461bcd60e51b8152602060048201526011602482015270496e76616c6964207369676e617475726560781b604482015260640161058a565b60008681526007602052604081205490036107eb576014845110156106705760405162461bcd60e51b815260040161058a9061315f565b600083116106905760405162461bcd60e51b815260040161058a90613196565b8160ff166001036106c6576001600160a01b0381166106c15760405162461bcd60e51b815260040161058a906131c2565b6106e7565b60ff8216156106e75760405162461bcd60e51b815260040161058a906131f1565b85848484846040516020016106ff9493929190612ee9565b60405160208183030381529060405280519060200120146107595760405162461bcd60e51b8152602060048201526014602482015273092dcecc2d8d2c840dacae6e6c2ceca40d0c2e6d60631b604482015260640161058a565b60408051608081018252858152602080820186905260ff8516828401526001600160a01b03841660608301526000898152600890915291909120815181906107a190826132a1565b50602082015160018201556040820151600290910180546060909301516001600160a01b0316610100026001600160a81b031990931660ff90921691909117919091179055610939565b60008681526008602052604080822081516080810190925280548290829061081290613221565b80601f016020809104026020016040519081016040528092919081815260200182805461083e90613221565b801561088b5780601f106108605761010080835404028352916020019161088b565b820191906000526020600020905b81548152906001019060200180831161086e57829003601f168201915b5050509183525050600182015460208083019190915260029092015460ff81166040808401919091526101009091046001600160a01b03166060909201919091525191925088916108e491889188918891889101612ee9565b60405160208183030381529060405280519060200120146109375760405162461bcd60e51b815260206004820152600d60248201526c088c2e8c240dad2e6dac2e8c6d609b1b604482015260640161058a565b505b60008681526006602090815260408083203384528252808320805460ff191660019081179091558984526007909252822080549192909161097b908490613376565b9091555050604051339087907f9fae4663050594146745d8ef909ace78285592fca37a57e4e551398fe43a9e6990600090a3600554600087815260076020526040902054106109cd576109cd86611df3565b505050505050565b600481815481106109e557600080fd5b6000918252602090912001546001600160a01b0316905081565b600860205260009081526040902080548190610a1a90613221565b80601f0160208091040260200160405190810160405280929190818152602001828054610a4690613221565b8015610a935780601f10610a6857610100808354040283529160200191610a93565b820191906000526020600020905b815481529060010190602001808311610a7657829003601f168201915b50505050600183015460029093015491929160ff8116915061010090046001600160a01b031684565b610ac46122f0565b610acc61234a565b565b610ad66122f0565b610adf81611c91565b610b215760405162461bcd60e51b815260206004820152601360248201527215985b1a59185d1bdc881b9bdd08199bdd5b99606a1b604482015260640161058a565b60005b600454811015610c9357816001600160a01b031660048281548110610b4b57610b4b613389565b6000918252602090912001546001600160a01b031603610c815760048054610b759060019061339f565b81548110610b8557610b85613389565b600091825260209091200154600480546001600160a01b039092169183908110610bb157610bb1613389565b9060005260206000200160006101000a8154816001600160a01b0302191690836001600160a01b031602179055506004805480610bf057610bf06133b2565b600082815260209020810160001990810180546001600160a01b0319169055019055600454610c20576000610c46565b600454600390610c319060026133c8565b610c3c906002613376565b610c4691906133df565b6005556040516001600160a01b038316907fe1434e25d6611e0db941968fdc97811c982ac1602e951637d206f5fdda9dd8f190600090a25050565b80610c8b81613401565b915050610b24565b5050565b610c9f6122f0565b80471015610cef5760405162461bcd60e51b815260206004820152601b60248201527f496e73756666696369656e74206e61746976652062616c616e63650000000000604482015260640161058a565b600080546040516001600160a01b039091169183156108fc02918491818181858888f19350505050158015610d28573d6000803e3d6000fd5b506040518181527feadf1d310e3d1080c8016fc34d54d2800df7f47929c597becaa0032f47132faf906020015b60405180910390a150565b610d686122f0565b6001600160a01b038116610dba5760405162461bcd60e51b8152602060048201526019602482015278496e76616c69642076616c696461746f72206164647265737360381b604482015260640161058a565b610dc381611c91565b15610e0b5760405162461bcd60e51b815260206004820152601860248201527756616c696461746f7220616c72656164792065786973747360401b604482015260640161058a565b60045460001911610e545760405162461bcd60e51b815260206004820152601360248201527215985b1a59185d1bdc881b1a5cdd08199d5b1b606a1b604482015260640161058a565b6004805460018101825560008290527f8a35acfbc15ff81a39ae7d344fd709f28e8600b4aa8c65c6b64bfe7fe36bd19b0180546001600160a01b0319166001600160a01b03841617905554600390610ead9060026133c8565b610eb8906002613376565b610ec291906133df565b6005556040516001600160a01b038216907fe366c1c0452ed8eec96861e9e54141ebff23c9ec89fe27b996b45f5ec388498790600090a250565b600054600160a01b900460ff1690565b610f14612399565b610f1c6123e1565b60008611610f3c5760405162461bcd60e51b815260040161058a90613196565b82610f595760405162461bcd60e51b815260040161058a9061341a565b6002543410158015610f6d57506003543411155b610f895760405162461bcd60e51b815260040161058a9061345d565b6001600160a01b038716610fd35760405162461bcd60e51b815260206004820152601160248201527024b73b30b634b21027a32a103a37b5b2b760791b604482015260640161058a565b8461ffff81166001600160401b038216146110275760405162461bcd60e51b815260206004820152601460248201527364657374436861696e4964206f766572666c6f7760601b604482015260640161058a565b60408051606081018252338152600060208083018290528351600160f01b9181019190915262030d406022820152909282019060420160408051601f1981840301815291815291525163695ef6bf60e01b81529091506001600160a01b038a169063695ef6bf9034906110a790339087906000908f908990600401613487565b6000604051808303818588803b1580156110c057600080fd5b505af11580156110d4573d6000803e3d6000fd5b5050505050336001600160a01b03167fcc9046082f9d4ac066bd51f2e23a018c1d0212330c869291d6d2bbe1b02fd5528a8a8a8a8a8a8a60405161111e9796959493929190613517565b60405180910390a234611156565b6040518115909202916000818181858888f19350505050158015611154573d6000803e3d6000fd5b505b50505061116260018055565b50505050505050565b6111736122f0565b610acc600061243a565b6111856122f0565b610acc61248a565b611195611b68565b6001600160a01b0316336001600160a01b0316146111c857336040516335fdcccd60e21b815260040161058a9190612e85565b6111d96111d48261361b565b6124cd565b50565b6111e46122f0565b6001600160a01b03821661120a5760405162461bcd60e51b815260040161058a906131c2565b6040516370a0823160e01b815281906001600160a01b038416906370a0823190611238903090600401612e85565b602060405180830381865afa158015611255573d6000803e3d6000fd5b505050506040513d601f19601f8201168201806040525081019061127991906136c7565b10156112c75760405162461bcd60e51b815260206004820152601a60248201527f496e73756666696369656e7420746f6b656e2062616c616e6365000000000000604482015260640161058a565b6112ed6112dc6000546001600160a01b031690565b6001600160a01b0384169083612816565b7f38d621fca5f81c9e528ee3fa95b55794df66c72f5d4dbbbf4ae94a2f0627a70b828260405161131e9291906136e0565b60405180910390a15050565b6113326122f0565b6000811161137a5760405162461bcd60e51b815260206004820152601560248201527405468726573686f6c64206d757374206265203e203605c1b604482015260640161058a565b6004548111156113d65760405162461bcd60e51b815260206004820152602160248201527f5468726573686f6c6420657863656564732076616c696461746f7220636f756e6044820152601d60fa1b606482015260840161058a565b60058190556040518181527fadfa8ecb21b6962ebcd0adbd9ab985b7b4c5b5eb3b0dead683171565c7bfe17190602001610d55565b611413612399565b61141b6123e1565b6000811161146b5760405162461bcd60e51b815260206004820152601c60248201527f416d6f756e7420746f20627269646765206d757374206265203e203000000000604482015260640161058a565b836114885760405162461bcd60e51b815260040161058a9061341a565b816114a55760405162461bcd60e51b815260040161058a906136f9565b6002546114b29082613376565b34101580156114cd57506003546114c99082613376565b3411155b6114e95760405162461bcd60e51b815260040161058a9061345d565b60006114f5823461339f565b90506000848484600080604051602001611513959493929190613743565b60408051808303601f190181526001808452838301909252925060009190816020015b6040805180820190915260008082526020820152815260200190600190039081611536579050509050604051806040016040528060006001600160a01b03168152602001858152508160008151811061159157611591613389565b602002602001018190525060006040518060a001604052808a8a8080601f0160208091040260200160405190810160405280939291908181526020018383808284376000920182905250938552505050602080830187905260408084018790526060840192909252815190810190915262030d40815260809091019061161690612871565b905290506000611624611b68565b6001600160a01b03166320487ded8c846040518363ffffffff1660e01b8152600401611651929190613780565b602060405180830381865afa15801561166e573d6000803e3d6000fd5b505050506040513d601f19601f8201168201806040525081019061169291906136c7565b9050808510156116b45760405162461bcd60e51b815260040161058a9061384b565b6116bc611b68565b6001600160a01b03166396f4e9f9348d856040518463ffffffff1660e01b81526004016116ea929190613780565b60206040518083038185885af1158015611708573d6000803e3d6000fd5b50505050506040513d601f19601f8201168201806040525081019061172d91906136c7565b50336001600160a01b03167f2bbe9d9f226f4764cac81f5ca3918805743bf2280d0ce076e56aa264f7aa2e1b878d8d8d8d8d60405161177196959493929190613875565b60405180910390a26117838682613376565b3411156117cd57336108fc87611799843461339f565b6117a3919061339f565b6040518115909202916000818181858888f193505050501580156117cb573d6000803e3d6000fd5b505b50505050506109cd60018055565b6117e36122f0565b6002548110156118355760405162461bcd60e51b815260206004820152601a60248201527f4d617820666565206d757374206265203e3d206d696e20666565000000000000604482015260640161058a565b60038190556040518181527f9ae94256c27d03adb9e9d6e73d2654fb40de14f3d69bb8e61b5bd9d21653d06b90602001610d55565b611872612399565b61187a6123e1565b6000861161189a5760405162461bcd60e51b815260040161058a90613196565b826118b75760405162461bcd60e51b815260040161058a9061341a565b806118d45760405162461bcd60e51b815260040161058a906136f9565b6001600160a01b0387166118fa5760405162461bcd60e51b815260040161058a906131c2565b61190f6001600160a01b0388163330896128ae565b600082828860018b60405160200161192b959493929190613743565b60408051601f1981840301815260c06020601f8901819004028401810190925260a083018781529093506000929182919089908990819085018382808284376000920182905250938552505050602080830186905260408051838152918201815290920191906119bd565b60408051808201909152600080825260208201528152602001906001900390816119965790505b50815260200160006001600160a01b031681526020016119ed604051806020016040528062030d40815250612871565b9052905060006119fb611b68565b6001600160a01b03166320487ded89846040518363ffffffff1660e01b8152600401611a28929190613780565b602060405180830381865afa158015611a45573d6000803e3d6000fd5b505050506040513d601f19601f82011682018060405250810190611a6991906136c7565b905080341015611a8b5760405162461bcd60e51b815260040161058a9061384b565b611a93611b68565b6001600160a01b03166396f4e9f9828a856040518463ffffffff1660e01b8152600401611ac1929190613780565b60206040518083038185885af1158015611adf573d6000803e3d6000fd5b50505050506040513d601f19601f82011682018060405250810190611b0491906136c7565b50336001600160a01b03167fcc9046082f9d4ac066bd51f2e23a018c1d0212330c869291d6d2bbe1b02fd5528b8b8b8b8b8b8b604051611b4a9796959493929190613517565b60405180910390a28034111561115657336108fc61112c833461339f565b7f000000000000000000000000000000000000000000000000000000000000000090565b611b946122f0565b600354811115611be65760405162461bcd60e51b815260206004820152601a60248201527f4d696e20666565206d757374206265203c3d206d617820666565000000000000604482015260640161058a565b60028190556040518181527feb51e6e8636eccb3cd774c6d003d601854fd48b1bc7f3a0d53431391b04a944c90602001610d55565b611c236122f0565b6001600160a01b038116611c885760405162461bcd60e51b815260206004820152602660248201527f4f776e61626c653a206e6577206f776e657220697320746865207a65726f206160448201526564647265737360d01b606482015260840161058a565b6111d98161243a565b6000805b600454811015611cf157826001600160a01b031660048281548110611cbc57611cbc613389565b6000918252602090912001546001600160a01b031603611cdf5750600192915050565b80611ce981613401565b915050611c95565b50600092915050565b600080611d54856040517f19457468657265756d205369676e6564204d6573736167653a0a3332000000006020820152603c8101829052600090605c01604051602081830303815290604052805190602001209050919050565b90506000806000611d64876128ec565b925092509250856001600160a01b031660018583868660405160008152602001604052604051611db0949392919093845260ff9290921660208401526040830152606082015260800190565b6020604051602081039080840390855afa158015611dd2573d6000803e3d6000fd5b505050602060405103516001600160a01b0316149450505050509392505050565b60008181526009602052604090205460ff1615611e225760405162461bcd60e51b815260040161058a906138be565b600081815260086020526040808220815160808101909252805482908290611e4990613221565b80601f0160208091040260200160405190810160405280929190818152602001828054611e7590613221565b8015611ec25780601f10611e9757610100808354040283529160200191611ec2565b820191906000526020600020905b815481529060010190602001808311611ea557829003601f168201915b5050509183525050600182015460208083019190915260029092015460ff8116604083015261010090046001600160a01b0316606090910152810151909150611f3e5760405162461bcd60e51b815260206004820152600e60248201526d125b9d985b1a5908185b5bdd5b9d60921b604482015260640161058a565b805151601414611f605760405162461bcd60e51b815260040161058a9061315f565b8051602001516001600160a01b031680611f8c5760405162461bcd60e51b815260040161058a906138f1565b600083815260096020526040808220805460ff1916600117905583015160ff1690036120a4578160200151471015611fd65760405162461bcd60e51b815260040161058a9061391f565b60208201516040516000916001600160a01b038416918381818185875af1925050503d8060008114612024576040519150601f19603f3d011682016040523d82523d6000602084013e612029565b606091505b505090508061204a5760405162461bcd60e51b815260040161058a90613960565b82516040516120599190613997565b60405180910390207fb92593ddb502b290f624dc88a0fbb4e2bc9adb1694d935cb7cb63e4739ae2472846020015160405161209691815260200190565b60405180910390a25061220c565b816040015160ff166001036121f45760608201516001600160a01b03166120dd5760405162461bcd60e51b815260040161058a906131c2565b816020015182606001516001600160a01b03166370a08231306040518263ffffffff1660e01b81526004016121129190612e85565b602060405180830381865afa15801561212f573d6000803e3d6000fd5b505050506040513d601f19601f8201168201806040525081019061215391906136c7565b10156121715760405162461bcd60e51b815260040161058a906139b3565b61219781836020015184606001516001600160a01b03166128169092919063ffffffff16565b81516040516121a69190613997565b60405180910390207f1711925c600063e8f61cd29d18cd4043af08318593446837b21f9e1a6682d85b836060015184602001516040516121e79291906136e0565b60405180910390a261220c565b60405162461bcd60e51b815260040161058a906131f1565b6000838152600860205260408120906122258282612c20565b50600060018201819055600290910180546001600160a81b03191690558381526007602052604081208190555b6004548110156122bf576000848152600660205260408120600480549192918490811061228157612281613389565b60009182526020808320909101546001600160a01b031683528201929092526040019020805460ff19169055806122b781613401565b915050612252565b5060405183907fa74c8847d513feba22a0f0cb38d53081abf97562cdb293926ba243689e7c41ca90600090a2505050565b6000546001600160a01b03163314610acc5760405162461bcd60e51b815260206004820181905260248201527f4f776e61626c653a2063616c6c6572206973206e6f7420746865206f776e6572604482015260640161058a565b612352612970565b6000805460ff60a01b191690557f5db9ee0a495bf2e6ff9c91a7834c1ba4fdd244a5e8aa4e537bd38aeae4b073aa335b60405161238f9190612e85565b60405180910390a1565b6123a1610efc565b15610acc5760405162461bcd60e51b815260206004820152601060248201526f14185d5cd8589b194e881c185d5cd95960821b604482015260640161058a565b6002600154036124335760405162461bcd60e51b815260206004820152601f60248201527f5265656e7472616e637947756172643a207265656e7472616e742063616c6c00604482015260640161058a565b6002600155565b600080546001600160a01b038381166001600160a01b0319831681178455604051919092169283917f8be0079c531659141344cd1fd0a4f28419497f9722a3daafe3b4186f6b6457e09190a35050565b612492612399565b6000805460ff60a01b1916600160a01b1790557f62e78cea01bee320cd4e420270b5ea74000d11b0c9f74754ebdbfc544b05a2586123823390565b6124d5612399565b6124dd6123e1565b805160008181526009602052604090205460ff161561250e5760405162461bcd60e51b815260040161058a906138be565b60008181526009602090815260408220805460ff191660011790556060840151805183928392839261254692908201810191016139ea565b9350935093509350835160141461256f5760405162461bcd60e51b815260040161058a9061315f565b6000831161258f5760405162461bcd60e51b815260040161058a90613196565b60148401516001600160a01b0381166125ba5760405162461bcd60e51b815260040161058a906138f1565b8260ff166000036126a657834710156125e55760405162461bcd60e51b815260040161058a9061391f565b6000816001600160a01b03168560405160006040518083038185875af1925050503d8060008114612632576040519150601f19603f3d011682016040523d82523d6000602084013e612637565b606091505b50509050806126585760405162461bcd60e51b815260040161058a90613960565b856040516126669190613997565b604051908190038120868252907fb92593ddb502b290f624dc88a0fbb4e2bc9adb1694d935cb7cb63e4739ae24729060200160405180910390a2506127c8565b8260ff166001036121f4576001600160a01b0382166126d75760405162461bcd60e51b815260040161058a906131c2565b6040516370a0823160e01b815284906001600160a01b038416906370a0823190612705903090600401612e85565b602060405180830381865afa158015612722573d6000803e3d6000fd5b505050506040513d601f19601f8201168201806040525081019061274691906136c7565b10156127645760405162461bcd60e51b815260040161058a906139b3565b6127786001600160a01b0383168286612816565b846040516127869190613997565b60405180910390207f1711925c600063e8f61cd29d18cd4043af08318593446837b21f9e1a6682d85b83866040516127bf9291906136e0565b60405180910390a25b7f1c116e83290f4e85a3cb0b5e95c154f7819014534a754ea34d35655308bfa4f9858585858a6040516127ff959493929190613a92565b60405180910390a15050505050506111d960018055565b61286c8363a9059cbb60e01b84846040516024016128359291906136e0565b60408051601f198184030181529190526020810180516001600160e01b03166001600160e01b0319909316929092179091526129bb565b505050565b60408051915160248084019190915281518084039091018152604490920190526020810180516001600160e01b03166397a657c960e01b17905290565b6040516001600160a01b03808516602483015283166044820152606481018290526128e69085906323b872dd60e01b90608401612835565b50505050565b6000806000835160411461293d5760405162461bcd60e51b8152602060048201526018602482015277092dcecc2d8d2c840e6d2cedcc2e8eae4ca40d8cadccee8d60431b604482015260640161058a565b50505060208101516040820151606083015160001a601b81101561296957612966601b82613ad5565b90505b9193909250565b612978610efc565b610acc5760405162461bcd60e51b815260206004820152601460248201527314185d5cd8589b194e881b9bdd081c185d5cd95960621b604482015260640161058a565b6000612a10826040518060400160405280602081526020017f5361666545524332303a206c6f772d6c6576656c2063616c6c206661696c6564815250856001600160a01b0316612a909092919063ffffffff16565b9050805160001480612a31575080806020019051810190612a319190613aee565b61286c5760405162461bcd60e51b815260206004820152602a60248201527f5361666545524332303a204552433230206f7065726174696f6e20646964206e6044820152691bdd081cdd58d8d9595960b21b606482015260840161058a565b6060612a9f8484600085612aa7565b949350505050565b606082471015612b085760405162461bcd60e51b815260206004820152602660248201527f416464726573733a20696e73756666696369656e742062616c616e636520666f6044820152651c8818d85b1b60d21b606482015260840161058a565b600080866001600160a01b03168587604051612b249190613997565b60006040518083038185875af1925050503d8060008114612b61576040519150601f19603f3d011682016040523d82523d6000602084013e612b66565b606091505b5091509150612b7787838387612b82565b979650505050505050565b60608315612bf1578251600003612bea576001600160a01b0385163b612bea5760405162461bcd60e51b815260206004820152601d60248201527f416464726573733a2063616c6c20746f206e6f6e2d636f6e7472616374000000604482015260640161058a565b5081612a9f565b612a9f8383815115612c065781518083602001fd5b8060405162461bcd60e51b815260040161058a9190613b10565b508054612c2c90613221565b6000825580601f10612c3c575050565b601f0160209004906000526020600020908101906111d991905b80821115612c6a5760008155600101612c56565b5090565b600060208284031215612c8057600080fd5b81356001600160e01b031981168114612c9857600080fd5b9392505050565b634e487b7160e01b600052604160045260246000fd5b604080519081016001600160401b0381118282101715612cd757612cd7612c9f565b60405290565b60405160a081016001600160401b0381118282101715612cd757612cd7612c9f565b604051601f8201601f191681016001600160401b0381118282101715612d2757612d27612c9f565b604052919050565b60006001600160401b03821115612d4857612d48612c9f565b50601f01601f191660200190565b600082601f830112612d6757600080fd5b8135612d7a612d7582612d2f565b612cff565b818152846020838601011115612d8f57600080fd5b816020850160208301376000918101602001919091529392505050565b60ff811681146111d957600080fd5b6001600160a01b03811681146111d957600080fd5b60008060008060008060c08789031215612de957600080fd5b8635955060208701356001600160401b0380821115612e0757600080fd5b612e138a838b01612d56565b96506040890135915080821115612e2957600080fd5b50612e3689828a01612d56565b945050606087013592506080870135612e4e81612dac565b915060a0870135612e5e81612dbb565b809150509295509295509295565b600060208284031215612e7e57600080fd5b5035919050565b6001600160a01b0391909116815260200190565b60005b83811015612eb4578181015183820152602001612e9c565b50506000910152565b60008151808452612ed5816020860160208601612e99565b601f01601f19169290920160200192915050565b608081526000612efc6080830187612ebd565b60208301959095525060ff9290921660408301526001600160a01b0316606090910152919050565b600060208284031215612f3657600080fd5b8135612c9881612dbb565b80356001600160401b0381168114612f5857600080fd5b919050565b60008083601f840112612f6f57600080fd5b5081356001600160401b03811115612f8657600080fd5b602083019150836020828501011115612f9e57600080fd5b9250929050565b600080600080600080600060a0888a031215612fc057600080fd5b8735612fcb81612dbb565b965060208801359550612fe060408901612f41565b945060608801356001600160401b0380821115612ffc57600080fd5b6130088b838c01612f5d565b909650945060808a013591508082111561302157600080fd5b5061302e8a828b01612f5d565b989b979a50959850939692959293505050565b60006020828403121561305357600080fd5b81356001600160401b0381111561306957600080fd5b820160a08185031215612c9857600080fd5b6000806040838503121561308e57600080fd5b823561309981612dbb565b946020939093013593505050565b600080600080600080608087890312156130c057600080fd5b6130c987612f41565b955060208701356001600160401b03808211156130e557600080fd5b6130f18a838b01612f5d565b9097509550604089013591508082111561310a57600080fd5b5061311789828a01612f5d565b979a9699509497949695606090950135949350505050565b6000806040838503121561314257600080fd5b82359150602083013561315481612dbb565b809150509250929050565b6020808252601b908201527f496e76616c696420757365722061646472657373206c656e6774680000000000604082015260600190565b6020808252601290820152710416d6f756e74206d757374206265203e20360741b604082015260600190565b602080825260159082015274496e76616c696420746f6b656e206164647265737360581b604082015260600190565b602080825260169082015275556e737570706f7274656420746f6b656e207479706560501b604082015260600190565b600181811c9082168061323557607f821691505b60208210810361325557634e487b7160e01b600052602260045260246000fd5b50919050565b601f82111561286c57600081815260208120601f850160051c810160208610156132825750805b601f850160051c820191505b818110156109cd5782815560010161328e565b81516001600160401b038111156132ba576132ba612c9f565b6132ce816132c88454613221565b8461325b565b602080601f83116001811461330357600084156132eb5750858301515b600019600386901b1c1916600185901b1785556109cd565b600085815260208120601f198616915b8281101561333257888601518255948401946001909101908401613313565b50858210156133505787850151600019600388901b60f8161c191681555b5050505050600190811b01905550565b634e487b7160e01b600052601160045260246000fd5b8082018082111561054357610543613360565b634e487b7160e01b600052603260045260246000fd5b8181038181111561054357610543613360565b634e487b7160e01b600052603160045260246000fd5b808202811582820484141761054357610543613360565b6000826133fc57634e487b7160e01b600052601260045260246000fd5b500490565b60006001820161341357613413613360565b5060010190565b60208082526023908201527f44657374696e6174696f6e20616464726573732063616e6e6f7420626520656d60408201526270747960e81b606082015260800190565b60208082526010908201526f466565206f7574206f662072616e676560801b604082015260600190565b600060018060a01b03808816835261ffff8716602084015285604084015284606084015260a060808401528084511660a08401528060208501511660c0840152506040830151606060e08401526134e2610100840182612ebd565b98975050505050505050565b81835281816020850137506000828201602090810191909152601f909101601f19169091010190565b60018060a01b03881681528660208201526001600160401b038616604082015260a06060820152600061354e60a0830186886134ee565b82810360808401526135618185876134ee565b9a9950505050505050505050565b600082601f83011261358057600080fd5b813560206001600160401b0382111561359b5761359b612c9f565b6135a9818360051b01612cff565b82815260069290921b840181019181810190868411156135c857600080fd5b8286015b8481101561361057604081890312156135e55760008081fd5b6135ed612cb5565b81356135f881612dbb565b815281850135858201528352918301916040016135cc565b509695505050505050565b600060a0823603121561362d57600080fd5b613635612cdd565b8235815261364560208401612f41565b602082015260408301356001600160401b038082111561366457600080fd5b61367036838701612d56565b6040840152606085013591508082111561368957600080fd5b61369536838701612d56565b606084015260808501359150808211156136ae57600080fd5b506136bb3682860161356f565b60808301525092915050565b6000602082840312156136d957600080fd5b5051919050565b6001600160a01b03929092168252602082015260400190565b6020808252602a908201527f44657374696e6174696f6e2077616c6c657420616464726573732063616e6e6f6040820152697420626520656d70747960b01b606082015260800190565b6080815260006137576080830187896134ee565b60208301959095525060ff9290921660408301526001600160a01b031660609091015292915050565b600060406001600160401b038516835260208181850152845160a0838601526137ac60e0860182612ebd565b905081860151603f19808784030160608801526137c98383612ebd565b88860151888203830160808a01528051808352908601945060009350908501905b8084101561381c57845180516001600160a01b03168352860151868301529385019360019390930192908601906137ea565b5060608901516001600160a01b031660a08901526080890151888203830160c08a015295506135618187612ebd565b60208082526010908201526f496e73756666696369656e742066656560801b604082015260600190565b8681526001600160401b038616602082015260806040820152600061389e6080830186886134ee565b82810360608401526138b18185876134ee565b9998505050505050505050565b60208082526019908201527813595cdcd859d948185b1c9958591e481c1c9bd8d95cdcd959603a1b604082015260600190565b602080825260149082015273496e76616c69642075736572206164647265737360601b604082015260600190565b60208082526021908201527f496e73756666696369656e74206e617469766520746f6b656e2062616c616e636040820152606560f81b606082015260800190565b6020808252601b908201527f4661696c656420746f2073656e64206e617469766520746f6b656e0000000000604082015260600190565b600082516139a9818460208701612e99565b9190910192915050565b6020808252601a908201527f496e73756666696369656e742045524332302062616c616e6365000000000000604082015260600190565b60008060008060808587031215613a0057600080fd5b84516001600160401b03811115613a1657600080fd5b8501601f81018713613a2757600080fd5b8051613a35612d7582612d2f565b818152886020838501011115613a4a57600080fd5b613a5b826020830160208601612e99565b809650505050602085015192506040850151613a7681612dac565b6060860151909250613a8781612dbb565b939692955090935050565b60a081526000613aa560a0830188612ebd565b60208301969096525060ff9390931660408401526001600160a01b03919091166060830152608090910152919050565b60ff818116838216019081111561054357610543613360565b600060208284031215613b0057600080fd5b81518015158114612c9857600080fd5b602081526000612c986020830184612ebd56fea264697066735822122090f3db9f2e1f5278062fe2bf3a6419444e74005e4c0ad3efbc208bb419b10efd64736f6c63430008140033",
  "linkReferences": {},
  "deployedLinkReferences": {}
}