{
  "_format": "hh-sol-artifact-1",
  "contractName": "NativeBridge",
  "sourceName": "contracts/NativeBridge.sol",
  "abi": [
    {
      "inputs": [
        {
          "internalType": "address",
          "name": "_ccipRouter",
          "type": "address"
        },
        {
          "internalType": "address[]",
          "name": "_validators",
          "type": "address[]"
        },
        {
          "internalType": "uint256",
          "name": "_threshold",
          "type": "uint256"
        },
        {
          "internalType": "address",
          "name": "link",
          "type": "address"
        }
      ],
      "stateMutability": "nonpayable",
      "type": "constructor"
    },
    {
      "inputs": [],
      "name": "AmountToBridgeZero",
      "type": "error"
    },
    {
      "inputs": [],
      "name": "DesWalletAddressZero",
      "type": "error"
    },
    {
      "inputs": [],
      "name": "DestAddressZero",
      "type": "error"
    },
    {
      "inputs": [
        {
          "internalType": "uint256",
          "name": "sent",
          "type": "uint256"
        },
        {
          "internalType": "uint256",
          "name": "required",
          "type": "uint256"
        }
      ],
      "name": "InsufficientFeeSent",
      "type": "error"
    },
    {
      "inputs": [],
      "name": "InvalidDestChainSelector",
      "type": "error"
    },
    {
      "inputs": [
        {
          "internalType": "address",
          "name": "router",
          "type": "address"
        }
      ],
      "name": "InvalidRouter",
      "type": "error"
    },
    {
      "anonymous": false,
      "inputs": [
        {
          "indexed": false,
          "internalType": "uint256",
          "name": "allowance",
          "type": "uint256"
        }
      ],
      "name": "DebugAllowance",
      "type": "event"
    },
    {
      "anonymous": false,
      "inputs": [
        {
          "indexed": false,
          "internalType": "uint256",
          "name": "balance",
          "type": "uint256"
        }
      ],
      "name": "DebugBalance",
      "type": "event"
    },
    {
      "anonymous": false,
      "inputs": [
        {
          "indexed": false,
          "internalType": "address",
          "name": "user",
          "type": "address"
        },
        {
          "indexed": false,
          "internalType": "address",
          "name": "token",
          "type": "address"
        },
        {
          "indexed": false,
          "internalType": "uint256",
          "name": "amount",
          "type": "uint256"
        },
        {
          "indexed": false,
          "internalType": "uint256",
          "name": "balanceBefore",
          "type": "uint256"
        },
        {
          "indexed": false,
          "internalType": "uint256",
          "name": "balanceAfter",
          "type": "uint256"
        }
      ],
      "name": "DebugERC20Unlock",
      "type": "event"
    },
    {
      "anonymous": false,
      "inputs": [
        {
          "indexed": false,
          "internalType": "uint256",
          "name": "fee",
          "type": "uint256"
        }
      ],
      "name": "DebugFee",
      "type": "event"
    },
    {
      "anonymous": false,
      "inputs": [
        {
          "indexed": false,
          "internalType": "string",
          "name": "message",
          "type": "string"
        }
      ],
      "name": "DebugMsg",
      "type": "event"
    },
    {
      "anonymous": false,
      "inputs": [
        {
          "indexed": false,
          "internalType": "address",
          "name": "user",
          "type": "address"
        },
        {
          "indexed": false,
          "internalType": "uint256",
          "name": "amount",
          "type": "uint256"
        },
        {
          "indexed": false,
          "internalType": "uint256",
          "name": "balanceBefore",
          "type": "uint256"
        },
        {
          "indexed": false,
          "internalType": "uint256",
          "name": "balanceAfter",
          "type": "uint256"
        }
      ],
      "name": "DebugNativeUnlock",
      "type": "event"
    },
    {
      "anonymous": false,
      "inputs": [
        {
          "indexed": true,
          "internalType": "bytes32",
          "name": "messageHash",
          "type": "bytes32"
        }
      ],
      "name": "Executed",
      "type": "event"
    },
    {
      "anonymous": false,
      "inputs": [
        {
          "indexed": true,
          "internalType": "address",
          "name": "sender",
          "type": "address"
        },
        {
          "indexed": true,
          "internalType": "address",
          "name": "token",
          "type": "address"
        },
        {
          "indexed": false,
          "internalType": "uint256",
          "name": "amount",
          "type": "uint256"
        },
        {
          "indexed": false,
          "internalType": "uint64",
          "name": "destChainSelector",
          "type": "uint64"
        },
        {
          "indexed": true,
          "internalType": "address",
          "name": "destAddress",
          "type": "address"
        },
        {
          "indexed": false,
          "internalType": "address",
          "name": "desWalletAddress",
          "type": "address"
        }
      ],
      "name": "LockedERC20",
      "type": "event"
    },
    {
      "anonymous": false,
      "inputs": [
        {
          "indexed": true,
          "internalType": "address",
          "name": "sender",
          "type": "address"
        },
        {
          "indexed": false,
          "internalType": "uint256",
          "name": "amount",
          "type": "uint256"
        },
        {
          "indexed": false,
          "internalType": "uint64",
          "name": "destChainId",
          "type": "uint64"
        },
        {
          "indexed": false,
          "internalType": "address",
          "name": "destAddress",
          "type": "address"
        },
        {
          "indexed": false,
          "internalType": "address",
          "name": "desWalletAddress",
          "type": "address"
        }
      ],
      "name": "LockedNative",
      "type": "event"
    },
    {
      "anonymous": false,
      "inputs": [
        {
          "indexed": false,
          "internalType": "bytes",
          "name": "user",
          "type": "bytes"
        },
        {
          "indexed": false,
          "internalType": "uint256",
          "name": "amount",
          "type": "uint256"
        },
        {
          "indexed": false,
          "internalType": "uint8",
          "name": "tokenType",
          "type": "uint8"
        },
        {
          "indexed": false,
          "internalType": "address",
          "name": "tokenAddress",
          "type": "address"
        },
        {
          "indexed": false,
          "internalType": "bytes32",
          "name": "messageId",
          "type": "bytes32"
        }
      ],
      "name": "MessageReceived",
      "type": "event"
    },
    {
      "anonymous": false,
      "inputs": [
        {
          "indexed": true,
          "internalType": "bytes32",
          "name": "messageId",
          "type": "bytes32"
        }
      ],
      "name": "MessageSent",
      "type": "event"
    },
    {
      "anonymous": false,
      "inputs": [
        {
          "indexed": true,
          "internalType": "address",
          "name": "previousOwner",
          "type": "address"
        },
        {
          "indexed": true,
          "internalType": "address",
          "name": "newOwner",
          "type": "address"
        }
      ],
      "name": "OwnershipTransferred",
      "type": "event"
    },
    {
      "anonymous": false,
      "inputs": [
        {
          "indexed": false,
          "internalType": "address",
          "name": "account",
          "type": "address"
        }
      ],
      "name": "Paused",
      "type": "event"
    },
    {
      "anonymous": false,
      "inputs": [
        {
          "indexed": false,
          "internalType": "address",
          "name": "token",
          "type": "address"
        },
        {
          "indexed": false,
          "internalType": "uint256",
          "name": "amount",
          "type": "uint256"
        }
      ],
      "name": "RescueERC20",
      "type": "event"
    },
    {
      "anonymous": false,
      "inputs": [
        {
          "indexed": false,
          "internalType": "uint256",
          "name": "amount",
          "type": "uint256"
        }
      ],
      "name": "RescueNative",
      "type": "event"
    },
    {
      "anonymous": false,
      "inputs": [
        {
          "indexed": true,
          "internalType": "bytes32",
          "name": "messageHash",
          "type": "bytes32"
        },
        {
          "indexed": true,
          "internalType": "address",
          "name": "signer",
          "type": "address"
        }
      ],
      "name": "SignatureSubmitted",
      "type": "event"
    },
    {
      "anonymous": false,
      "inputs": [
        {
          "indexed": false,
          "internalType": "uint256",
          "name": "newThreshold",
          "type": "uint256"
        }
      ],
      "name": "ThresholdUpdated",
      "type": "event"
    },
    {
      "anonymous": false,
      "inputs": [
        {
          "indexed": true,
          "internalType": "address",
          "name": "sender",
          "type": "address"
        },
        {
          "indexed": true,
          "internalType": "address",
          "name": "token",
          "type": "address"
        },
        {
          "indexed": false,
          "internalType": "uint256",
          "name": "amount",
          "type": "uint256"
        }
      ],
      "name": "TokenLocked",
      "type": "event"
    },
    {
      "anonymous": false,
      "inputs": [
        {
          "indexed": true,
          "internalType": "bytes",
          "name": "user",
          "type": "bytes"
        },
        {
          "indexed": false,
          "internalType": "address",
          "name": "tokenAddr",
          "type": "address"
        },
        {
          "indexed": false,
          "internalType": "uint256",
          "name": "amount",
          "type": "uint256"
        }
      ],
      "name": "UnlockedERC20",
      "type": "event"
    },
    {
      "anonymous": false,
      "inputs": [
        {
          "indexed": true,
          "internalType": "bytes",
          "name": "user",
          "type": "bytes"
        },
        {
          "indexed": false,
          "internalType": "uint256",
          "name": "amount",
          "type": "uint256"
        }
      ],
      "name": "UnlockedNative",
      "type": "event"
    },
    {
      "anonymous": false,
      "inputs": [
        {
          "indexed": false,
          "internalType": "address",
          "name": "account",
          "type": "address"
        }
      ],
      "name": "Unpaused",
      "type": "event"
    },
    {
      "anonymous": false,
      "inputs": [
        {
          "indexed": true,
          "internalType": "address",
          "name": "validator",
          "type": "address"
        }
      ],
      "name": "ValidatorAdded",
      "type": "event"
    },
    {
      "anonymous": false,
      "inputs": [
        {
          "indexed": true,
          "internalType": "address",
          "name": "validator",
          "type": "address"
        }
      ],
      "name": "ValidatorRemoved",
      "type": "event"
    },
    {
      "stateMutability": "payable",
      "type": "fallback"
    },
    {
      "inputs": [
        {
          "internalType": "address",
          "name": "validator",
          "type": "address"
        }
      ],
      "name": "addValidator",
      "outputs": [],
      "stateMutability": "nonpayable",
      "type": "function"
    },
    {
      "inputs": [
        {
          "components": [
            {
              "internalType": "bytes32",
              "name": "messageId",
              "type": "bytes32"
            },
            {
              "internalType": "uint64",
              "name": "sourceChainSelector",
              "type": "uint64"
            },
            {
              "internalType": "bytes",
              "name": "sender",
              "type": "bytes"
            },
            {
              "internalType": "bytes",
              "name": "data",
              "type": "bytes"
            },
            {
              "components": [
                {
                  "internalType": "address",
                  "name": "token",
                  "type": "address"
                },
                {
                  "internalType": "uint256",
                  "name": "amount",
                  "type": "uint256"
                }
              ],
              "internalType": "struct Client.EVMTokenAmount[]",
              "name": "destTokenAmounts",
              "type": "tuple[]"
            }
          ],
          "internalType": "struct Client.Any2EVMMessage",
          "name": "message",
          "type": "tuple"
        }
      ],
      "name": "ccipReceive",
      "outputs": [],
      "stateMutability": "nonpayable",
      "type": "function"
    },
    {
      "inputs": [
        {
          "internalType": "uint64",
          "name": "destChainSelector",
          "type": "uint64"
        },
        {
          "internalType": "address",
          "name": "receiver",
          "type": "address"
        },
        {
          "internalType": "bytes",
          "name": "data",
          "type": "bytes"
        },
        {
          "internalType": "address",
          "name": "feeToken",
          "type": "address"
        },
        {
          "internalType": "address",
          "name": "usdcAddress",
          "type": "address"
        },
        {
          "internalType": "uint256",
          "name": "usdcAmount",
          "type": "uint256"
        }
      ],
      "name": "estimateFee",
      "outputs": [
        {
          "internalType": "uint256",
          "name": "",
          "type": "uint256"
        }
      ],
      "stateMutability": "view",
      "type": "function"
    },
    {
      "inputs": [
        {
          "internalType": "uint64",
          "name": "destChainSelector",
          "type": "uint64"
        },
        {
          "components": [
            {
              "internalType": "bytes",
              "name": "receiver",
              "type": "bytes"
            },
            {
              "internalType": "bytes",
              "name": "data",
              "type": "bytes"
            },
            {
              "components": [
                {
                  "internalType": "address",
                  "name": "token",
                  "type": "address"
                },
                {
                  "internalType": "uint256",
                  "name": "amount",
                  "type": "uint256"
                }
              ],
              "internalType": "struct Client.EVMTokenAmount[]",
              "name": "tokenAmounts",
              "type": "tuple[]"
            },
            {
              "internalType": "address",
              "name": "feeToken",
              "type": "address"
            },
            {
              "internalType": "bytes",
              "name": "extraArgs",
              "type": "bytes"
            }
          ],
          "internalType": "struct Client.EVM2AnyMessage",
          "name": "evmMessage",
          "type": "tuple"
        }
      ],
      "name": "getFeeForMessage",
      "outputs": [
        {
          "internalType": "uint256",
          "name": "",
          "type": "uint256"
        }
      ],
      "stateMutability": "view",
      "type": "function"
    },
    {
      "inputs": [],
      "name": "getRouter",
      "outputs": [
        {
          "internalType": "address",
          "name": "",
          "type": "address"
        }
      ],
      "stateMutability": "view",
      "type": "function"
    },
    {
      "inputs": [],
      "name": "getValidatorCount",
      "outputs": [
        {
          "internalType": "uint256",
          "name": "",
          "type": "uint256"
        }
      ],
      "stateMutability": "view",
      "type": "function"
    },
    {
      "inputs": [],
      "name": "i_link",
      "outputs": [
        {
          "internalType": "address",
          "name": "",
          "type": "address"
        }
      ],
      "stateMutability": "view",
      "type": "function"
    },
    {
      "inputs": [
        {
          "internalType": "contract IERC20",
          "name": "token",
          "type": "address"
        },
        {
          "internalType": "uint64",
          "name": "destChainSelector",
          "type": "uint64"
        },
        {
          "internalType": "address",
          "name": "destAddress",
          "type": "address"
        },
        {
          "internalType": "address",
          "name": "desWalletAddress",
          "type": "address"
        },
        {
          "internalType": "uint256",
          "name": "amountToBridge",
          "type": "uint256"
        },
        {
          "internalType": "enum NativeBridge.PayFeesIn",
          "name": "payFeesIn",
          "type": "uint8"
        }
      ],
      "name": "lockERC20",
      "outputs": [
        {
          "internalType": "bytes32",
          "name": "messageId",
          "type": "bytes32"
        }
      ],
      "stateMutability": "payable",
      "type": "function"
    },
    {
      "inputs": [
        {
          "internalType": "uint64",
          "name": "destChainSelector",
          "type": "uint64"
        },
        {
          "internalType": "address",
          "name": "destAddress",
          "type": "address"
        },
        {
          "internalType": "address",
          "name": "desWalletAddress",
          "type": "address"
        },
        {
          "internalType": "uint256",
          "name": "amountToBridge",
          "type": "uint256"
        }
      ],
      "name": "lockNative",
      "outputs": [],
      "stateMutability": "payable",
      "type": "function"
    },
    {
      "inputs": [
        {
          "internalType": "contract OFTV2",
          "name": "oftToken",
          "type": "address"
        },
        {
          "internalType": "uint256",
          "name": "amountToBridge",
          "type": "uint256"
        },
        {
          "internalType": "uint64",
          "name": "destChainId",
          "type": "uint64"
        },
        {
          "internalType": "address",
          "name": "destAddress",
          "type": "address"
        },
        {
          "internalType": "address",
          "name": "desWalletAddress",
          "type": "address"
        }
      ],
      "name": "lockOFT",
      "outputs": [],
      "stateMutability": "payable",
      "type": "function"
    },
    {
      "inputs": [
        {
          "internalType": "contract IERC20",
          "name": "token",
          "type": "address"
        },
        {
          "internalType": "uint256",
          "name": "amountToBridge",
          "type": "uint256"
        },
        {
          "internalType": "uint64",
          "name": "destChainSelector",
          "type": "uint64"
        },
        {
          "internalType": "address",
          "name": "destAddress",
          "type": "address"
        },
        {
          "internalType": "address",
          "name": "desWalletAddress",
          "type": "address"
        }
      ],
      "name": "lockkERC20",
      "outputs": [],
      "stateMutability": "payable",
      "type": "function"
    },
    {
      "inputs": [
        {
          "internalType": "bytes32",
          "name": "",
          "type": "bytes32"
        }
      ],
      "name": "messageData",
      "outputs": [
        {
          "internalType": "bytes",
          "name": "user",
          "type": "bytes"
        },
        {
          "internalType": "uint256",
          "name": "amount",
          "type": "uint256"
        },
        {
          "internalType": "uint8",
          "name": "tokenType",
          "type": "uint8"
        },
        {
          "internalType": "address",
          "name": "tokenAddr",
          "type": "address"
        }
      ],
      "stateMutability": "view",
      "type": "function"
    },
    {
      "inputs": [],
      "name": "owner",
      "outputs": [
        {
          "internalType": "address",
          "name": "",
          "type": "address"
        }
      ],
      "stateMutability": "view",
      "type": "function"
    },
    {
      "inputs": [],
      "name": "pause",
      "outputs": [],
      "stateMutability": "nonpayable",
      "type": "function"
    },
    {
      "inputs": [],
      "name": "paused",
      "outputs": [
        {
          "internalType": "bool",
          "name": "",
          "type": "bool"
        }
      ],
      "stateMutability": "view",
      "type": "function"
    },
    {
      "inputs": [
        {
          "internalType": "bytes32",
          "name": "",
          "type": "bytes32"
        }
      ],
      "name": "processedMessages",
      "outputs": [
        {
          "internalType": "bool",
          "name": "",
          "type": "bool"
        }
      ],
      "stateMutability": "view",
      "type": "function"
    },
    {
      "inputs": [
        {
          "internalType": "address",
          "name": "validator",
          "type": "address"
        }
      ],
      "name": "removeValidator",
      "outputs": [],
      "stateMutability": "nonpayable",
      "type": "function"
    },
    {
      "inputs": [],
      "name": "renounceOwnership",
      "outputs": [],
      "stateMutability": "nonpayable",
      "type": "function"
    },
    {
      "inputs": [
        {
          "internalType": "contract IERC20",
          "name": "token",
          "type": "address"
        },
        {
          "internalType": "uint256",
          "name": "amount",
          "type": "uint256"
        }
      ],
      "name": "rescueERC20",
      "outputs": [],
      "stateMutability": "nonpayable",
      "type": "function"
    },
    {
      "inputs": [
        {
          "internalType": "uint256",
          "name": "amount",
          "type": "uint256"
        }
      ],
      "name": "rescueNative",
      "outputs": [],
      "stateMutability": "nonpayable",
      "type": "function"
    },
    {
      "inputs": [
        {
          "internalType": "uint256",
          "name": "newThreshold",
          "type": "uint256"
        }
      ],
      "name": "setThreshold",
      "outputs": [],
      "stateMutability": "nonpayable",
      "type": "function"
    },
    {
      "inputs": [
        {
          "internalType": "bytes32",
          "name": "",
          "type": "bytes32"
        }
      ],
      "name": "signatureCount",
      "outputs": [
        {
          "internalType": "uint256",
          "name": "",
          "type": "uint256"
        }
      ],
      "stateMutability": "view",
      "type": "function"
    },
    {
      "inputs": [
        {
          "internalType": "bytes32",
          "name": "",
          "type": "bytes32"
        },
        {
          "internalType": "address",
          "name": "",
          "type": "address"
        }
      ],
      "name": "signatures",
      "outputs": [
        {
          "internalType": "bool",
          "name": "",
          "type": "bool"
        }
      ],
      "stateMutability": "view",
      "type": "function"
    },
    {
      "inputs": [
        {
          "internalType": "bytes32",
          "name": "messageHash",
          "type": "bytes32"
        },
        {
          "internalType": "bytes",
          "name": "signature",
          "type": "bytes"
        },
        {
          "internalType": "bytes",
          "name": "user",
          "type": "bytes"
        },
        {
          "internalType": "uint256",
          "name": "amount",
          "type": "uint256"
        },
        {
          "internalType": "uint8",
          "name": "tokenType",
          "type": "uint8"
        },
        {
          "internalType": "address",
          "name": "tokenAddr",
          "type": "address"
        }
      ],
      "name": "submitSignature",
      "outputs": [],
      "stateMutability": "nonpayable",
      "type": "function"
    },
    {
      "inputs": [
        {
          "internalType": "bytes4",
          "name": "interfaceId",
          "type": "bytes4"
        }
      ],
      "name": "supportsInterface",
      "outputs": [
        {
          "internalType": "bool",
          "name": "",
          "type": "bool"
        }
      ],
      "stateMutability": "view",
      "type": "function"
    },
    {
      "inputs": [],
      "name": "threshold",
      "outputs": [
        {
          "internalType": "uint256",
          "name": "",
          "type": "uint256"
        }
      ],
      "stateMutability": "view",
      "type": "function"
    },
    {
      "inputs": [
        {
          "internalType": "address",
          "name": "newOwner",
          "type": "address"
        }
      ],
      "name": "transferOwnership",
      "outputs": [],
      "stateMutability": "nonpayable",
      "type": "function"
    },
    {
      "inputs": [],
      "name": "unpause",
      "outputs": [],
      "stateMutability": "nonpayable",
      "type": "function"
    },
    {
      "inputs": [
        {
          "internalType": "uint256",
          "name": "",
          "type": "uint256"
        }
      ],
      "name": "validators",
      "outputs": [
        {
          "internalType": "address",
          "name": "",
          "type": "address"
        }
      ],
      "stateMutability": "view",
      "type": "function"
    },
    {
      "stateMutability": "payable",
      "type": "receive"
    }
  ],
  "bytecode": "0x60a06040523480156200001157600080fd5b50604051620041c0380380620041c0833981016040819052620000349162000226565b826001600160a01b03811662000065576040516335fdcccd60e21b8152600060048201526024015b60405180910390fd5b6001600160a01b03166080526200007c3362000122565b6000805460ff60a01b19169055600180558151811115620000d45760405162461bcd60e51b8152602060048201526011602482015270125b9d985b1a59081d1a1c995cda1bdb19607a1b60448201526064016200005c565b8151620000e990600290602085019062000172565b50600382516002620000fc91906200032e565b620001099060026200034e565b62000115919062000364565b6003555062000387915050565b600080546001600160a01b038381166001600160a01b0319831681178455604051919092169283917f8be0079c531659141344cd1fd0a4f28419497f9722a3daafe3b4186f6b6457e09190a35050565b828054828255906000526020600020908101928215620001ca579160200282015b82811115620001ca57825182546001600160a01b0319166001600160a01b0390911617825560209092019160019091019062000193565b50620001d8929150620001dc565b5090565b5b80821115620001d85760008155600101620001dd565b80516001600160a01b03811681146200020b57600080fd5b919050565b634e487b7160e01b600052604160045260246000fd5b6000806000606084860312156200023c57600080fd5b6200024784620001f3565b602085810151919450906001600160401b03808211156200026757600080fd5b818701915087601f8301126200027c57600080fd5b81518181111562000291576200029162000210565b8060051b604051601f19603f83011681018181108582111715620002b957620002b962000210565b60405291825284820192508381018501918a831115620002d857600080fd5b938501935b828510156200030157620002f185620001f3565b84529385019392850192620002dd565b809750505050505050604084015190509250925092565b634e487b7160e01b600052601160045260246000fd5b808202811582820484141762000348576200034862000318565b92915050565b8082018082111562000348576200034862000318565b6000826200038257634e487b7160e01b600052601260045260246000fd5b500490565b608051613e1d620003a3600039600061187b0152613e1d6000f3fe6080604052600436106101645760003560e01c80637071688a116100c65780638da5cb5b116100775780638da5cb5b146103d5578063960bfe04146103f3578063b0f479a114610413578063b3cc026d14610428578063c43342ea14610455578063dc18fa9514610468578063f2fde38b146104a357005b80637071688a14610313578063715018a61461032857806372981be61461033d5780638456cb591461035057806385572ffb1461036557806388ba16ab146103855780638cd4426d146103b557005b80633f4ba83a116101205780633f4ba83a1461024557806340a141ff1461025a578063411315601461027a57806342cde4e8146102a8578063454aa669146102be5780634d238c8e146102de5780635c975abb146102fe57005b806301ffc9a71461016d57806307e1f978146101a2578063121c41b2146101b55780632dd43c18146101c857806335aa2e44146101e8578063395fc2931461021557005b3661016b57005b005b34801561017957600080fd5b5061018d610188366004612e69565b6104c3565b60405190151581526020015b60405180910390f35b61016b6101b0366004612f17565b6104fa565b61016b6101c3366004612f84565b61087a565b3480156101d457600080fd5b5061016b6101e3366004613122565b610992565b3480156101f457600080fd5b506102086102033660046131b0565b610e11565b60405161019991906131c9565b34801561022157600080fd5b506102356102303660046131b0565b610e3b565b604051610199949392919061322d565b34801561025157600080fd5b5061016b610ef8565b34801561026657600080fd5b5061016b610275366004613268565b610f0a565b34801561028657600080fd5b5061029a610295366004613331565b6110d3565b604051908152602001610199565b3480156102b457600080fd5b5061029a60035481565b3480156102ca57600080fd5b5061016b6102d93660046131b0565b611152565b3480156102ea57600080fd5b5061016b6102f9366004613268565b61121b565b34801561030a57600080fd5b5061018d6113b7565b34801561031f57600080fd5b5060025461029a565b34801561033457600080fd5b5061016b6113c7565b61016b61034b366004612f84565b6113d9565b34801561035c57600080fd5b5061016b6115eb565b34801561037157600080fd5b5061016b61038036600461342d565b6115fb565b34801561039157600080fd5b5061018d6103a03660046131b0565b60076020526000908152604090205460ff1681565b3480156103c157600080fd5b5061016b6103d0366004613467565b61164a565b3480156103e157600080fd5b506000546001600160a01b0316610208565b3480156103ff57600080fd5b5061016b61040e3660046131b0565b611798565b34801561041f57600080fd5b50610208611879565b34801561043457600080fd5b5061029a6104433660046131b0565b60056020526000908152604090205481565b61016b610463366004612f84565b61189d565b34801561047457600080fd5b5061018d610483366004613493565b600460209081526000928352604080842090915290825290205460ff1681565b3480156104af57600080fd5b5061016b6104be366004613268565b611bd1565b60006001600160e01b031982166385572ffb60e01b14806104f457506001600160e01b031982166301ffc9a760e01b145b92915050565b610502611c47565b61050a611c8f565b6000811161055f5760405162461bcd60e51b815260206004820152601c60248201527f416d6f756e7420746f20627269646765206d757374206265203e20300000000060448201526064015b60405180910390fd5b6014831461057f5760405162461bcd60e51b8152600401610556906134c3565b6001600160a01b0382166105a55760405162461bcd60e51b815260040161055690613507565b60006105b18234613566565b9050600083836000806040516020016105cd9493929190613579565b60408051808303601f190181526001808452838301909252925060009190816020015b60408051808201909152600080825260208201528152602001906001900390816105f0579050509050604051806040016040528060006001600160a01b03168152602001858152508160008151811061064b5761064b6135a7565b602002602001018190525060006040518060a0016040528089898080601f0160208091040260200160405190810160405280939291908181526020018383808284376000920182905250938552505050602080830187905260408084018790526060840192909252815190810190915262030d4081526080909101906106d090611ce8565b9052905060006106de611879565b6001600160a01b03166320487ded8b846040518363ffffffff1660e01b815260040161070b9291906135bd565b602060405180830381865afa158015610728573d6000803e3d6000fd5b505050506040513d601f19601f8201168201806040525081019061074c9190613696565b9050610756611879565b6001600160a01b03166396f4e9f9348c856040518463ffffffff1660e01b81526004016107849291906135bd565b60206040518083038185885af11580156107a2573d6000803e3d6000fd5b50505050506040513d601f19601f820116820180604052508101906107c79190613696565b50336001600160a01b03167fe4e67c7423d58dd5d3f10dd1636421c27807ddbe849928782d03f32eff6f9129878c8c8c8c6040516108099594939291906136d8565b60405180910390a261081b868261371b565b34111561086557336108fc876108318434613566565b61083b9190613566565b6040518115909202916000818181858888f19350505050158015610863573d6000803e3d6000fd5b505b505050505061087360018055565b5050505050565b610882611c47565b61088a611c8f565b600085116108aa5760405162461bcd60e51b81526004016105569061372e565b816108c75760405162461bcd60e51b81526004016105569061375a565b6001600160a01b0381166108ed5760405162461bcd60e51b815260040161055690613507565b6001600160a01b0386166109135760405162461bcd60e51b81526004016105569061379d565b601482146109335760405162461bcd60e51b8152600401610556906134c3565b6109486001600160a01b038716333088611d25565b336001600160a01b0316600080516020613dc8833981519152878787878787604051610979969594939291906137cc565b60405180910390a261098a60018055565b505050505050565b61099b33611d96565b6109d75760405162461bcd60e51b815260206004820152600d60248201526c2737ba103b30b634b230ba37b960991b6044820152606401610556565b600086815260046020908152604080832033845290915290205460ff1615610a325760405162461bcd60e51b815260206004820152600e60248201526d105b1c9958591e481cda59db995960921b6044820152606401610556565b610a3d868633611dff565b610a7d5760405162461bcd60e51b8152602060048201526011602482015270496e76616c6964207369676e617475726560781b6044820152606401610556565b6000868152600560205260408120549003610c2f57601484511015610ab45760405162461bcd60e51b81526004016105569061381a565b60008311610ad45760405162461bcd60e51b81526004016105569061372e565b8160ff16600103610b0a576001600160a01b038116610b055760405162461bcd60e51b81526004016105569061379d565b610b2b565b60ff821615610b2b5760405162461bcd60e51b815260040161055690613851565b8584848484604051602001610b43949392919061322d565b6040516020818303038152906040528051906020012014610b9d5760405162461bcd60e51b8152602060048201526014602482015273092dcecc2d8d2c840dacae6e6c2ceca40d0c2e6d60631b6044820152606401610556565b60408051608081018252858152602080820186905260ff8516828401526001600160a01b0384166060830152600089815260069091529190912081518190610be59082613901565b50602082015160018201556040820151600290910180546060909301516001600160a01b0316610100026001600160a81b031990931660ff90921691909117919091179055610d7d565b600086815260066020526040808220815160808101909252805482908290610c5690613881565b80601f0160208091040260200160405190810160405280929190818152602001828054610c8290613881565b8015610ccf5780601f10610ca457610100808354040283529160200191610ccf565b820191906000526020600020905b815481529060010190602001808311610cb257829003601f168201915b5050509183525050600182015460208083019190915260029092015460ff81166040808401919091526101009091046001600160a01b0316606090920191909152519192508891610d289188918891889188910161322d565b6040516020818303038152906040528051906020012014610d7b5760405162461bcd60e51b815260206004820152600d60248201526c088c2e8c240dad2e6dac2e8c6d609b1b6044820152606401610556565b505b60008681526004602090815260408083203384528252808320805460ff1916600190811790915589845260059092528220805491929091610dbf90849061371b565b9091555050604051339087907f9fae4663050594146745d8ef909ace78285592fca37a57e4e551398fe43a9e6990600090a36003546000878152600560205260409020541061098a5761098a86611ef8565b60028181548110610e2157600080fd5b6000918252602090912001546001600160a01b0316905081565b600660205260009081526040902080548190610e5690613881565b80601f0160208091040260200160405190810160405280929190818152602001828054610e8290613881565b8015610ecf5780601f10610ea457610100808354040283529160200191610ecf565b820191906000526020600020905b815481529060010190602001808311610eb257829003601f168201915b50505050600183015460029093015491929160ff8116915061010090046001600160a01b031684565b610f00612421565b610f0861247b565b565b610f12612421565b610f1b81611d96565b610f5d5760405162461bcd60e51b815260206004820152601360248201527215985b1a59185d1bdc881b9bdd08199bdd5b99606a1b6044820152606401610556565b60005b6002548110156110cf57816001600160a01b031660028281548110610f8757610f876135a7565b6000918252602090912001546001600160a01b0316036110bd5760028054610fb190600190613566565b81548110610fc157610fc16135a7565b600091825260209091200154600280546001600160a01b039092169183908110610fed57610fed6135a7565b9060005260206000200160006101000a8154816001600160a01b0302191690836001600160a01b03160217905550600280548061102c5761102c6139c0565b600082815260209020810160001990810180546001600160a01b031916905501905560025461105c576000611082565b6002805460039161106d91906139d6565b61107890600261371b565b61108291906139ed565b6003556040516001600160a01b038316907fe1434e25d6611e0db941968fdc97811c982ac1602e951637d206f5fdda9dd8f190600090a25050565b806110c781613a0f565b915050610f60565b5050565b60006110dd611879565b6001600160a01b03166320487ded84846040518363ffffffff1660e01b815260040161110a9291906135bd565b602060405180830381865afa158015611127573d6000803e3d6000fd5b505050506040513d601f19601f8201168201806040525081019061114b9190613696565b9392505050565b61115a612421565b804710156111aa5760405162461bcd60e51b815260206004820152601b60248201527f496e73756666696369656e74206e61746976652062616c616e636500000000006044820152606401610556565b600080546040516001600160a01b039091169183156108fc02918491818181858888f193505050501580156111e3573d6000803e3d6000fd5b506040518181527feadf1d310e3d1080c8016fc34d54d2800df7f47929c597becaa0032f47132faf906020015b60405180910390a150565b611223612421565b6001600160a01b0381166112755760405162461bcd60e51b8152602060048201526019602482015278496e76616c69642076616c696461746f72206164647265737360381b6044820152606401610556565b61127e81611d96565b156112c65760405162461bcd60e51b815260206004820152601860248201527756616c696461746f7220616c72656164792065786973747360401b6044820152606401610556565b6002546000191161130f5760405162461bcd60e51b815260206004820152601360248201527215985b1a59185d1bdc881b1a5cdd08199d5b1b606a1b6044820152606401610556565b6002805460018101825560008290527f405787fa12a823e0f2b7631cc41b3ba8828b3321ca811111fa75cd3aa3bb5ace0180546001600160a01b0319166001600160a01b038416179055805460039161136891906139d6565b61137390600261371b565b61137d91906139ed565b6003556040516001600160a01b038216907fe366c1c0452ed8eec96861e9e54141ebff23c9ec89fe27b996b45f5ec388498790600090a250565b600054600160a01b900460ff1690565b6113cf612421565b610f0860006124ca565b6113e1611c47565b6113e9611c8f565b600085116114095760405162461bcd60e51b81526004016105569061372e565b816114265760405162461bcd60e51b81526004016105569061375a565b6001600160a01b0386166114705760405162461bcd60e51b815260206004820152601160248201527024b73b30b634b21027a32a103a37b5b2b760791b6044820152606401610556565b8361ffff81166001600160401b038216146114c45760405162461bcd60e51b815260206004820152601460248201527364657374436861696e4964206f766572666c6f7760601b6044820152606401610556565b60408051606081018252338152600060208083018290528351600160f01b9181019190915262030d406022820152909282019060420160408051601f1981840301815291815291525163695ef6bf60e01b81529091506001600160a01b0389169063695ef6bf90349061154490339087906000908e908990600401613a28565b6000604051808303818588803b15801561155d57600080fd5b505af1158015611571573d6000803e3d6000fd5b5050505050336001600160a01b0316600080516020613dc88339815191528989898989896040516115a7969594939291906137cc565b60405180910390a2346115df565b6040518115909202916000818181858888f193505050501580156115dd573d6000803e3d6000fd5b505b50505061098a60018055565b6115f3612421565b610f0861251a565b611603611879565b6001600160a01b0316336001600160a01b03161461163657336040516335fdcccd60e21b815260040161055691906131c9565b61164761164282613a8f565b61255d565b50565b611652612421565b6001600160a01b0382166116785760405162461bcd60e51b81526004016105569061379d565b6040516370a0823160e01b815281906001600160a01b038416906370a08231906116a69030906004016131c9565b602060405180830381865afa1580156116c3573d6000803e3d6000fd5b505050506040513d601f19601f820116820180604052508101906116e79190613696565b10156117355760405162461bcd60e51b815260206004820152601a60248201527f496e73756666696369656e7420746f6b656e2062616c616e63650000000000006044820152606401610556565b61175b61174a6000546001600160a01b031690565b6001600160a01b0384169083612ac3565b7f38d621fca5f81c9e528ee3fa95b55794df66c72f5d4dbbbf4ae94a2f0627a70b828260405161178c929190613b3b565b60405180910390a15050565b6117a0612421565b600081116117e85760405162461bcd60e51b815260206004820152601560248201527405468726573686f6c64206d757374206265203e203605c1b6044820152606401610556565b6002548111156118445760405162461bcd60e51b815260206004820152602160248201527f5468726573686f6c6420657863656564732076616c696461746f7220636f756e6044820152601d60fa1b6064820152608401610556565b60038190556040518181527fadfa8ecb21b6962ebcd0adbd9ab985b7b4c5b5eb3b0dead683171565c7bfe17190602001611210565b7f000000000000000000000000000000000000000000000000000000000000000090565b6118a5611c47565b6118ad611c8f565b600085116118cd5760405162461bcd60e51b81526004016105569061372e565b816118ea5760405162461bcd60e51b81526004016105569061375a565b6001600160a01b0381166119105760405162461bcd60e51b815260040161055690613507565b6001600160a01b0386166119365760405162461bcd60e51b81526004016105569061379d565b601482146119565760405162461bcd60e51b8152600401610556906134c3565b61196b6001600160a01b038716333088611d25565b600081866001896040516020016119859493929190613579565b60408051601f1981840301815260c06020601f8801819004028401810190925260a08301868152909350600092918291908890889081908501838280828437600092018290525093855250505060208083018690526040805183815291820181529092019190611a17565b60408051808201909152600080825260208201528152602001906001900390816119f05790505b50815260200160006001600160a01b03168152602001611a47604051806020016040528062030d40815250611ce8565b905290506000611a55611879565b6001600160a01b03166320487ded88846040518363ffffffff1660e01b8152600401611a829291906135bd565b602060405180830381865afa158015611a9f573d6000803e3d6000fd5b505050506040513d601f19601f82011682018060405250810190611ac39190613696565b905080341015611b085760405162461bcd60e51b815260206004820152601060248201526f496e73756666696369656e742066656560801b6044820152606401610556565b611b10611879565b6001600160a01b03166396f4e9f98289856040518463ffffffff1660e01b8152600401611b3e9291906135bd565b60206040518083038185885af1158015611b5c573d6000803e3d6000fd5b50505050506040513d601f19601f82011682018060405250810190611b819190613696565b50336001600160a01b0316600080516020613dc88339815191528a8a8a8a8a8a604051611bb3969594939291906137cc565b60405180910390a2803411156115df57336108fc6115b58334613566565b611bd9612421565b6001600160a01b038116611c3e5760405162461bcd60e51b815260206004820152602660248201527f4f776e61626c653a206e6577206f776e657220697320746865207a65726f206160448201526564647265737360d01b6064820152608401610556565b611647816124ca565b611c4f6113b7565b15610f085760405162461bcd60e51b815260206004820152601060248201526f14185d5cd8589b194e881c185d5cd95960821b6044820152606401610556565b600260015403611ce15760405162461bcd60e51b815260206004820152601f60248201527f5265656e7472616e637947756172643a207265656e7472616e742063616c6c006044820152606401610556565b6002600155565b60408051915160248084019190915281518084039091018152604490920190526020810180516001600160e01b03166397a657c960e01b17905290565b6040516001600160a01b0380851660248301528316604482015260648101829052611d909085906323b872dd60e01b906084015b60408051601f198184030181529190526020810180516001600160e01b03166001600160e01b031990931692909217909152612ae7565b50505050565b6000805b600254811015611df657826001600160a01b031660028281548110611dc157611dc16135a7565b6000918252602090912001546001600160a01b031603611de45750600192915050565b80611dee81613a0f565b915050611d9a565b50600092915050565b600080611e59856040517f19457468657265756d205369676e6564204d6573736167653a0a3332000000006020820152603c8101829052600090605c01604051602081830303815290604052805190602001209050919050565b90506000806000611e6987612bbc565b925092509250856001600160a01b031660018583868660405160008152602001604052604051611eb5949392919093845260ff9290921660208401526040830152606082015260800190565b6020604051602081039080840390855afa158015611ed7573d6000803e3d6000fd5b505050602060405103516001600160a01b0316149450505050509392505050565b60008181526007602052604090205460ff1615611f275760405162461bcd60e51b815260040161055690613b54565b600081815260066020526040808220815160808101909252805482908290611f4e90613881565b80601f0160208091040260200160405190810160405280929190818152602001828054611f7a90613881565b8015611fc75780601f10611f9c57610100808354040283529160200191611fc7565b820191906000526020600020905b815481529060010190602001808311611faa57829003601f168201915b5050509183525050600182015460208083019190915260029092015460ff8116604083015261010090046001600160a01b03166060909101528101519091506120435760405162461bcd60e51b815260206004820152600e60248201526d125b9d985b1a5908185b5bdd5b9d60921b6044820152606401610556565b805151601411156120665760405162461bcd60e51b81526004016105569061381a565b805160009061207490613b87565b60601c9050806120bd5760405162461bcd60e51b8152602060048201526014602482015273496e76616c69642075736572206164647265737360601b6044820152606401610556565b600083815260076020526040808220805460ff1916600117905583015160ff1690036121d55781602001514710156121075760405162461bcd60e51b815260040161055690613bc3565b60208201516040516000916001600160a01b038416918381818185875af1925050503d8060008114612155576040519150601f19603f3d011682016040523d82523d6000602084013e61215a565b606091505b505090508061217b5760405162461bcd60e51b815260040161055690613c04565b825160405161218a9190613c3b565b60405180910390207fb92593ddb502b290f624dc88a0fbb4e2bc9adb1694d935cb7cb63e4739ae247284602001516040516121c791815260200190565b60405180910390a25061233d565b816040015160ff166001036123255760608201516001600160a01b031661220e5760405162461bcd60e51b81526004016105569061379d565b816020015182606001516001600160a01b03166370a08231306040518263ffffffff1660e01b815260040161224391906131c9565b602060405180830381865afa158015612260573d6000803e3d6000fd5b505050506040513d601f19601f820116820180604052508101906122849190613696565b10156122a25760405162461bcd60e51b815260040161055690613c57565b6122c881836020015184606001516001600160a01b0316612ac39092919063ffffffff16565b81516040516122d79190613c3b565b60405180910390207f1711925c600063e8f61cd29d18cd4043af08318593446837b21f9e1a6682d85b83606001518460200151604051612318929190613b3b565b60405180910390a261233d565b60405162461bcd60e51b815260040161055690613851565b6000838152600660205260408120906123568282612e1b565b50600060018201819055600290910180546001600160a81b03191690558381526005602052604081208190555b6002548110156123f057600084815260046020526040812060028054919291849081106123b2576123b26135a7565b60009182526020808320909101546001600160a01b031683528201929092526040019020805460ff19169055806123e881613a0f565b915050612383565b5060405183907fa74c8847d513feba22a0f0cb38d53081abf97562cdb293926ba243689e7c41ca90600090a2505050565b6000546001600160a01b03163314610f085760405162461bcd60e51b815260206004820181905260248201527f4f776e61626c653a2063616c6c6572206973206e6f7420746865206f776e65726044820152606401610556565b612483612c40565b6000805460ff60a01b191690557f5db9ee0a495bf2e6ff9c91a7834c1ba4fdd244a5e8aa4e537bd38aeae4b073aa335b6040516124c091906131c9565b60405180910390a1565b600080546001600160a01b038381166001600160a01b0319831681178455604051919092169283917f8be0079c531659141344cd1fd0a4f28419497f9722a3daafe3b4186f6b6457e09190a35050565b612522611c47565b6000805460ff60a01b1916600160a01b1790557f62e78cea01bee320cd4e420270b5ea74000d11b0c9f74754ebdbfc544b05a2586124b33390565b612565611c47565b61256d611c8f565b805160008181526007602052604090205460ff161561259e5760405162461bcd60e51b815260040161055690613b54565b60008181526007602090815260408220805460ff19166001179055606084015180518392839283926125d69290820181019101613c8e565b935093509350935083516014146125ff5760405162461bcd60e51b81526004016105569061381a565b6000831161261f5760405162461bcd60e51b81526004016105569061372e565b60148401516040517f1c116e83290f4e85a3cb0b5e95c154f7819014534a754ea34d35655308bfa4f99061265c9087908790879087908c90613d36565b60405180910390a18260ff166000036127a65747848110156126905760405162461bcd60e51b815260040161055690613bc3565b6000826001600160a01b03168660405160006040518083038185875af1925050503d80600081146126dd576040519150601f19603f3d011682016040523d82523d6000602084013e6126e2565b606091505b50509050806127035760405162461bcd60e51b815260040161055690613c04565b6040514790612713908990613c3b565b604051908190038120888252907fb92593ddb502b290f624dc88a0fbb4e2bc9adb1694d935cb7cb63e4739ae24729060200160405180910390a2604080516001600160a01b038616815260208101899052908101849052606081018290527f53cf3439d56bb61b69dd11f1bfdeef2d29672b23bebd9360ae329c187979f56b9060800160405180910390a1505050612a75565b8260ff16600103612325576001600160a01b0382166127d75760405162461bcd60e51b81526004016105569061379d565b6040516370a0823160e01b81526000906001600160a01b038416906370a08231906128069030906004016131c9565b602060405180830381865afa158015612823573d6000803e3d6000fd5b505050506040513d601f19601f820116820180604052508101906128479190613696565b9050848110156128695760405162461bcd60e51b815260040161055690613c57565b61287d6001600160a01b0384168387612ac3565b6040516370a0823160e01b81526000906001600160a01b038516906370a08231906128ac9030906004016131c9565b602060405180830381865afa1580156128c9573d6000803e3d6000fd5b505050506040513d601f19601f820116820180604052508101906128ed9190613696565b9050866040516128fd9190613c3b565b60405180910390207f1711925c600063e8f61cd29d18cd4043af08318593446837b21f9e1a6682d85b8588604051612936929190613b3b565b60405180910390a27f2c80963b85b9c9115a161a93105c3a668424efd4f872e34fdaed5f7913072aa2838588876001600160a01b03166370a08231306040518263ffffffff1660e01b815260040161298e91906131c9565b602060405180830381865afa1580156129ab573d6000803e3d6000fd5b505050506040513d601f19601f820116820180604052508101906129cf9190613696565b6040516370a0823160e01b81526001600160a01b038a16906370a08231906129fb908b906004016131c9565b602060405180830381865afa158015612a18573d6000803e3d6000fd5b505050506040513d601f19601f82011682018060405250810190612a3c9190613696565b604080516001600160a01b039687168152959094166020860152928401919091526060830152608082015260a00160405180910390a150505b7f1c116e83290f4e85a3cb0b5e95c154f7819014534a754ea34d35655308bfa4f9858585858a604051612aac959493929190613d36565b60405180910390a150505050505061164760018055565b612ae28363a9059cbb60e01b8484604051602401611d59929190613b3b565b505050565b6000612b3c826040518060400160405280602081526020017f5361666545524332303a206c6f772d6c6576656c2063616c6c206661696c6564815250856001600160a01b0316612c8b9092919063ffffffff16565b9050805160001480612b5d575080806020019051810190612b5d9190613d79565b612ae25760405162461bcd60e51b815260206004820152602a60248201527f5361666545524332303a204552433230206f7065726174696f6e20646964206e6044820152691bdd081cdd58d8d9595960b21b6064820152608401610556565b60008060008351604114612c0d5760405162461bcd60e51b8152602060048201526018602482015277092dcecc2d8d2c840e6d2cedcc2e8eae4ca40d8cadccee8d60431b6044820152606401610556565b50505060208101516040820151606083015160001a601b811015612c3957612c36601b82613d9b565b90505b9193909250565b612c486113b7565b610f085760405162461bcd60e51b815260206004820152601460248201527314185d5cd8589b194e881b9bdd081c185d5cd95960621b6044820152606401610556565b6060612c9a8484600085612ca2565b949350505050565b606082471015612d035760405162461bcd60e51b815260206004820152602660248201527f416464726573733a20696e73756666696369656e742062616c616e636520666f6044820152651c8818d85b1b60d21b6064820152608401610556565b600080866001600160a01b03168587604051612d1f9190613c3b565b60006040518083038185875af1925050503d8060008114612d5c576040519150601f19603f3d011682016040523d82523d6000602084013e612d61565b606091505b5091509150612d7287838387612d7d565b979650505050505050565b60608315612dec578251600003612de5576001600160a01b0385163b612de55760405162461bcd60e51b815260206004820152601d60248201527f416464726573733a2063616c6c20746f206e6f6e2d636f6e74726163740000006044820152606401610556565b5081612c9a565b612c9a8383815115612e015781518083602001fd5b8060405162461bcd60e51b81526004016105569190613db4565b508054612e2790613881565b6000825580601f10612e37575050565b601f01602090049060005260206000209081019061164791905b80821115612e655760008155600101612e51565b5090565b600060208284031215612e7b57600080fd5b81356001600160e01b03198116811461114b57600080fd5b80356001600160401b0381168114612eaa57600080fd5b919050565b60008083601f840112612ec157600080fd5b5081356001600160401b03811115612ed857600080fd5b602083019150836020828501011115612ef057600080fd5b9250929050565b6001600160a01b038116811461164757600080fd5b8035612eaa81612ef7565b600080600080600060808688031215612f2f57600080fd5b612f3886612e93565b945060208601356001600160401b03811115612f5357600080fd5b612f5f88828901612eaf565b9095509350506040860135612f7381612ef7565b949793965091946060013592915050565b60008060008060008060a08789031215612f9d57600080fd5b8635612fa881612ef7565b955060208701359450612fbd60408801612e93565b935060608701356001600160401b03811115612fd857600080fd5b612fe489828a01612eaf565b9094509250506080870135612ff881612ef7565b809150509295509295509295565b634e487b7160e01b600052604160045260246000fd5b604080519081016001600160401b038111828210171561303e5761303e613006565b60405290565b60405160a081016001600160401b038111828210171561303e5761303e613006565b604051601f8201601f191681016001600160401b038111828210171561308e5761308e613006565b604052919050565b60006001600160401b038211156130af576130af613006565b50601f01601f191660200190565b600082601f8301126130ce57600080fd5b81356130e16130dc82613096565b613066565b8181528460208386010111156130f657600080fd5b816020850160208301376000918101602001919091529392505050565b60ff8116811461164757600080fd5b60008060008060008060c0878903121561313b57600080fd5b8635955060208701356001600160401b038082111561315957600080fd5b6131658a838b016130bd565b9650604089013591508082111561317b57600080fd5b5061318889828a016130bd565b9450506060870135925060808701356131a081613113565b915060a0870135612ff881612ef7565b6000602082840312156131c257600080fd5b5035919050565b6001600160a01b0391909116815260200190565b60005b838110156131f85781810151838201526020016131e0565b50506000910152565b600081518084526132198160208601602086016131dd565b601f01601f19169290920160200192915050565b6080815260006132406080830187613201565b60208301959095525060ff9290921660408301526001600160a01b0316606090910152919050565b60006020828403121561327a57600080fd5b813561114b81612ef7565b600082601f83011261329657600080fd5b813560206001600160401b038211156132b1576132b1613006565b6132bf818360051b01613066565b82815260069290921b840181019181810190868411156132de57600080fd5b8286015b8481101561332657604081890312156132fb5760008081fd5b61330361301c565b813561330e81612ef7565b815281850135858201528352918301916040016132e2565b509695505050505050565b6000806040838503121561334457600080fd5b61334d83612e93565b915060208301356001600160401b038082111561336957600080fd5b9084019060a0828703121561337d57600080fd5b613385613044565b82358281111561339457600080fd5b6133a0888286016130bd565b8252506020830135828111156133b557600080fd5b6133c1888286016130bd565b6020830152506040830135828111156133d957600080fd5b6133e588828601613285565b6040830152506133f760608401612f0c565b606082015260808301358281111561340e57600080fd5b61341a888286016130bd565b6080830152508093505050509250929050565b60006020828403121561343f57600080fd5b81356001600160401b0381111561345557600080fd5b820160a0818503121561114b57600080fd5b6000806040838503121561347a57600080fd5b823561348581612ef7565b946020939093013593505050565b600080604083850312156134a657600080fd5b8235915060208301356134b881612ef7565b809150509250929050565b60208082526024908201527f44657374696e6174696f6e2061646472657373206d75737420626520323020626040820152637974657360e01b606082015260800190565b60208082526029908201527f44657374696e6174696f6e2077616c6c657420616464726573732063616e6e6f60408201526874206265207a65726f60b81b606082015260800190565b634e487b7160e01b600052601160045260246000fd5b818103818111156104f4576104f4613550565b6001600160a01b039485168152602081019390935260ff919091166040830152909116606082015260800190565b634e487b7160e01b600052603260045260246000fd5b600060406001600160401b038516835260208181850152845160a0838601526135e960e0860182613201565b905081860151603f19808784030160608801526136068383613201565b88860151888203830160808a01528051808352908601945060009350908501905b8084101561365957845180516001600160a01b0316835286015186830152938501936001939093019290860190613627565b5060608901516001600160a01b031660a08901526080890151888203830160c08a015295506136888187613201565b9a9950505050505050505050565b6000602082840312156136a857600080fd5b5051919050565b81835281816020850137506000828201602090810191909152601f909101601f19169091010190565b8581526001600160401b03851660208201526080604082015260006137016080830185876136af565b905060018060a01b03831660608301529695505050505050565b808201808211156104f4576104f4613550565b6020808252601290820152710416d6f756e74206d757374206265203e20360741b604082015260600190565b60208082526023908201527f44657374696e6174696f6e20616464726573732063616e6e6f7420626520656d60408201526270747960e81b606082015260800190565b602080825260159082015274496e76616c696420746f6b656e206164647265737360581b604082015260600190565b600060018060a01b0380891683528760208401526001600160401b038716604084015260a0606084015261380460a0840186886136af565b9150808416608084015250979650505050505050565b6020808252601b908201527f496e76616c696420757365722061646472657373206c656e6774680000000000604082015260600190565b602080825260169082015275556e737570706f7274656420746f6b656e207479706560501b604082015260600190565b600181811c9082168061389557607f821691505b6020821081036138b557634e487b7160e01b600052602260045260246000fd5b50919050565b601f821115612ae257600081815260208120601f850160051c810160208610156138e25750805b601f850160051c820191505b8181101561098a578281556001016138ee565b81516001600160401b0381111561391a5761391a613006565b61392e816139288454613881565b846138bb565b602080601f831160018114613963576000841561394b5750858301515b600019600386901b1c1916600185901b17855561098a565b600085815260208120601f198616915b8281101561399257888601518255948401946001909101908401613973565b50858210156139b05787850151600019600388901b60f8161c191681555b5050505050600190811b01905550565b634e487b7160e01b600052603160045260246000fd5b80820281158282048414176104f4576104f4613550565b600082613a0a57634e487b7160e01b600052601260045260246000fd5b500490565b600060018201613a2157613a21613550565b5060010190565b600060018060a01b03808816835261ffff8716602084015285604084015284606084015260a060808401528084511660a08401528060208501511660c0840152506040830151606060e0840152613a83610100840182613201565b98975050505050505050565b600060a08236031215613aa157600080fd5b613aa9613044565b82358152613ab960208401612e93565b602082015260408301356001600160401b0380821115613ad857600080fd5b613ae4368387016130bd565b60408401526060850135915080821115613afd57600080fd5b613b09368387016130bd565b60608401526080850135915080821115613b2257600080fd5b50613b2f36828601613285565b60808301525092915050565b6001600160a01b03929092168252602082015260400190565b60208082526019908201527813595cdcd859d948185b1c9958591e481c1c9bd8d95cdcd959603a1b604082015260600190565b805160208201516bffffffffffffffffffffffff198082169291906014831015613bbb5780818460140360031b1b83161693505b505050919050565b60208082526021908201527f496e73756666696369656e74206e617469766520746f6b656e2062616c616e636040820152606560f81b606082015260800190565b6020808252601b908201527f4661696c656420746f2073656e64206e617469766520746f6b656e0000000000604082015260600190565b60008251613c4d8184602087016131dd565b9190910192915050565b6020808252601a908201527f496e73756666696369656e742045524332302062616c616e6365000000000000604082015260600190565b60008060008060808587031215613ca457600080fd5b84516001600160401b03811115613cba57600080fd5b8501601f81018713613ccb57600080fd5b8051613cd96130dc82613096565b818152886020838501011115613cee57600080fd5b613cff8260208301602086016131dd565b809650505050602085015192506040850151613d1a81613113565b6060860151909250613d2b81612ef7565b939692955090935050565b60a081526000613d4960a0830188613201565b60208301969096525060ff9390931660408401526001600160a01b03919091166060830152608090910152919050565b600060208284031215613d8b57600080fd5b8151801515811461114b57600080fd5b60ff81811683821601908111156104f4576104f4613550565b60208152600061114b602083018461320156feecad42c0b40432bdf502c01e0419e6700876432b383b3cbc3ca249fb7aa18fa1a26469706673582212207ba2232e6604c97868c866623222640d4c19d75981ef7f3f9aa476496d9b6b1264736f6c63430008140033",
  "linkReferences": {},
  "deployedLinkReferences": {}
}