{
  "_format": "hh-sol-artifact-1",
  "contractName": "B3BridgeDest",
  "sourceName": "contracts/B3BridgeDest.sol",
  "abi": [
    {
      "inputs": [
        {
          "internalType": "address",
          "name": "router",
          "type": "address"
        },
        {
          "internalType": "address",
          "name": "_sourceBridge",
          "type": "address"
        },
        {
          "internalType": "uint64",
          "name": "_sourceChainSelector",
          "type": "uint64"
        }
      ],
      "stateMutability": "nonpayable",
      "type": "constructor"
    },
    {
      "inputs": [
        {
          "internalType": "address",
          "name": "router",
          "type": "address"
        }
      ],
      "name": "InvalidRouter",
      "type": "error"
    },
    {
      "inputs": [
        {
          "internalType": "address",
          "name": "owner",
          "type": "address"
        }
      ],
      "name": "OwnableInvalidOwner",
      "type": "error"
    },
    {
      "inputs": [
        {
          "internalType": "address",
          "name": "account",
          "type": "address"
        }
      ],
      "name": "OwnableUnauthorizedAccount",
      "type": "error"
    },
    {
      "anonymous": false,
      "inputs": [
        {
          "indexed": true,
          "internalType": "bytes32",
          "name": "messageId",
          "type": "bytes32"
        },
        {
          "indexed": true,
          "internalType": "address",
          "name": "user",
          "type": "address"
        },
        {
          "indexed": false,
          "internalType": "bytes32",
          "name": "tokenId",
          "type": "bytes32"
        },
        {
          "indexed": false,
          "internalType": "uint256",
          "name": "amount",
          "type": "uint256"
        }
      ],
      "name": "BurnTokenCCIP",
      "type": "event"
    },
    {
      "anonymous": false,
      "inputs": [
        {
          "indexed": false,
          "internalType": "uint256",
          "name": "fee",
          "type": "uint256"
        }
      ],
      "name": "DebugFee",
      "type": "event"
    },
    {
      "anonymous": false,
      "inputs": [
        {
          "indexed": false,
          "internalType": "string",
          "name": "message",
          "type": "string"
        }
      ],
      "name": "DebugMsg",
      "type": "event"
    },
    {
      "anonymous": false,
      "inputs": [
        {
          "indexed": false,
          "internalType": "bytes32",
          "name": "tokenId",
          "type": "bytes32"
        },
        {
          "indexed": false,
          "internalType": "address",
          "name": "tokenAddress",
          "type": "address"
        }
      ],
      "name": "DebugTokenAddress",
      "type": "event"
    },
    {
      "anonymous": false,
      "inputs": [
        {
          "indexed": true,
          "internalType": "bytes32",
          "name": "messageId",
          "type": "bytes32"
        },
        {
          "indexed": true,
          "internalType": "uint64",
          "name": "sourceChainSelector",
          "type": "uint64"
        },
        {
          "indexed": false,
          "internalType": "address",
          "name": "receiver",
          "type": "address"
        },
        {
          "indexed": false,
          "internalType": "bytes32",
          "name": "tokenId",
          "type": "bytes32"
        },
        {
          "indexed": false,
          "internalType": "uint256",
          "name": "amount",
          "type": "uint256"
        }
      ],
      "name": "MintToken",
      "type": "event"
    },
    {
      "anonymous": false,
      "inputs": [
        {
          "indexed": true,
          "internalType": "address",
          "name": "previousOwner",
          "type": "address"
        },
        {
          "indexed": true,
          "internalType": "address",
          "name": "newOwner",
          "type": "address"
        }
      ],
      "name": "OwnershipTransferred",
      "type": "event"
    },
    {
      "inputs": [
        {
          "internalType": "bytes32",
          "name": "tokenId",
          "type": "bytes32"
        },
        {
          "internalType": "uint256",
          "name": "amount",
          "type": "uint256"
        }
      ],
      "name": "burnTokenCCIP",
      "outputs": [
        {
          "internalType": "bytes32",
          "name": "messageId",
          "type": "bytes32"
        }
      ],
      "stateMutability": "payable",
      "type": "function"
    },
    {
      "inputs": [
        {
          "components": [
            {
              "internalType": "bytes32",
              "name": "messageId",
              "type": "bytes32"
            },
            {
              "internalType": "uint64",
              "name": "sourceChainSelector",
              "type": "uint64"
            },
            {
              "internalType": "bytes",
              "name": "sender",
              "type": "bytes"
            },
            {
              "internalType": "bytes",
              "name": "data",
              "type": "bytes"
            },
            {
              "components": [
                {
                  "internalType": "address",
                  "name": "token",
                  "type": "address"
                },
                {
                  "internalType": "uint256",
                  "name": "amount",
                  "type": "uint256"
                }
              ],
              "internalType": "struct Client.EVMTokenAmount[]",
              "name": "destTokenAmounts",
              "type": "tuple[]"
            }
          ],
          "internalType": "struct Client.Any2EVMMessage",
          "name": "message",
          "type": "tuple"
        }
      ],
      "name": "ccipReceive",
      "outputs": [],
      "stateMutability": "nonpayable",
      "type": "function"
    },
    {
      "inputs": [
        {
          "internalType": "uint256",
          "name": "amount",
          "type": "uint256"
        },
        {
          "internalType": "bytes32",
          "name": "tokenId",
          "type": "bytes32"
        }
      ],
      "name": "getFeeCCIP",
      "outputs": [
        {
          "internalType": "uint256",
          "name": "",
          "type": "uint256"
        }
      ],
      "stateMutability": "view",
      "type": "function"
    },
    {
      "inputs": [],
      "name": "getRouter",
      "outputs": [
        {
          "internalType": "address",
          "name": "",
          "type": "address"
        }
      ],
      "stateMutability": "view",
      "type": "function"
    },
    {
      "inputs": [],
      "name": "owner",
      "outputs": [
        {
          "internalType": "address",
          "name": "",
          "type": "address"
        }
      ],
      "stateMutability": "view",
      "type": "function"
    },
    {
      "inputs": [],
      "name": "renounceOwnership",
      "outputs": [],
      "stateMutability": "nonpayable",
      "type": "function"
    },
    {
      "inputs": [
        {
          "internalType": "bytes32",
          "name": "tokenId",
          "type": "bytes32"
        },
        {
          "internalType": "address",
          "name": "tokenAddress",
          "type": "address"
        }
      ],
      "name": "setTokenMapping",
      "outputs": [],
      "stateMutability": "nonpayable",
      "type": "function"
    },
    {
      "inputs": [],
      "name": "sourceBridge",
      "outputs": [
        {
          "internalType": "address",
          "name": "",
          "type": "address"
        }
      ],
      "stateMutability": "view",
      "type": "function"
    },
    {
      "inputs": [],
      "name": "sourceChainSelector",
      "outputs": [
        {
          "internalType": "uint64",
          "name": "",
          "type": "uint64"
        }
      ],
      "stateMutability": "view",
      "type": "function"
    },
    {
      "inputs": [
        {
          "internalType": "bytes4",
          "name": "interfaceId",
          "type": "bytes4"
        }
      ],
      "name": "supportsInterface",
      "outputs": [
        {
          "internalType": "bool",
          "name": "",
          "type": "bool"
        }
      ],
      "stateMutability": "view",
      "type": "function"
    },
    {
      "inputs": [
        {
          "internalType": "bytes32",
          "name": "",
          "type": "bytes32"
        }
      ],
      "name": "tokenMapping",
      "outputs": [
        {
          "internalType": "address",
          "name": "",
          "type": "address"
        }
      ],
      "stateMutability": "view",
      "type": "function"
    },
    {
      "inputs": [
        {
          "internalType": "address",
          "name": "newOwner",
          "type": "address"
        }
      ],
      "name": "transferOwnership",
      "outputs": [],
      "stateMutability": "nonpayable",
      "type": "function"
    },
    {
      "inputs": [
        {
          "internalType": "address",
          "name": "newOwner",
          "type": "address"
        },
        {
          "internalType": "bytes32",
          "name": "tokenId",
          "type": "bytes32"
        }
      ],
      "name": "transferTokenOwnership",
      "outputs": [],
      "stateMutability": "nonpayable",
      "type": "function"
    },
    {
      "inputs": [
        {
          "internalType": "address",
          "name": "_sourceBridge",
          "type": "address"
        },
        {
          "internalType": "uint64",
          "name": "_sourceChainSelector",
          "type": "uint64"
        }
      ],
      "name": "updateSourceBridge",
      "outputs": [],
      "stateMutability": "nonpayable",
      "type": "function"
    },
    {
      "inputs": [],
      "name": "withdraw",
      "outputs": [],
      "stateMutability": "nonpayable",
      "type": "function"
    },
    {
      "stateMutability": "payable",
      "type": "receive"
    }
  ],
  "bytecode": "0x60a06040523480156200001157600080fd5b5060405162001c8638038062001c8683398101604081905262000034916200014b565b33836001600160a01b03811662000066576040516335fdcccd60e21b8152600060048201526024015b60405180910390fd5b6001600160a01b0390811660805281166200009857604051631e4fbdf760e01b8152600060048201526024016200005d565b620000a381620000de565b50600280546001600160401b03909216600160a01b026001600160e01b03199092166001600160a01b039093169290921717905550620001a5565b600080546001600160a01b038381166001600160a01b0319831681178455604051919092169283917f8be0079c531659141344cd1fd0a4f28419497f9722a3daafe3b4186f6b6457e09190a35050565b80516001600160a01b03811681146200014657600080fd5b919050565b6000806000606084860312156200016157600080fd5b6200016c846200012e565b92506200017c602085016200012e565b60408501519092506001600160401b03811681146200019a57600080fd5b809150509250925092565b608051611ab0620001d6600039600081816102750152818161065801528181610ce6015261112e0152611ab06000f3fe6080604052600436106100ec5760003560e01c806385572ffb1161008a578063d227f6ff11610059578063d227f6ff14610299578063eda98826146102b9578063f2fde38b146102d9578063fbf4e708146102f957600080fd5b806385572ffb146102075780638da5cb5b14610227578063aa7568da14610245578063b0f479a11461026657600080fd5b806364b6478b116100c657806364b6478b14610164578063667cb4ba146101845780636bbfdf47146101d2578063715018a6146101f257600080fd5b806301ffc9a7146100f857806326bdce5a1461012d5780633ccfd60b1461014f57600080fd5b366100f357005b600080fd5b34801561010457600080fd5b50610118610113366004611484565b610338565b60405190151581526020015b60405180910390f35b34801561013957600080fd5b5061014d6101483660046114ca565b61036f565b005b34801561015b57600080fd5b5061014d610529565b34801561017057600080fd5b5061014d61017f3660046114f6565b6105b5565b34801561019057600080fd5b506101ba61019f366004611526565b6001602052600090815260409020546001600160a01b031681565b6040516001600160a01b039091168152602001610124565b3480156101de57600080fd5b506002546101ba906001600160a01b031681565b3480156101fe57600080fd5b5061014d610639565b34801561021357600080fd5b5061014d61022236600461153f565b61064d565b34801561023357600080fd5b506000546001600160a01b03166101ba565b610258610253366004611579565b6106ac565b604051908152602001610124565b34801561027257600080fd5b507f00000000000000000000000000000000000000000000000000000000000000006101ba565b3480156102a557600080fd5b506102586102b4366004611579565b61102a565b3480156102c557600080fd5b5061014d6102d43660046115b7565b6111c6565b3480156102e557600080fd5b5061014d6102f43660046115ec565b611203565b34801561030557600080fd5b5060025461032090600160a01b90046001600160401b031681565b6040516001600160401b039091168152602001610124565b60006001600160e01b031982166385572ffb60e01b148061036957506001600160e01b031982166301ffc9a760e01b145b92915050565b61037761123e565b6001600160a01b0382166103d25760405162461bcd60e51b815260206004820152601960248201527f4e6577206f776e6572206973207a65726f20616464726573730000000000000060448201526064015b60405180910390fd5b6000818152600160205260409020546001600160a01b0316806104075760405162461bcd60e51b81526004016103c990611609565b306001600160a01b0316816001600160a01b0316638da5cb5b6040518163ffffffff1660e01b8152600401602060405180830381865afa15801561044f573d6000803e3d6000fd5b505050506040513d601f19601f820116820180604052508101906104739190611634565b6001600160a01b0316146104c95760405162461bcd60e51b815260206004820152601960248201527f427269646765206973206e6f7420746f6b656e206f776e65720000000000000060448201526064016103c9565b60405163f2fde38b60e01b81526001600160a01b03848116600483015282169063f2fde38b90602401600060405180830381600087803b15801561050c57600080fd5b505af1158015610520573d6000803e3d6000fd5b50505050505050565b61053161123e565b47806105785760405162461bcd60e51b81526020600482015260166024820152754e6f2062616c616e636520746f20776974686472617760501b60448201526064016103c9565b600080546040516001600160a01b039091169183156108fc02918491818181858888f193505050501580156105b1573d6000803e3d6000fd5b5050565b6105bd61123e565b6001600160a01b03811661060b5760405162461bcd60e51b8152602060048201526015602482015274496e76616c696420746f6b656e206164647265737360581b60448201526064016103c9565b60009182526001602052604090912080546001600160a01b0319166001600160a01b03909216919091179055565b61064161123e565b61064b600061126b565b565b336001600160a01b037f00000000000000000000000000000000000000000000000000000000000000001614610698576040516335fdcccd60e21b81523360048201526024016103c9565b6106a96106a4826117fc565b6112bb565b50565b60008082116106fd5760405162461bcd60e51b815260206004820152601d60248201527f416d6f756e74206d7573742062652067726561746572207468616e203000000060448201526064016103c9565b6000838152600160209081526040918290205482518681526001600160a01b0390911691810182905290917f36170320d8ca8be3d546f9996a88ecdb045666ab852703d1b7ee975a9e1d32f2910160405180910390a16001600160a01b0381166107795760405162461bcd60e51b81526004016103c990611609565b600080516020611a5b8339815191526040516107bc9060208082526013908201527205374617274206275726e546f6b656e4343495606c1b604082015260600190565b60405180910390a1604051636eb1769f60e11b81523360048201523060248201526000906001600160a01b0383169063dd62ed3e90604401602060405180830381865afa158015610811573d6000803e3d6000fd5b505050506040513d601f19601f8201168201806040525081019061083591906118a8565b9050838110156108805760405162461bcd60e51b8152602060048201526016602482015275496e73756666696369656e7420616c6c6f77616e636560501b60448201526064016103c9565b6040516370a0823160e01b81523360048201526000906001600160a01b038416906370a0823190602401602060405180830381865afa1580156108c7573d6000803e3d6000fd5b505050506040513d601f19601f820116820180604052508101906108eb91906118a8565b90508481101561093d5760405162461bcd60e51b815260206004820152601960248201527f496e73756666696369656e7420757365722062616c616e63650000000000000060448201526064016103c9565b600080516020611a5b83398151915260405161097c906020808252600f908201526e557365722062616c616e6365204f4b60881b604082015260600190565b60405180910390a16040516323b872dd60e01b8152336004820152306024820152604481018690526000906001600160a01b038516906323b872dd906064016020604051808303816000875af11580156109da573d6000803e3d6000fd5b505050506040513d601f19601f820116820180604052508101906109fe91906118c1565b905080610a435760405162461bcd60e51b81526020600482015260136024820152721d1c985b9cd9995c919c9bdb4819985a5b1959606a1b60448201526064016103c9565b600080516020611a5b833981519152604051610a87906020808252601490820152737472616e7366657246726f6d207375636365737360601b604082015260600190565b60405180910390a16040516370a0823160e01b81523060048201526000906001600160a01b038616906370a0823190602401602060405180830381865afa158015610ad6573d6000803e3d6000fd5b505050506040513d601f19601f82011682018060405250810190610afa91906118a8565b905086811015610b605760405162461bcd60e51b815260206004820152602b60248201527f436f6e74726163742062616c616e636520746f6f206c6f77206166746572207460448201526a72616e7366657246726f6d60a81b60648201526084016103c9565b604051632770a7eb60e21b8152306004820152602481018890526001600160a01b03861690639dc29fac90604401600060405180830381600087803b158015610ba857600080fd5b505af1158015610bbc573d6000803e3d6000fd5b50505050600080516020611a5b833981519152604051610bfc906020808252600c908201526b151bdad95b88189d5c9b995960a21b604082015260600190565b60405180910390a16040805160a0810182526002546001600160a01b031660c0808301919091528251808303909101815260e08201835281528151336020808301919091528184018c905260608083018c9052845180840390910181526080909201845280830191909152825160008082529181018452909282019083610ca5565b6040805180820190915260008082526020820152815260200190600190039081610c7e5790505b50815260200160006001600160a01b03168152602001610cde60405180604001604052806207a12081526020016001151581525061143a565b9052905060007f00000000000000000000000000000000000000000000000000000000000000006002546040516320487ded60e01b81529192506000916001600160a01b038416916320487ded91610d4b91600160a01b90046001600160401b0316908790600401611929565b602060405180830381865afa158015610d68573d6000803e3d6000fd5b505050506040513d601f19601f82011682018060405250810190610d8c91906118a8565b90507f01c07ee12c70d5c6053fd06c4684862308f1d87ce067678c60fec95f02ecb32381604051610dbf91815260200190565b60405180910390a180341015610e0f5760405162461bcd60e51b8152602060048201526015602482015274125b9cdd59999a58da595b9d08199959481cd95b9d605a1b60448201526064016103c9565b6002546040516396f4e9f960e01b81526001600160a01b038416916396f4e9f9913491610e5291600160a01b9091046001600160401b0316908890600401611929565b60206040518083038185885af1158015610e70573d6000803e3d6000fd5b50505050506040513d601f19601f82011682018060405250810190610e9591906118a8565b604080518d8152602081018d9052919a5033918b917f1059114fec5b70356dc48b7f3dc7db086dd1e99c932c5622c535859344584f79910160405180910390a380341115610fd3576000610ee98234611a02565b604051909150600090339083908381818185875af1925050503d8060008114610f2e576040519150601f19603f3d011682016040523d82523d6000602084013e610f33565b606091505b505090508015610f8a57600080516020611a5b833981519152604051610f7d9060208082526010908201526f1499599d5b99081cdd58d8d95959195960821b604082015260600190565b60405180910390a1610fd0565b600080516020611a5b833981519152604051610fc7906020808252600d908201526c1499599d5b990819985a5b1959609a1b604082015260600190565b60405180910390a15b50505b600080516020611a5b833981519152604051611014906020808252601190820152700456e64206275726e546f6b656e4343495607c1b604082015260600190565b60405180910390a1505050505050505092915050565b6040805160a081019091526002546001600160a01b031660c082015260009081908060e0810160408051601f198184030181529181529082528051336020828101919091529181018790526060810188905291019060800160408051601f19818403018152919052815260200160006040519080825280602002602001820160405280156110de57816020015b60408051808201909152600080825260208201528152602001906001900390816110b75790505b50815260200160006001600160a01b0316815260200161111760405180604001604052806207a12081526020016001151581525061143a565b90526002546040516320487ded60e01b81529192507f00000000000000000000000000000000000000000000000000000000000000006001600160a01b0316916320487ded9161117d91600160a01b9091046001600160401b0316908590600401611929565b602060405180830381865afa15801561119a573d6000803e3d6000fd5b505050506040513d601f19601f820116820180604052508101906111be91906118a8565b949350505050565b6111ce61123e565b600280546001600160401b03909216600160a01b026001600160e01b03199092166001600160a01b0390931692909217179055565b61120b61123e565b6001600160a01b03811661123557604051631e4fbdf760e01b8152600060048201526024016103c9565b6106a98161126b565b6000546001600160a01b0316331461064b5760405163118cdaa760e01b81523360048201526024016103c9565b600080546001600160a01b038381166001600160a01b0319831681178455604051919092169283917f8be0079c531659141344cd1fd0a4f28419497f9722a3daafe3b4186f6b6457e09190a35050565b60025460208201516001600160401b03908116600160a01b909204161461131b5760405162461bcd60e51b815260206004820152601460248201527324b73b30b634b21039b7bab931b29031b430b4b760611b60448201526064016103c9565b600080600083606001518060200190518101906113389190611a23565b60008281526001602052604090205492955090935091506001600160a01b0316806113755760405162461bcd60e51b81526004016103c990611609565b6040516340c10f1960e01b81526001600160a01b038581166004830152602482018490528216906340c10f1990604401600060405180830381600087803b1580156113bf57600080fd5b505af11580156113d3573d6000803e3d6000fd5b505050506020858101518651604080516001600160a01b038916815293840187905283018590526001600160401b03909116917fdf6911333022044ea90bf5552ed8c6c2755dcd87e271a3e6b32e6056c06132d79060600160405180910390a35050505050565b6040805182516024820152602092830151151560448083019190915282518083039091018152606490910190915290810180516001600160e01b0316630181dcf160e41b17905290565b60006020828403121561149657600080fd5b81356001600160e01b0319811681146114ae57600080fd5b9392505050565b6001600160a01b03811681146106a957600080fd5b600080604083850312156114dd57600080fd5b82356114e8816114b5565b946020939093013593505050565b6000806040838503121561150957600080fd5b82359150602083013561151b816114b5565b809150509250929050565b60006020828403121561153857600080fd5b5035919050565b60006020828403121561155157600080fd5b81356001600160401b0381111561156757600080fd5b820160a081850312156114ae57600080fd5b6000806040838503121561158c57600080fd5b50508035926020909101359150565b80356001600160401b03811681146115b257600080fd5b919050565b600080604083850312156115ca57600080fd5b82356115d5816114b5565b91506115e36020840161159b565b90509250929050565b6000602082840312156115fe57600080fd5b81356114ae816114b5565b6020808252601190820152702ab739bab83837b93a32b2103a37b5b2b760791b604082015260600190565b60006020828403121561164657600080fd5b81516114ae816114b5565b634e487b7160e01b600052604160045260246000fd5b604080519081016001600160401b038111828210171561168957611689611651565b60405290565b60405160a081016001600160401b038111828210171561168957611689611651565b604051601f8201601f191681016001600160401b03811182821017156116d9576116d9611651565b604052919050565b600082601f8301126116f257600080fd5b81356001600160401b0381111561170b5761170b611651565b61171e601f8201601f19166020016116b1565b81815284602083860101111561173357600080fd5b816020850160208301376000918101602001919091529392505050565b600082601f83011261176157600080fd5b813560206001600160401b0382111561177c5761177c611651565b61178a818360051b016116b1565b82815260069290921b840181019181810190868411156117a957600080fd5b8286015b848110156117f157604081890312156117c65760008081fd5b6117ce611667565b81356117d9816114b5565b815281850135858201528352918301916040016117ad565b509695505050505050565b600060a0823603121561180e57600080fd5b61181661168f565b823581526118266020840161159b565b602082015260408301356001600160401b038082111561184557600080fd5b611851368387016116e1565b6040840152606085013591508082111561186a57600080fd5b611876368387016116e1565b6060840152608085013591508082111561188f57600080fd5b5061189c36828601611750565b60808301525092915050565b6000602082840312156118ba57600080fd5b5051919050565b6000602082840312156118d357600080fd5b815180151581146114ae57600080fd5b6000815180845260005b81811015611909576020818501810151868301820152016118ed565b506000602082860101526020601f19601f83011685010191505092915050565b600060406001600160401b038516835260208181850152845160a08386015261195560e08601826118e3565b905081860151603f198087840301606088015261197283836118e3565b88860151888203830160808a01528051808352908601945060009350908501905b808410156119c557845180516001600160a01b0316835286015186830152938501936001939093019290860190611993565b5060608901516001600160a01b031660a08901526080890151888203830160c08a015295506119f481876118e3565b9a9950505050505050505050565b8181038181111561036957634e487b7160e01b600052601160045260246000fd5b600080600060608486031215611a3857600080fd5b8351611a43816114b5565b60208501516040909501519096949550939250505056fe860fab49fdadbdbe734e78cb9bc1a5f504e2d1d356c9930aef6e010448db52b9a2646970667358221220b9464ca401d8ca8926d8a342a1ef6ba4802ac1baf6e8ed4ac13bac19db98acde64736f6c63430008140033",
  "linkReferences": {},
  "deployedLinkReferences": {}
}