{
  "_format": "hh-sol-artifact-1",
  "contractName": "B3BridgeDest",
  "sourceName": "contracts/B3BridgeDest.sol",
  "abi": [
    {
      "inputs": [
        {
          "internalType": "address",
          "name": "router",
          "type": "address"
        },
        {
          "internalType": "address",
          "name": "_sourceBridge",
          "type": "address"
        },
        {
          "internalType": "uint64",
          "name": "_sourceChainSelector",
          "type": "uint64"
        },
        {
          "internalType": "address[]",
          "name": "_validators",
          "type": "address[]"
        },
        {
          "internalType": "uint256",
          "name": "_threshold",
          "type": "uint256"
        },
        {
          "internalType": "address",
          "name": "_wTokenNative",
          "type": "address"
        }
      ],
      "stateMutability": "nonpayable",
      "type": "constructor"
    },
    {
      "inputs": [],
      "name": "ECDSAInvalidSignature",
      "type": "error"
    },
    {
      "inputs": [
        {
          "internalType": "uint256",
          "name": "length",
          "type": "uint256"
        }
      ],
      "name": "ECDSAInvalidSignatureLength",
      "type": "error"
    },
    {
      "inputs": [
        {
          "internalType": "bytes32",
          "name": "s",
          "type": "bytes32"
        }
      ],
      "name": "ECDSAInvalidSignatureS",
      "type": "error"
    },
    {
      "inputs": [
        {
          "internalType": "address",
          "name": "router",
          "type": "address"
        }
      ],
      "name": "InvalidRouter",
      "type": "error"
    },
    {
      "inputs": [
        {
          "internalType": "address",
          "name": "owner",
          "type": "address"
        }
      ],
      "name": "OwnableInvalidOwner",
      "type": "error"
    },
    {
      "inputs": [
        {
          "internalType": "address",
          "name": "account",
          "type": "address"
        }
      ],
      "name": "OwnableUnauthorizedAccount",
      "type": "error"
    },
    {
      "inputs": [],
      "name": "ReentrancyGuardReentrantCall",
      "type": "error"
    },
    {
      "anonymous": false,
      "inputs": [
        {
          "indexed": true,
          "internalType": "bytes32",
          "name": "messageId",
          "type": "bytes32"
        },
        {
          "indexed": true,
          "internalType": "address",
          "name": "user",
          "type": "address"
        },
        {
          "indexed": false,
          "internalType": "bytes32",
          "name": "tokenId",
          "type": "bytes32"
        },
        {
          "indexed": false,
          "internalType": "uint256",
          "name": "amount",
          "type": "uint256"
        }
      ],
      "name": "BurnTokenCCIP",
      "type": "event"
    },
    {
      "anonymous": false,
      "inputs": [
        {
          "indexed": true,
          "internalType": "address",
          "name": "sender",
          "type": "address"
        },
        {
          "indexed": false,
          "internalType": "uint256",
          "name": "amount",
          "type": "uint256"
        },
        {
          "indexed": true,
          "internalType": "address",
          "name": "sourceBridge",
          "type": "address"
        },
        {
          "indexed": false,
          "internalType": "string",
          "name": "tokenSymbol",
          "type": "string"
        }
      ],
      "name": "BurnTokenVL",
      "type": "event"
    },
    {
      "anonymous": false,
      "inputs": [
        {
          "indexed": false,
          "internalType": "uint256",
          "name": "fee",
          "type": "uint256"
        }
      ],
      "name": "DebugFee",
      "type": "event"
    },
    {
      "anonymous": false,
      "inputs": [
        {
          "indexed": false,
          "internalType": "string",
          "name": "message",
          "type": "string"
        }
      ],
      "name": "DebugMsg",
      "type": "event"
    },
    {
      "anonymous": false,
      "inputs": [
        {
          "indexed": false,
          "internalType": "bytes32",
          "name": "tokenId",
          "type": "bytes32"
        },
        {
          "indexed": false,
          "internalType": "address",
          "name": "tokenAddress",
          "type": "address"
        }
      ],
      "name": "DebugTokenAddress",
      "type": "event"
    },
    {
      "anonymous": false,
      "inputs": [
        {
          "indexed": true,
          "internalType": "bytes32",
          "name": "messageHash",
          "type": "bytes32"
        }
      ],
      "name": "Executed",
      "type": "event"
    },
    {
      "anonymous": false,
      "inputs": [
        {
          "indexed": true,
          "internalType": "bytes32",
          "name": "messageId",
          "type": "bytes32"
        },
        {
          "indexed": true,
          "internalType": "uint64",
          "name": "sourceChainSelector",
          "type": "uint64"
        },
        {
          "indexed": false,
          "internalType": "address",
          "name": "receiver",
          "type": "address"
        },
        {
          "indexed": false,
          "internalType": "bytes32",
          "name": "tokenId",
          "type": "bytes32"
        },
        {
          "indexed": false,
          "internalType": "uint256",
          "name": "amount",
          "type": "uint256"
        }
      ],
      "name": "MintTokenCCIP",
      "type": "event"
    },
    {
      "anonymous": false,
      "inputs": [
        {
          "indexed": false,
          "internalType": "address",
          "name": "recipientAddr",
          "type": "address"
        },
        {
          "indexed": false,
          "internalType": "address",
          "name": "token",
          "type": "address"
        },
        {
          "indexed": false,
          "internalType": "uint256",
          "name": "amount",
          "type": "uint256"
        }
      ],
      "name": "MintedTokenVL",
      "type": "event"
    },
    {
      "anonymous": false,
      "inputs": [
        {
          "indexed": true,
          "internalType": "address",
          "name": "previousOwner",
          "type": "address"
        },
        {
          "indexed": true,
          "internalType": "address",
          "name": "newOwner",
          "type": "address"
        }
      ],
      "name": "OwnershipTransferred",
      "type": "event"
    },
    {
      "anonymous": false,
      "inputs": [
        {
          "indexed": true,
          "internalType": "bytes32",
          "name": "messageHash",
          "type": "bytes32"
        },
        {
          "indexed": true,
          "internalType": "address",
          "name": "signer",
          "type": "address"
        }
      ],
      "name": "SignatureSubmitted",
      "type": "event"
    },
    {
      "anonymous": false,
      "inputs": [
        {
          "indexed": false,
          "internalType": "uint256",
          "name": "newThreshold",
          "type": "uint256"
        }
      ],
      "name": "ThresholdUpdated",
      "type": "event"
    },
    {
      "anonymous": false,
      "inputs": [
        {
          "indexed": false,
          "internalType": "address",
          "name": "validator",
          "type": "address"
        }
      ],
      "name": "ValidatorAdded",
      "type": "event"
    },
    {
      "anonymous": false,
      "inputs": [
        {
          "indexed": false,
          "internalType": "address",
          "name": "validator",
          "type": "address"
        }
      ],
      "name": "ValidatorRemoved",
      "type": "event"
    },
    {
      "inputs": [],
      "name": "PAYLOAD_TYPEHASH",
      "outputs": [
        {
          "internalType": "bytes32",
          "name": "",
          "type": "bytes32"
        }
      ],
      "stateMutability": "view",
      "type": "function"
    },
    {
      "inputs": [
        {
          "internalType": "address",
          "name": "validator",
          "type": "address"
        }
      ],
      "name": "addValidator",
      "outputs": [],
      "stateMutability": "nonpayable",
      "type": "function"
    },
    {
      "inputs": [
        {
          "internalType": "bytes32",
          "name": "tokenId",
          "type": "bytes32"
        },
        {
          "internalType": "uint256",
          "name": "amount",
          "type": "uint256"
        }
      ],
      "name": "burnTokenCCIP",
      "outputs": [
        {
          "internalType": "bytes32",
          "name": "messageId",
          "type": "bytes32"
        }
      ],
      "stateMutability": "payable",
      "type": "function"
    },
    {
      "inputs": [
        {
          "internalType": "uint256",
          "name": "amount",
          "type": "uint256"
        }
      ],
      "name": "burnTokenVL",
      "outputs": [],
      "stateMutability": "payable",
      "type": "function"
    },
    {
      "inputs": [
        {
          "components": [
            {
              "internalType": "bytes32",
              "name": "messageId",
              "type": "bytes32"
            },
            {
              "internalType": "uint64",
              "name": "sourceChainSelector",
              "type": "uint64"
            },
            {
              "internalType": "bytes",
              "name": "sender",
              "type": "bytes"
            },
            {
              "internalType": "bytes",
              "name": "data",
              "type": "bytes"
            },
            {
              "components": [
                {
                  "internalType": "address",
                  "name": "token",
                  "type": "address"
                },
                {
                  "internalType": "uint256",
                  "name": "amount",
                  "type": "uint256"
                }
              ],
              "internalType": "struct Client.EVMTokenAmount[]",
              "name": "destTokenAmounts",
              "type": "tuple[]"
            }
          ],
          "internalType": "struct Client.Any2EVMMessage",
          "name": "message",
          "type": "tuple"
        }
      ],
      "name": "ccipReceive",
      "outputs": [],
      "stateMutability": "nonpayable",
      "type": "function"
    },
    {
      "inputs": [],
      "name": "domainSeparator",
      "outputs": [
        {
          "internalType": "bytes32",
          "name": "",
          "type": "bytes32"
        }
      ],
      "stateMutability": "view",
      "type": "function"
    },
    {
      "inputs": [
        {
          "internalType": "uint256",
          "name": "amount",
          "type": "uint256"
        },
        {
          "internalType": "bytes32",
          "name": "tokenId",
          "type": "bytes32"
        }
      ],
      "name": "getFeeCCIP",
      "outputs": [
        {
          "internalType": "uint256",
          "name": "",
          "type": "uint256"
        }
      ],
      "stateMutability": "view",
      "type": "function"
    },
    {
      "inputs": [],
      "name": "getRouter",
      "outputs": [
        {
          "internalType": "address",
          "name": "",
          "type": "address"
        }
      ],
      "stateMutability": "view",
      "type": "function"
    },
    {
      "inputs": [],
      "name": "getValidatorCount",
      "outputs": [
        {
          "internalType": "uint256",
          "name": "",
          "type": "uint256"
        }
      ],
      "stateMutability": "view",
      "type": "function"
    },
    {
      "inputs": [
        {
          "internalType": "bytes",
          "name": "signature",
          "type": "bytes"
        },
        {
          "components": [
            {
              "internalType": "bytes32",
              "name": "txKey",
              "type": "bytes32"
            },
            {
              "internalType": "address",
              "name": "from",
              "type": "address"
            },
            {
              "internalType": "address",
              "name": "to",
              "type": "address"
            },
            {
              "internalType": "address",
              "name": "tokenAddr",
              "type": "address"
            },
            {
              "internalType": "uint256",
              "name": "amount",
              "type": "uint256"
            },
            {
              "internalType": "uint8",
              "name": "tokenType",
              "type": "uint8"
            },
            {
              "internalType": "uint256",
              "name": "nonce",
              "type": "uint256"
            }
          ],
          "internalType": "struct B3BridgeDest.Payload",
          "name": "payload",
          "type": "tuple"
        }
      ],
      "name": "mintTokenVL",
      "outputs": [],
      "stateMutability": "nonpayable",
      "type": "function"
    },
    {
      "inputs": [
        {
          "internalType": "address",
          "name": "",
          "type": "address"
        }
      ],
      "name": "nonces",
      "outputs": [
        {
          "internalType": "uint256",
          "name": "",
          "type": "uint256"
        }
      ],
      "stateMutability": "view",
      "type": "function"
    },
    {
      "inputs": [],
      "name": "owner",
      "outputs": [
        {
          "internalType": "address",
          "name": "",
          "type": "address"
        }
      ],
      "stateMutability": "view",
      "type": "function"
    },
    {
      "inputs": [
        {
          "internalType": "bytes32",
          "name": "",
          "type": "bytes32"
        }
      ],
      "name": "payloadData",
      "outputs": [
        {
          "internalType": "bytes32",
          "name": "txKey",
          "type": "bytes32"
        },
        {
          "internalType": "address",
          "name": "from",
          "type": "address"
        },
        {
          "internalType": "address",
          "name": "to",
          "type": "address"
        },
        {
          "internalType": "address",
          "name": "tokenAddr",
          "type": "address"
        },
        {
          "internalType": "uint256",
          "name": "amount",
          "type": "uint256"
        },
        {
          "internalType": "uint8",
          "name": "tokenType",
          "type": "uint8"
        },
        {
          "internalType": "uint256",
          "name": "nonce",
          "type": "uint256"
        }
      ],
      "stateMutability": "view",
      "type": "function"
    },
    {
      "inputs": [
        {
          "internalType": "bytes32",
          "name": "",
          "type": "bytes32"
        }
      ],
      "name": "processedMessages",
      "outputs": [
        {
          "internalType": "bool",
          "name": "",
          "type": "bool"
        }
      ],
      "stateMutability": "view",
      "type": "function"
    },
    {
      "inputs": [
        {
          "internalType": "address",
          "name": "validator",
          "type": "address"
        }
      ],
      "name": "removeValidator",
      "outputs": [],
      "stateMutability": "nonpayable",
      "type": "function"
    },
    {
      "inputs": [],
      "name": "renounceOwnership",
      "outputs": [],
      "stateMutability": "nonpayable",
      "type": "function"
    },
    {
      "inputs": [
        {
          "internalType": "uint256",
          "name": "newThreshold",
          "type": "uint256"
        }
      ],
      "name": "setThreshold",
      "outputs": [],
      "stateMutability": "nonpayable",
      "type": "function"
    },
    {
      "inputs": [
        {
          "internalType": "bytes32",
          "name": "tokenId",
          "type": "bytes32"
        },
        {
          "internalType": "address",
          "name": "tokenAddress",
          "type": "address"
        }
      ],
      "name": "setTokenMapping",
      "outputs": [],
      "stateMutability": "nonpayable",
      "type": "function"
    },
    {
      "inputs": [
        {
          "internalType": "bytes32",
          "name": "",
          "type": "bytes32"
        }
      ],
      "name": "signatureCount",
      "outputs": [
        {
          "internalType": "uint256",
          "name": "",
          "type": "uint256"
        }
      ],
      "stateMutability": "view",
      "type": "function"
    },
    {
      "inputs": [
        {
          "internalType": "bytes32",
          "name": "",
          "type": "bytes32"
        },
        {
          "internalType": "address",
          "name": "",
          "type": "address"
        }
      ],
      "name": "signatures",
      "outputs": [
        {
          "internalType": "bool",
          "name": "",
          "type": "bool"
        }
      ],
      "stateMutability": "view",
      "type": "function"
    },
    {
      "inputs": [],
      "name": "sourceBridge",
      "outputs": [
        {
          "internalType": "address",
          "name": "",
          "type": "address"
        }
      ],
      "stateMutability": "view",
      "type": "function"
    },
    {
      "inputs": [],
      "name": "sourceChainSelector",
      "outputs": [
        {
          "internalType": "uint64",
          "name": "",
          "type": "uint64"
        }
      ],
      "stateMutability": "view",
      "type": "function"
    },
    {
      "inputs": [
        {
          "internalType": "bytes4",
          "name": "interfaceId",
          "type": "bytes4"
        }
      ],
      "name": "supportsInterface",
      "outputs": [
        {
          "internalType": "bool",
          "name": "",
          "type": "bool"
        }
      ],
      "stateMutability": "view",
      "type": "function"
    },
    {
      "inputs": [],
      "name": "threshold",
      "outputs": [
        {
          "internalType": "uint256",
          "name": "",
          "type": "uint256"
        }
      ],
      "stateMutability": "view",
      "type": "function"
    },
    {
      "inputs": [
        {
          "internalType": "bytes32",
          "name": "",
          "type": "bytes32"
        }
      ],
      "name": "tokenMapping",
      "outputs": [
        {
          "internalType": "address",
          "name": "",
          "type": "address"
        }
      ],
      "stateMutability": "view",
      "type": "function"
    },
    {
      "inputs": [
        {
          "internalType": "address",
          "name": "newOwner",
          "type": "address"
        }
      ],
      "name": "transferOwnership",
      "outputs": [],
      "stateMutability": "nonpayable",
      "type": "function"
    },
    {
      "inputs": [
        {
          "internalType": "address",
          "name": "newOwner",
          "type": "address"
        },
        {
          "internalType": "bytes32",
          "name": "tokenId",
          "type": "bytes32"
        }
      ],
      "name": "transferTokenOwnership",
      "outputs": [],
      "stateMutability": "nonpayable",
      "type": "function"
    },
    {
      "inputs": [
        {
          "internalType": "address",
          "name": "_sourceBridge",
          "type": "address"
        },
        {
          "internalType": "uint64",
          "name": "_sourceChainSelector",
          "type": "uint64"
        }
      ],
      "name": "updateSourceBridge",
      "outputs": [],
      "stateMutability": "nonpayable",
      "type": "function"
    },
    {
      "inputs": [
        {
          "internalType": "uint256",
          "name": "",
          "type": "uint256"
        }
      ],
      "name": "validators",
      "outputs": [
        {
          "internalType": "address",
          "name": "",
          "type": "address"
        }
      ],
      "stateMutability": "view",
      "type": "function"
    },
    {
      "inputs": [],
      "name": "wTokenNative",
      "outputs": [
        {
          "internalType": "address",
          "name": "",
          "type": "address"
        }
      ],
      "stateMutability": "view",
      "type": "function"
    },
    {
      "inputs": [],
      "name": "withdraw",
      "outputs": [],
      "stateMutability": "nonpayable",
      "type": "function"
    },
    {
      "stateMutability": "payable",
      "type": "receive"
    }
  ],
  "bytecode": "0x60c06040523480156200001157600080fd5b5060405162003c6a38038062003c6a833981016040819052620000349162000380565b33866001600160a01b03811662000066576040516335fdcccd60e21b8152600060048201526024015b60405180910390fd5b6001600160a01b0390811660805281166200009857604051631e4fbdf760e01b8152600060048201526024016200005d565b620000a3816200027c565b50600180558251620000f85760405162461bcd60e51b815260206004820152601e60248201527f56616c696461746f72206c6973742063616e6e6f7420626520656d707479000060448201526064016200005d565b6000821180156200010a575082518211155b6200014c5760405162461bcd60e51b8152602060048201526011602482015270125b9d985b1a59081d1a1c995cda1bdb19607a1b60448201526064016200005d565b6001600160a01b0381811660a052600380549187166001600160e01b031990921691909117600160a01b6001600160401b03871602179055825162000199906004906020860190620002cc565b50506005555050604080518082018252600c81526b108cd09c9a5919d951195cdd60a21b6020918201528151808301835260018152603160f81b9082015281517f8b73c3c69bb8fe3d512ecc4cf759cc79239f7b179b0ffacaa9a75d522b39400f818301527f1187d3155e7333c5ae66f4683cd63f3d9f59576658984d8eb446e038fca00ce5818401527fc89efdaa54c0f20c7adf612882df0950f5a951637e0307cdcb4c672f298b8bc660608201524660808201523060a0808301919091528351808303909101815260c09091019092528151910120600b5550620004af9050565b600080546001600160a01b038381166001600160a01b0319831681178455604051919092169283917f8be0079c531659141344cd1fd0a4f28419497f9722a3daafe3b4186f6b6457e09190a35050565b82805482825590600052602060002090810192821562000324579160200282015b828111156200032457825182546001600160a01b0319166001600160a01b03909116178255602090920191600190910190620002ed565b506200033292915062000336565b5090565b5b8082111562000332576000815560010162000337565b80516001600160a01b03811681146200036557600080fd5b919050565b634e487b7160e01b600052604160045260246000fd5b60008060008060008060c087890312156200039a57600080fd5b620003a5876200034d565b95506020620003b68189016200034d565b60408901519096506001600160401b038082168214620003d557600080fd5b60608a015191965080821115620003eb57600080fd5b818a0191508a601f8301126200040057600080fd5b8151818111156200041557620004156200036a565b8060051b604051601f19603f830116810181811085821117156200043d576200043d6200036a565b60405291825284820192508381018501918d8311156200045c57600080fd5b938501935b82851015620004855762000475856200034d565b8452938501939285019262000461565b80985050505050505060808701519150620004a360a088016200034d565b90509295509295509295565b60805160a05161375d6200050d6000396000818161022f015281816112ac01528181611382015281816114af015281816115cd015261167e015260008181610508015281816117b301528181611f43015261238b015261375d6000f3fe6080604052600436106101dc5760003560e01c8063715018a611610102578063b3cc026d11610095578063eda9882611610064578063eda9882614610663578063f2fde38b14610683578063f698da25146106a3578063fbf4e708146106b957600080fd5b8063b3cc026d1461052c578063d227f6ff14610559578063dc18fa9514610579578063e98a814e146105b457600080fd5b80638da5cb5b116100d15780638da5cb5b146104a8578063960bfe04146104c6578063aa7568da146104e6578063b0f479a1146104f957600080fd5b8063715018a6146104165780637ecebe001461042b57806385572ffb1461045857806388ba16ab1461047857600080fd5b806340a141ff1161017a57806364dd82181161014957806364dd821814610398578063667cb4ba146103ab5780636bbfdf47146103e15780637071688a1461040157600080fd5b806340a141ff1461032257806342cde4e8146103425780634d238c8e1461035857806364b6478b1461037857600080fd5b806334fc9337116101b657806334fc93371461028b57806335aa2e44146102cd5780633ccfd60b146102ed5780633fd442dd1461030257600080fd5b806301ffc9a7146101e85780631358102e1461021d57806326bdce5a1461026957600080fd5b366101e357005b600080fd5b3480156101f457600080fd5b50610208610203366004612e79565b6106f8565b60405190151581526020015b60405180910390f35b34801561022957600080fd5b506102517f000000000000000000000000000000000000000000000000000000000000000081565b6040516001600160a01b039091168152602001610214565b34801561027557600080fd5b50610289610284366004612ebf565b61072f565b005b34801561029757600080fd5b506102bf7f871b9fef34685e31b9551b2e4b6991006cd3ab5225a4a97b6c8548388d70879e81565b604051908152602001610214565b3480156102d957600080fd5b506102516102e8366004612eeb565b6108e9565b3480156102f957600080fd5b50610289610913565b34801561030e57600080fd5b5061028961031d366004613003565b61099f565b34801561032e57600080fd5b5061028961033d36600461305d565b610e8c565b34801561034e57600080fd5b506102bf60055481565b34801561036457600080fd5b5061028961037336600461305d565b61102a565b34801561038457600080fd5b5061028961039336600461307a565b6111ba565b6102896103a6366004612eeb565b61123e565b3480156103b757600080fd5b506102516103c6366004612eeb565b6002602052600090815260409020546001600160a01b031681565b3480156103ed57600080fd5b50600354610251906001600160a01b031681565b34801561040d57600080fd5b506004546102bf565b34801561042257600080fd5b50610289611794565b34801561043757600080fd5b506102bf61044636600461305d565b600a6020526000908152604090205481565b34801561046457600080fd5b506102896104733660046130aa565b6117a8565b34801561048457600080fd5b50610208610493366004612eeb565b60096020526000908152604090205460ff1681565b3480156104b457600080fd5b506000546001600160a01b0316610251565b3480156104d257600080fd5b506102896104e1366004612eeb565b611807565b6102bf6104f43660046130e4565b611951565b34801561050557600080fd5b507f0000000000000000000000000000000000000000000000000000000000000000610251565b34801561053857600080fd5b506102bf610547366004612eeb565b60076020526000908152604090205481565b34801561056557600080fd5b506102bf6105743660046130e4565b612287565b34801561058557600080fd5b5061020861059436600461307a565b600660209081526000928352604080842090915290825290205460ff1681565b3480156105c057600080fd5b5061061d6105cf366004612eeb565b600860205260009081526040902080546001820154600283015460038401546004850154600586015460069096015494956001600160a01b03948516959385169490921692909160ff169087565b604080519788526001600160a01b03968716602089015294861694870194909452939091166060850152608084015260ff90911660a083015260c082015260e001610214565b34801561066f57600080fd5b5061028961067e366004613122565b612423565b34801561068f57600080fd5b5061028961069e36600461305d565b612460565b3480156106af57600080fd5b506102bf600b5481565b3480156106c557600080fd5b506003546106e090600160a01b90046001600160401b031681565b6040516001600160401b039091168152602001610214565b60006001600160e01b031982166385572ffb60e01b148061072957506001600160e01b031982166301ffc9a760e01b145b92915050565b61073761249b565b6001600160a01b0382166107925760405162461bcd60e51b815260206004820152601960248201527f4e6577206f776e6572206973207a65726f20616464726573730000000000000060448201526064015b60405180910390fd5b6000818152600260205260409020546001600160a01b0316806107c75760405162461bcd60e51b815260040161078990613157565b306001600160a01b0316816001600160a01b0316638da5cb5b6040518163ffffffff1660e01b8152600401602060405180830381865afa15801561080f573d6000803e3d6000fd5b505050506040513d601f19601f820116820180604052508101906108339190613182565b6001600160a01b0316146108895760405162461bcd60e51b815260206004820152601960248201527f427269646765206973206e6f7420746f6b656e206f776e6572000000000000006044820152606401610789565b60405163f2fde38b60e01b81526001600160a01b03848116600483015282169063f2fde38b90602401600060405180830381600087803b1580156108cc57600080fd5b505af11580156108e0573d6000803e3d6000fd5b50505050505050565b600481815481106108f957600080fd5b6000918252602090912001546001600160a01b0316905081565b61091b61249b565b47806109625760405162461bcd60e51b81526020600482015260166024820152754e6f2062616c616e636520746f20776974686472617760501b6044820152606401610789565b600080546040516001600160a01b039091169183156108fc02918491818181858888f1935050505015801561099b573d6000803e3d6000fd5b5050565b6109a8336124c8565b6109e45760405162461bcd60e51b815260206004820152600d60248201526c2737ba103b30b634b230ba37b960991b6044820152606401610789565b8035600090815260066020908152604080832033845290915290205460ff1615610a415760405162461bcd60e51b815260206004820152600e60248201526d105b1c9958591e481cda59db995960921b6044820152606401610789565b600a6000610a55606084016040850161305d565b6001600160a01b03168152602081019190915260400160002054610a7a9060016131b5565b8160c0013514610abc5760405162461bcd60e51b815260206004820152600d60248201526c496e76616c6964206e6f6e636560981b6044820152606401610789565b6000610ad5610ad0368490038401846131d7565b612531565b905081358114610b1e5760405162461bcd60e51b8152602060048201526014602482015273092dcecc2d8d2c840dacae6e6c2ceca40d0c2e6d60631b6044820152606401610789565b610b2a8235843361262c565b610b6a5760405162461bcd60e51b8152602060048201526011602482015270496e76616c6964207369676e617475726560781b6044820152606401610789565b81356000908152600760205260408120549003610c52576000610b93606084016040850161305d565b6001600160a01b031603610be55760405162461bcd60e51b8152602060048201526019602482015278496e76616c696420726563697069656e74206164647265737360381b6044820152606401610789565b6000826080013511610c2e5760405162461bcd60e51b81526020600482015260126024820152710416d6f756e74206d757374206265203e20360741b6044820152606401610789565b813560009081526008602052604090208290610c4a828261329b565b905050610dbb565b8135600081815260086020908152604091829020825160e081018452815480825260018301546001600160a01b039081169483019490945260028301548416948201949094526003820154909216606083015260048101546080830152600581015460ff1660a08301526006015460c082015291148015610cf75750610cde604084016020850161305d565b6001600160a01b031681602001516001600160a01b0316145b8015610d275750610d0e606084016040850161305d565b6001600160a01b031681604001516001600160a01b0316145b8015610d575750610d3e608084016060850161305d565b6001600160a01b031681606001516001600160a01b0316145b8015610d6a575082608001358160800151145b8015610d7d57508260c001358160c00151145b610db95760405162461bcd60e51b815260206004820152600d60248201526c088c2e8c240dad2e6dac2e8c6d609b1b6044820152606401610789565b505b813560008181526006602090815260408083203384528252808320805460ff19166001908117909155938352600790915281208054909190610dfe9084906131b5565b909155505060405133908335907f9fae4663050594146745d8ef909ace78285592fca37a57e4e551398fe43a9e6990600090a3600554823560009081526007602052604090205410610e875760c0820135600a6000610e63606086016040870161305d565b6001600160a01b03168152602081019190915260400160002055610e878235612654565b505050565b610e9461249b565b610e9d816124c8565b610edf5760405162461bcd60e51b815260206004820152601360248201527215985b1a59185d1bdc881b9bdd08199bdd5b99606a1b6044820152606401610789565b60005b60045481101561099b57816001600160a01b031660048281548110610f0957610f0961332c565b6000918252602090912001546001600160a01b0316036110185760048054610f3390600190613342565b81548110610f4357610f4361332c565b600091825260209091200154600480546001600160a01b039092169183908110610f6f57610f6f61332c565b9060005260206000200160006101000a8154816001600160a01b0302191690836001600160a01b031602179055506004805480610fae57610fae613355565b600082815260209020810160001990810180546001600160a01b0319169055019055610fd86129f0565b6040516001600160a01b03831681527fe1434e25d6611e0db941968fdc97811c982ac1602e951637d206f5fdda9dd8f19060200160405180910390a15050565b806110228161336b565b915050610ee2565b61103261249b565b6001600160a01b0381166110885760405162461bcd60e51b815260206004820152601960248201527f496e76616c69642076616c696461746f722061646472657373000000000000006044820152606401610789565b611091816124c8565b156110de5760405162461bcd60e51b815260206004820152601860248201527f56616c696461746f7220616c72656164792065786973747300000000000000006044820152606401610789565b600454600019116111275760405162461bcd60e51b815260206004820152601360248201527215985b1a59185d1bdc881b1a5cdd08199d5b1b606a1b6044820152606401610789565b600480546001810182556000919091527f8a35acfbc15ff81a39ae7d344fd709f28e8600b4aa8c65c6b64bfe7fe36bd19b0180546001600160a01b0319166001600160a01b03831617905561117a6129f0565b6040516001600160a01b03821681527fe366c1c0452ed8eec96861e9e54141ebff23c9ec89fe27b996b45f5ec3884987906020015b60405180910390a150565b6111c261249b565b6001600160a01b0381166112105760405162461bcd60e51b8152602060048201526015602482015274496e76616c696420746f6b656e206164647265737360581b6044820152606401610789565b60009182526002602052604090912080546001600160a01b0319166001600160a01b03909216919091179055565b6000811161128e5760405162461bcd60e51b815260206004820152601d60248201527f416d6f756e74206d7573742062652067726561746572207468616e20300000006044820152606401610789565b604051636eb1769f60e11b81523360048201523060248201526000907f00000000000000000000000000000000000000000000000000000000000000006001600160a01b03169063dd62ed3e90604401602060405180830381865afa1580156112fb573d6000803e3d6000fd5b505050506040513d601f19601f8201168201806040525081019061131f9190613384565b90508181101561136a5760405162461bcd60e51b8152602060048201526016602482015275496e73756666696369656e7420616c6c6f77616e636560501b6044820152606401610789565b6040516370a0823160e01b81523360048201526000907f00000000000000000000000000000000000000000000000000000000000000006001600160a01b0316906370a0823190602401602060405180830381865afa1580156113d1573d6000803e3d6000fd5b505050506040513d601f19601f820116820180604052508101906113f59190613384565b9050828110156114435760405162461bcd60e51b8152602060048201526019602482015278496e73756666696369656e7420757365722062616c616e636560381b6044820152606401610789565b600080516020613708833981519152604051611482906020808252600f908201526e557365722062616c616e6365204f4b60881b604082015260600190565b60405180910390a16040516323b872dd60e01b8152336004820152306024820152604481018490526000907f00000000000000000000000000000000000000000000000000000000000000006001600160a01b0316906323b872dd906064016020604051808303816000875af1158015611500573d6000803e3d6000fd5b505050506040513d601f19601f82011682018060405250810190611524919061339d565b9050806115695760405162461bcd60e51b81526020600482015260136024820152721d1c985b9cd9995c919c9bdb4819985a5b1959606a1b6044820152606401610789565b6000805160206137088339815191526040516115ad906020808252601490820152737472616e7366657246726f6d207375636365737360601b604082015260600190565b60405180910390a16040516370a0823160e01b81523060048201526000907f00000000000000000000000000000000000000000000000000000000000000006001600160a01b0316906370a0823190602401602060405180830381865afa15801561161c573d6000803e3d6000fd5b505050506040513d601f19601f820116820180604052508101906116409190613384565b9050848110156116625760405162461bcd60e51b8152600401610789906133bf565b604051632770a7eb60e21b8152306004820152602481018690527f00000000000000000000000000000000000000000000000000000000000000006001600160a01b031690639dc29fac90604401600060405180830381600087803b1580156116ca57600080fd5b505af11580156116de573d6000803e3d6000fd5b5050505060008051602061370883398151915260405161171e906020808252600c908201526b151bdad95b88189d5c9b995960a21b604082015260600190565b60405180910390a16003546040516001600160a01b039091169033907f23173fdb06eb8374a113dccf0ee66a40def741c34cd050371a153801fa017ff59061178590898152604060208201819052600490820152637753454960e01b606082015260800190565b60405180910390a35050505050565b61179c61249b565b6117a66000612a6b565b565b336001600160a01b037f000000000000000000000000000000000000000000000000000000000000000016146117f3576040516335fdcccd60e21b8152336004820152602401610789565b6118046117ff826134b6565b612abb565b50565b61180f61249b565b600081116118575760405162461bcd60e51b815260206004820152601560248201527405468726573686f6c64206d757374206265203e203605c1b6044820152606401610789565b6004548111156118b35760405162461bcd60e51b815260206004820152602160248201527f5468726573686f6c6420657863656564732076616c696461746f7220636f756e6044820152601d60fa1b6064820152608401610789565b6004546003906118c4906002613562565b6118cf9060026131b5565b6118d99190613579565b81101561191c5760405162461bcd60e51b81526020600482015260116024820152705468726573686f6c6420746f6f206c6f7760781b6044820152606401610789565b60058190556040518181527fadfa8ecb21b6962ebcd0adbd9ab985b7b4c5b5eb3b0dead683171565c7bfe171906020016111af565b60008082116119a25760405162461bcd60e51b815260206004820152601d60248201527f416d6f756e74206d7573742062652067726561746572207468616e20300000006044820152606401610789565b6000838152600260209081526040918290205482518681526001600160a01b0390911691810182905290917f36170320d8ca8be3d546f9996a88ecdb045666ab852703d1b7ee975a9e1d32f2910160405180910390a16001600160a01b038116611a1e5760405162461bcd60e51b815260040161078990613157565b600080516020613708833981519152604051611a619060208082526013908201527205374617274206275726e546f6b656e4343495606c1b604082015260600190565b60405180910390a1604051636eb1769f60e11b81523360048201523060248201526000906001600160a01b0383169063dd62ed3e90604401602060405180830381865afa158015611ab6573d6000803e3d6000fd5b505050506040513d601f19601f82011682018060405250810190611ada9190613384565b905083811015611b255760405162461bcd60e51b8152602060048201526016602482015275496e73756666696369656e7420616c6c6f77616e636560501b6044820152606401610789565b6040516370a0823160e01b81523360048201526000906001600160a01b038416906370a0823190602401602060405180830381865afa158015611b6c573d6000803e3d6000fd5b505050506040513d601f19601f82011682018060405250810190611b909190613384565b905084811015611bde5760405162461bcd60e51b8152602060048201526019602482015278496e73756666696369656e7420757365722062616c616e636560381b6044820152606401610789565b600080516020613708833981519152604051611c1d906020808252600f908201526e557365722062616c616e6365204f4b60881b604082015260600190565b60405180910390a16040516323b872dd60e01b8152336004820152306024820152604481018690526000906001600160a01b038516906323b872dd906064016020604051808303816000875af1158015611c7b573d6000803e3d6000fd5b505050506040513d601f19601f82011682018060405250810190611c9f919061339d565b905080611ce45760405162461bcd60e51b81526020600482015260136024820152721d1c985b9cd9995c919c9bdb4819985a5b1959606a1b6044820152606401610789565b600080516020613708833981519152604051611d28906020808252601490820152737472616e7366657246726f6d207375636365737360601b604082015260600190565b60405180910390a16040516370a0823160e01b81523060048201526000906001600160a01b038616906370a0823190602401602060405180830381865afa158015611d77573d6000803e3d6000fd5b505050506040513d601f19601f82011682018060405250810190611d9b9190613384565b905086811015611dbd5760405162461bcd60e51b8152600401610789906133bf565b604051632770a7eb60e21b8152306004820152602481018890526001600160a01b03861690639dc29fac90604401600060405180830381600087803b158015611e0557600080fd5b505af1158015611e19573d6000803e3d6000fd5b50505050600080516020613708833981519152604051611e59906020808252600c908201526b151bdad95b88189d5c9b995960a21b604082015260600190565b60405180910390a16040805160a0810182526003546001600160a01b031660c0808301919091528251808303909101815260e08201835281528151336020808301919091528184018c905260608083018c9052845180840390910181526080909201845280830191909152825160008082529181018452909282019083611f02565b6040805180820190915260008082526020820152815260200190600190039081611edb5790505b50815260200160006001600160a01b03168152602001611f3b6040518060400160405280620493e0815260200160011515815250612c30565b9052905060007f00000000000000000000000000000000000000000000000000000000000000006003546040516320487ded60e01b81529192506000916001600160a01b038416916320487ded91611fa891600160a01b90046001600160401b03169087906004016135e1565b602060405180830381865afa158015611fc5573d6000803e3d6000fd5b505050506040513d601f19601f82011682018060405250810190611fe99190613384565b90507f01c07ee12c70d5c6053fd06c4684862308f1d87ce067678c60fec95f02ecb3238160405161201c91815260200190565b60405180910390a18034101561206c5760405162461bcd60e51b8152602060048201526015602482015274125b9cdd59999a58da595b9d08199959481cd95b9d605a1b6044820152606401610789565b6003546040516396f4e9f960e01b81526001600160a01b038416916396f4e9f99134916120af91600160a01b9091046001600160401b03169088906004016135e1565b60206040518083038185885af11580156120cd573d6000803e3d6000fd5b50505050506040513d601f19601f820116820180604052508101906120f29190613384565b604080518d8152602081018d9052919a5033918b917f1059114fec5b70356dc48b7f3dc7db086dd1e99c932c5622c535859344584f79910160405180910390a3803411156122305760006121468234613342565b604051909150600090339083908381818185875af1925050503d806000811461218b576040519150601f19603f3d011682016040523d82523d6000602084013e612190565b606091505b5050905080156121e7576000805160206137088339815191526040516121da9060208082526010908201526f1499599d5b99081cdd58d8d95959195960821b604082015260600190565b60405180910390a161222d565b600080516020613708833981519152604051612224906020808252600d908201526c1499599d5b990819985a5b1959609a1b604082015260600190565b60405180910390a15b50505b600080516020613708833981519152604051612271906020808252601190820152700456e64206275726e546f6b656e4343495607c1b604082015260600190565b60405180910390a1505050505050505092915050565b6040805160a081019091526003546001600160a01b031660c082015260009081908060e0810160408051601f198184030181529181529082528051336020828101919091529181018790526060810188905291019060800160408051601f198184030181529190528152602001600060405190808252806020026020018201604052801561233b57816020015b60408051808201909152600080825260208201528152602001906001900390816123145790505b50815260200160006001600160a01b031681526020016123746040518060400160405280620493e0815260200160011515815250612c30565b90526003546040516320487ded60e01b81529192507f00000000000000000000000000000000000000000000000000000000000000006001600160a01b0316916320487ded916123da91600160a01b9091046001600160401b03169085906004016135e1565b602060405180830381865afa1580156123f7573d6000803e3d6000fd5b505050506040513d601f19601f8201168201806040525081019061241b9190613384565b949350505050565b61242b61249b565b600380546001600160401b03909216600160a01b026001600160e01b03199092166001600160a01b0390931692909217179055565b61246861249b565b6001600160a01b03811661249257604051631e4fbdf760e01b815260006004820152602401610789565b61180481612a6b565b6000546001600160a01b031633146117a65760405163118cdaa760e01b8152336004820152602401610789565b6000805b60045481101561252857826001600160a01b0316600482815481106124f3576124f361332c565b6000918252602090912001546001600160a01b0316036125165750600192915050565b806125208161336b565b9150506124cc565b50600092915050565b6000600b547f871b9fef34685e31b9551b2e4b6991006cd3ab5225a4a97b6c8548388d70879e836000015184602001518560400151866060015187608001518860a001518960c001516040516020016125d298979695949392919097885260208801969096526001600160a01b03948516604088015292841660608701529216608085015260a084019190915260ff1660c083015260e08201526101000190565b6040516020818303038152906040528051906020012060405160200161260f92919061190160f01b81526002810192909252602282015260420190565b604051602081830303815290604052805190602001209050919050565b6000816001600160a01b03166126428585612c7a565b6001600160a01b031614949350505050565b60008181526009602052604090205460ff16156126b35760405162461bcd60e51b815260206004820152601960248201527f4d65737361676520616c72656164792070726f636573736564000000000000006044820152606401610789565b600081815260086020908152604091829020825160e0810184528154815260018201546001600160a01b0390811693820193909352600282015483169381019390935260038101549091166060830152600481015460808301819052600582015460ff1660a084015260069091015460c08301526127645760405162461bcd60e51b815260206004820152600e60248201526d125b9d985b1a5908185b5bdd5b9d60921b6044820152606401610789565b60408101516001600160a01b03166127ba5760405162461bcd60e51b8152602060048201526019602482015278496e76616c696420726563697069656e74206164647265737360381b6044820152606401610789565b60608101516001600160a01b031661280c5760405162461bcd60e51b8152602060048201526015602482015274496e76616c696420746f6b656e206164647265737360581b6044820152606401610789565b60008281526009602052604090819020805460ff19166001179055606082015182820151608084015192516340c10f1960e01b81526001600160a01b039182166004820152602481019390935216906340c10f1990604401600060405180830381600087803b15801561287e57600080fd5b505af1158015612892573d6000803e3d6000fd5b505050604080830151606080850151608086015184516001600160a01b039485168152939091166020840152928201929092527f1478e2524482ece60923e9413ce6309790dfeb71ab7f4d4095dd1526c781249392500160405180910390a160008281526008602090815260408083208381556001810180546001600160a01b03199081169091556002820180548216905560038201805490911690556004810184905560058101805460ff19169055600601839055600790915281208190555b6004548110156129c057600083815260066020526040812060048054919291849081106129825761298261332c565b60009182526020808320909101546001600160a01b031683528201929092526040019020805460ff19169055806129b88161336b565b915050612953565b5060405182907fa74c8847d513feba22a0f0cb38d53081abf97562cdb293926ba243689e7c41ca90600090a25050565b600454600003612a04576000600555612a2e565b600454600390612a15906002613562565b612a209060026131b5565b612a2a9190613579565b6005555b7fadfa8ecb21b6962ebcd0adbd9ab985b7b4c5b5eb3b0dead683171565c7bfe171600554604051612a6191815260200190565b60405180910390a1565b600080546001600160a01b038381166001600160a01b0319831681178455604051919092169283917f8be0079c531659141344cd1fd0a4f28419497f9722a3daafe3b4186f6b6457e09190a35050565b60035460208201516001600160401b03908116600160a01b9092041614612b1b5760405162461bcd60e51b815260206004820152601460248201527324b73b30b634b21039b7bab931b29031b430b4b760611b6044820152606401610789565b60008060008360600151806020019051810190612b3891906136ba565b60008281526002602052604090205492955090935091506001600160a01b031680612b755760405162461bcd60e51b815260040161078990613157565b6040516340c10f1960e01b81526001600160a01b038581166004830152602482018490528216906340c10f1990604401600060405180830381600087803b158015612bbf57600080fd5b505af1158015612bd3573d6000803e3d6000fd5b505050506020858101518651604080516001600160a01b038916815293840187905283018590526001600160401b03909116917fc1bbf26ddd116efa38450e12fc1f7d9b4a32cd3dd813342ee61eb45a6eb9e77990606001611785565b6040805182516024820152602092830151151560448083019190915282518083039091018152606490910190915290810180516001600160e01b0316630181dcf160e41b17905290565b600080600080612c8a8686612ca4565b925092509250612c9a8282612cf1565b5090949350505050565b60008060008351604103612cde5760208401516040850151606086015160001a612cd088828585612daa565b955095509550505050612cea565b50508151600091506002905b9250925092565b6000826003811115612d0557612d056136f1565b03612d0e575050565b6001826003811115612d2257612d226136f1565b03612d405760405163f645eedf60e01b815260040160405180910390fd5b6002826003811115612d5457612d546136f1565b03612d755760405163fce698f760e01b815260048101829052602401610789565b6003826003811115612d8957612d896136f1565b0361099b576040516335e2f38360e21b815260048101829052602401610789565b600080807f7fffffffffffffffffffffffffffffff5d576e7357a4501ddfe92f46681b20a0841115612de55750600091506003905082612e6f565b604080516000808252602082018084528a905260ff891692820192909252606081018790526080810186905260019060a0016020604051602081039080840390855afa158015612e39573d6000803e3d6000fd5b5050604051601f1901519150506001600160a01b038116612e6557506000925060019150829050612e6f565b9250600091508190505b9450945094915050565b600060208284031215612e8b57600080fd5b81356001600160e01b031981168114612ea357600080fd5b9392505050565b6001600160a01b038116811461180457600080fd5b60008060408385031215612ed257600080fd5b8235612edd81612eaa565b946020939093013593505050565b600060208284031215612efd57600080fd5b5035919050565b634e487b7160e01b600052604160045260246000fd5b604080519081016001600160401b0381118282101715612f3c57612f3c612f04565b60405290565b60405160a081016001600160401b0381118282101715612f3c57612f3c612f04565b604051601f8201601f191681016001600160401b0381118282101715612f8c57612f8c612f04565b604052919050565b600082601f830112612fa557600080fd5b81356001600160401b03811115612fbe57612fbe612f04565b612fd1601f8201601f1916602001612f64565b818152846020838601011115612fe657600080fd5b816020850160208301376000918101602001919091529392505050565b60008082840361010081121561301857600080fd5b83356001600160401b0381111561302e57600080fd5b61303a86828701612f94565b93505060e0601f198201121561304f57600080fd5b506020830190509250929050565b60006020828403121561306f57600080fd5b8135612ea381612eaa565b6000806040838503121561308d57600080fd5b82359150602083013561309f81612eaa565b809150509250929050565b6000602082840312156130bc57600080fd5b81356001600160401b038111156130d257600080fd5b820160a08185031215612ea357600080fd5b600080604083850312156130f757600080fd5b50508035926020909101359150565b80356001600160401b038116811461311d57600080fd5b919050565b6000806040838503121561313557600080fd5b823561314081612eaa565b915061314e60208401613106565b90509250929050565b6020808252601190820152702ab739bab83837b93a32b2103a37b5b2b760791b604082015260600190565b60006020828403121561319457600080fd5b8151612ea381612eaa565b634e487b7160e01b600052601160045260246000fd5b808201808211156107295761072961319f565b60ff8116811461180457600080fd5b600060e082840312156131e957600080fd5b60405160e081018181106001600160401b038211171561320b5761320b612f04565b60405282358152602083013561322081612eaa565b6020820152604083013561323381612eaa565b6040820152606083013561324681612eaa565b60608201526080838101359082015260a0830135613263816131c8565b60a082015260c0928301359281019290925250919050565b80546001600160a01b0319166001600160a01b0392909216919091179055565b8135815560208201356132ad81612eaa565b6132ba816001840161327b565b5060408201356132c981612eaa565b6132d6816002840161327b565b5060608201356132e581612eaa565b6132f2816003840161327b565b50608082013560048201556005810160a083013561330f816131c8565b60ff811660ff19835416178255505060c082013560068201555050565b634e487b7160e01b600052603260045260246000fd5b818103818111156107295761072961319f565b634e487b7160e01b600052603160045260246000fd5b60006001820161337d5761337d61319f565b5060010190565b60006020828403121561339657600080fd5b5051919050565b6000602082840312156133af57600080fd5b81518015158114612ea357600080fd5b6020808252602b908201527f436f6e74726163742062616c616e636520746f6f206c6f77206166746572207460408201526a72616e7366657246726f6d60a81b606082015260800190565b600082601f83011261341b57600080fd5b813560206001600160401b0382111561343657613436612f04565b613444818360051b01612f64565b82815260069290921b8401810191818101908684111561346357600080fd5b8286015b848110156134ab57604081890312156134805760008081fd5b613488612f1a565b813561349381612eaa565b81528185013585820152835291830191604001613467565b509695505050505050565b600060a082360312156134c857600080fd5b6134d0612f42565b823581526134e060208401613106565b602082015260408301356001600160401b03808211156134ff57600080fd5b61350b36838701612f94565b6040840152606085013591508082111561352457600080fd5b61353036838701612f94565b6060840152608085013591508082111561354957600080fd5b506135563682860161340a565b60808301525092915050565b80820281158282048414176107295761072961319f565b60008261359657634e487b7160e01b600052601260045260246000fd5b500490565b6000815180845260005b818110156135c1576020818501810151868301820152016135a5565b506000602082860101526020601f19601f83011685010191505092915050565b600060406001600160401b038516835260208181850152845160a08386015261360d60e086018261359b565b905081860151603f198087840301606088015261362a838361359b565b88860151888203830160808a01528051808352908601945060009350908501905b8084101561367d57845180516001600160a01b031683528601518683015293850193600193909301929086019061364b565b5060608901516001600160a01b031660a08901526080890151888203830160c08a015295506136ac818761359b565b9a9950505050505050505050565b6000806000606084860312156136cf57600080fd5b83516136da81612eaa565b602085015160409095015190969495509392505050565b634e487b7160e01b600052602160045260246000fdfe860fab49fdadbdbe734e78cb9bc1a5f504e2d1d356c9930aef6e010448db52b9a264697066735822122020f2cf86c25324c83d81cb237e4b03db11850395bccf4e7f902f41b5a6ad440b64736f6c63430008140033",
  "linkReferences": {},
  "deployedLinkReferences": {}
}